{
  "transactions": [
    {
      "hash": "0xc684e40265a3bfa060239657bb6271d2314169b29decbf5b7cfde1b1fbc5722a",
      "transactionType": "CALL",
      "contractName": null,
      "contractAddress": "0x0000000000E33e35EE6052fae87bfcFac61b1da9",
      "function": "beginDefaultAdminTransfer(address)",
      "arguments": [
        "0x0000000000417626Ef34D62C4DC189b021603f2F"
      ],
      "transaction": {
        "type": "0x02",
        "from": "0x01bd9abd70d74d8ec70d338bd6099ca29da3f9b4",
        "to": "0x0000000000e33e35ee6052fae87bfcfac61b1da9",
        "gas": "0x12cb7",
        "value": "0x0",
        "data": "0x634e93da0000000000000000000000000000000000417626ef34d62c4dc189b021603f2f",
        "nonce": "0x25",
        "accessList": []
      },
      "additionalContracts": [],
      "isFixedGasLimit": false
    },
    {
      "hash": "0xe6bc6c4f212437df7303c31596567c59e9b92e0e739292486221f4cf33c95546",
      "transactionType": "CALL",
      "contractName": "ProxyAdmin",
      "contractAddress": "0x7FB5486dAE3FA417DAC3Be2bE49466C99d17EBd2",
      "function": "transferOwnership(address)",
      "arguments": [
        "0x0000000000417626Ef34D62C4DC189b021603f2F"
      ],
      "transaction": {
        "type": "0x02",
        "from": "0x01bd9abd70d74d8ec70d338bd6099ca29da3f9b4",
        "to": "0x7fb5486dae3fa417dac3be2be49466c99d17ebd2",
        "gas": "0x10197",
        "value": "0x0",
        "data": "0xf2fde38b0000000000000000000000000000000000417626ef34d62c4dc189b021603f2f",
        "nonce": "0x26",
        "accessList": []
      },
      "additionalContracts": [],
      "isFixedGasLimit": false
    }
  ],
  "receipts": [
    {
      "transactionHash": "0xc684e40265a3bfa060239657bb6271d2314169b29decbf5b7cfde1b1fbc5722a",
      "transactionIndex": "0x38",
      "blockHash": "0x2dfc97821391c0ce3c1429359ca5bba9fa76041b517061c87b8fcfffb219f0f0",
      "blockNumber": "0x127d3cb",
      "from": "0x01bd9aBD70D74D8eC70D338bD6099ca29DA3F9B4",
      "to": "0x0000000000E33e35EE6052fae87bfcFac61b1da9",
      "cumulativeGasUsed": "0x723c2f",
      "gasUsed": "0xd9b7",
      "contractAddress": null,
      "logs": [
        {
          "address": "0x0000000000E33e35EE6052fae87bfcFac61b1da9",
          "topics": [
            "0x3377dc44241e779dd06afab5b788a35ca5f3b778836e2990bdb26a2a4b2e5ed6",
            "0x0000000000000000000000000000000000417626ef34d62c4dc189b021603f2f"
          ],
          "data": "0x0000000000000000000000000000000000000000000000000000000065ea71a3",
          "blockHash": "0x2dfc97821391c0ce3c1429359ca5bba9fa76041b517061c87b8fcfffb219f0f0",
          "blockNumber": "0x127d3cb",
          "transactionHash": "0xc684e40265a3bfa060239657bb6271d2314169b29decbf5b7cfde1b1fbc5722a",
          "transactionIndex": "0x38",
          "logIndex": "0xbf",
          "removed": false
        }
      ],
      "status": "0x1",
      "logsBloom": "0x00000000000000000000020000000000000000000000000000000000000000000000000000000000002000000000000000000000000000000000000000000000000000000000000000000000000000000010000000000000000000000000000000000000000000000000000000000000000040000000000000000000000000000000000000000000000000000000000000000000000000000000000000000000000000000080000000000000000000000400000000000000000000000080000000000000000000000000040000000000000000000000000000000000000000000000000000000000000000000000000000000000000000000000000200000000",
      "type": "0x2",
      "effectiveGasPrice": "0xd042a70c4"
    },
    {
      "transactionHash": "0xe6bc6c4f212437df7303c31596567c59e9b92e0e739292486221f4cf33c95546",
      "transactionIndex": "0x1c",
      "blockHash": "0xb0b62ddcd82a6bb2d9dacda57d01e9b3804a0c26a1e8a9dd56a24978bcc15444",
      "blockNumber": "0x127d3cc",
      "from": "0x01bd9aBD70D74D8eC70D338bD6099ca29DA3F9B4",
      "to": "0x7FB5486dAE3FA417DAC3Be2bE49466C99d17EBd2",
      "cumulativeGasUsed": "0x451c70",
      "gasUsed": "0xba7f",
      "contractAddress": null,
      "logs": [
        {
          "address": "0x7FB5486dAE3FA417DAC3Be2bE49466C99d17EBd2",
          "topics": [
            "0x38d16b8cac22d99fc7c124b9cd0de2d3fa1faef420bfe791d8c362d765e22700",
            "0x00000000000000000000000001bd9abd70d74d8ec70d338bd6099ca29da3f9b4",
            "0x0000000000000000000000000000000000417626ef34d62c4dc189b021603f2f"
          ],
          "data": "0x",
          "blockHash": "0xb0b62ddcd82a6bb2d9dacda57d01e9b3804a0c26a1e8a9dd56a24978bcc15444",
          "blockNumber": "0x127d3cc",
          "transactionHash": "0xe6bc6c4f212437df7303c31596567c59e9b92e0e739292486221f4cf33c95546",
          "transactionIndex": "0x1c",
          "logIndex": "0x87",
          "removed": false
        }
      ],
      "status": "0x1",
      "logsBloom": "0x00000000000000000000020000000000000000000000000000000002000000000000000000000000008000000000000000000000000000000000000000000000000000000000000000000000000000000010000000000000000000000000000000000000000000000000000000000000000840000000000000000000000000000000000000000000000000000000800000000000000000000000000000000000000000000000020000000000000000000000000000000000000000000000000000002000000000000000000000000000000000000000000000002000000000000000000000000800000000080000000000000000000000000000000000000000",
      "type": "0x2",
      "effectiveGasPrice": "0xd23002fc8"
    }
  ],
  "libraries": [],
  "pending": [],
  "returns": {},
  "timestamp": 1709863347,
  "chain": 1,
  "multi": false,
  "commit": "1c42b94"
}