{
  "transactions": [
    {
      "hash": "0x7edc3e945a83be61b383358bc2e0d502dacf9119de3d6cdf1b8bb0ee965e3dd8",
      "transactionType": "CALL",
      "contractName": null,
      "contractAddress": "0x00000000007C8105548f9d0eE081987378a6bE93",
      "function": "grantRole(bytes32,address)",
      "arguments": [
        "0x5e17fc5225d4a099df75359ce1f405503ca79498a8dc46a7d583235a0ee45c16",
        "0x0000000000471A3b87706d651C7C9e645c5c0d16"
      ],
      "transaction": {
        "type": "0x02",
        "from": "0x01bd9abd70d74d8ec70d338bd6099ca29da3f9b4",
        "to": "0x00000000007c8105548f9d0ee081987378a6be93",
        "gas": "0x1323b",
        "value": "0x0",
        "data": "0x2f2ff15d5e17fc5225d4a099df75359ce1f405503ca79498a8dc46a7d583235a0ee45c160000000000000000000000000000000000471a3b87706d651c7c9e645c5c0d16",
        "nonce": "0x37",
        "accessList": []
      },
      "additionalContracts": [],
      "isFixedGasLimit": false
    },
    {
      "hash": "0x570567d53136d0fcc9783073f97a7914d95d10e44de4d154f482e644ba59d5e6",
      "transactionType": "CALL",
      "contractName": null,
      "contractAddress": "0x00000000007C8105548f9d0eE081987378a6bE93",
      "function": "grantRole(bytes32,address)",
      "arguments": [
        "0xc8e63ee95f263967af737f71b1c5d180e676a7f8b91a501b355a526a9a8fe3eb",
        "0xD696f9EA3299113324B9065ab19b70758256cf16"
      ],
      "transaction": {
        "type": "0x02",
        "from": "0x01bd9abd70d74d8ec70d338bd6099ca29da3f9b4",
        "to": "0x00000000007c8105548f9d0ee081987378a6be93",
        "gas": "0x14496",
        "value": "0x0",
        "data": "0x2f2ff15dc8e63ee95f263967af737f71b1c5d180e676a7f8b91a501b355a526a9a8fe3eb000000000000000000000000d696f9ea3299113324b9065ab19b70758256cf16",
        "nonce": "0x38",
        "accessList": []
      },
      "additionalContracts": [],
      "isFixedGasLimit": false
    },
    {
      "hash": "0x29a4fb98bed12b945df146ec27a0ca6875d9ed7391b2e00d3e078e529a463cef",
      "transactionType": "CALL",
      "contractName": null,
      "contractAddress": "0x00000000007C8105548f9d0eE081987378a6bE93",
      "function": "beginDefaultAdminTransfer(address)",
      "arguments": [
        "0x0000000000417626Ef34D62C4DC189b021603f2F"
      ],
      "transaction": {
        "type": "0x02",
        "from": "0x01bd9abd70d74d8ec70d338bd6099ca29da3f9b4",
        "to": "0x00000000007c8105548f9d0ee081987378a6be93",
        "gas": "0x12cb7",
        "value": "0x0",
        "data": "0x634e93da0000000000000000000000000000000000417626ef34d62c4dc189b021603f2f",
        "nonce": "0x39",
        "accessList": []
      },
      "additionalContracts": [],
      "isFixedGasLimit": false
    },
    {
      "hash": "0x13022cea05ba97719355a03e759512f3b0b6c5c4bb7d8852f49d971277331449",
      "transactionType": "CALL",
      "contractName": null,
      "contractAddress": "0xb676F34356a32A2493DBE47593a2Ab98Be17e689",
      "function": "transferOwnership(address)",
      "arguments": [
        "0x0000000000417626Ef34D62C4DC189b021603f2F"
      ],
      "transaction": {
        "type": "0x02",
        "from": "0x01bd9abd70d74d8ec70d338bd6099ca29da3f9b4",
        "to": "0xb676f34356a32a2493dbe47593a2ab98be17e689",
        "gas": "0x10197",
        "value": "0x0",
        "data": "0xf2fde38b0000000000000000000000000000000000417626ef34d62c4dc189b021603f2f",
        "nonce": "0x3a",
        "accessList": []
      },
      "additionalContracts": [],
      "isFixedGasLimit": false
    }
  ],
  "receipts": [
    {
      "transactionHash": "0x7edc3e945a83be61b383358bc2e0d502dacf9119de3d6cdf1b8bb0ee965e3dd8",
      "transactionIndex": "0x15",
      "blockHash": "0xea011e595e065455fccfd2ce5a479e9f477ea533e4e67907a51a43c60e7062e5",
      "blockNumber": "0x12a6526",
      "from": "0x01bd9aBD70D74D8eC70D338bD6099ca29DA3F9B4",
      "to": "0x00000000007C8105548f9d0eE081987378a6bE93",
      "cumulativeGasUsed": "0x25938d",
      "gasUsed": "0xddb5",
      "contractAddress": null,
      "logs": [
        {
          "address": "0x00000000007C8105548f9d0eE081987378a6bE93",
          "topics": [
            "0x2f8788117e7eff1d82e926ec794901d17c78024a50270940304540a733656f0d",
            "0x5e17fc5225d4a099df75359ce1f405503ca79498a8dc46a7d583235a0ee45c16",
            "0x0000000000000000000000000000000000471a3b87706d651c7c9e645c5c0d16",
            "0x00000000000000000000000001bd9abd70d74d8ec70d338bd6099ca29da3f9b4"
          ],
          "data": "0x",
          "blockHash": "0xea011e595e065455fccfd2ce5a479e9f477ea533e4e67907a51a43c60e7062e5",
          "blockNumber": "0x12a6526",
          "transactionHash": "0x7edc3e945a83be61b383358bc2e0d502dacf9119de3d6cdf1b8bb0ee965e3dd8",
          "transactionIndex": "0x15",
          "logIndex": "0x47",
          "removed": false
        }
      ],
      "status": "0x1",
      "logsBloom": "0x00000004000000000000000000000000000000000000000000000082000000000000000000000000001200000000000000000000000000000000000000000000000000000001000000000000000000000000000000000000000000000000000000000000000000000000000000000000000000000040000000000000000100000000000000000000000000400000000000000000000000000000000000000000000000000000000000000400000000000000000000000000001000000000002000000000000000000000000000000000000000000000000100002000000000000000000000000800000000000000000000000000000000000000000000000000",
      "type": "0x2",
      "effectiveGasPrice": "0x68f7e3bf1"
    },
    {
      "transactionHash": "0x570567d53136d0fcc9783073f97a7914d95d10e44de4d154f482e644ba59d5e6",
      "transactionIndex": "0x14",
      "blockHash": "0x245ffd829aa20d46da0c797194640e4e579b6c2b97698cc1de21508093ffaf00",
      "blockNumber": "0x12a6527",
      "from": "0x01bd9aBD70D74D8eC70D338bD6099ca29DA3F9B4",
      "to": "0x00000000007C8105548f9d0eE081987378a6bE93",
      "cumulativeGasUsed": "0x47cd04",
      "gasUsed": "0xddf1",
      "contractAddress": null,
      "logs": [
        {
          "address": "0x00000000007C8105548f9d0eE081987378a6bE93",
          "topics": [
            "0x2f8788117e7eff1d82e926ec794901d17c78024a50270940304540a733656f0d",
            "0xc8e63ee95f263967af737f71b1c5d180e676a7f8b91a501b355a526a9a8fe3eb",
            "0x000000000000000000000000d696f9ea3299113324b9065ab19b70758256cf16",
            "0x00000000000000000000000001bd9abd70d74d8ec70d338bd6099ca29da3f9b4"
          ],
          "data": "0x",
          "blockHash": "0x245ffd829aa20d46da0c797194640e4e579b6c2b97698cc1de21508093ffaf00",
          "blockNumber": "0x12a6527",
          "transactionHash": "0x570567d53136d0fcc9783073f97a7914d95d10e44de4d154f482e644ba59d5e6",
          "transactionIndex": "0x14",
          "logIndex": "0x85",
          "removed": false
        }
      ],
      "status": "0x1",
      "logsBloom": "0x00000004000000000000000000000000000000000000000000000002000000000000000000000000000000000000000000000000000000008000000000000000000000000001000000000000000000000000000000000000000000000000000000000000000000000000000000000000000000000000000000000020000000000000000000000000000000000000000000000000000000000000000000000000000000000000001000000400000000000000000000000000001000000000002000000000000000000000000000000000000002000080000100002000000000000000000000000800000000800000000000000000000000000000000000000000",
      "type": "0x2",
      "effectiveGasPrice": "0x64b8cc66f"
    },
    {
      "transactionHash": "0x29a4fb98bed12b945df146ec27a0ca6875d9ed7391b2e00d3e078e529a463cef",
      "transactionIndex": "0x18",
      "blockHash": "0xcb880fb31930400df7436adc0628727b96b63a47a5be5fb6771bc2a6e585d733",
      "blockNumber": "0x12a6528",
      "from": "0x01bd9aBD70D74D8eC70D338bD6099ca29DA3F9B4",
      "to": "0x00000000007C8105548f9d0eE081987378a6bE93",
      "cumulativeGasUsed": "0x4d967d",
      "gasUsed": "0xd9b7",
      "contractAddress": null,
      "logs": [
        {
          "address": "0x00000000007C8105548f9d0eE081987378a6bE93",
          "topics": [
            "0x3377dc44241e779dd06afab5b788a35ca5f3b778836e2990bdb26a2a4b2e5ed6",
            "0x0000000000000000000000000000000000417626ef34d62c4dc189b021603f2f"
          ],
          "data": "0x000000000000000000000000000000000000000000000000000000006609aa33",
          "blockHash": "0xcb880fb31930400df7436adc0628727b96b63a47a5be5fb6771bc2a6e585d733",
          "blockNumber": "0x12a6528",
          "transactionHash": "0x29a4fb98bed12b945df146ec27a0ca6875d9ed7391b2e00d3e078e529a463cef",
          "transactionIndex": "0x18",
          "logIndex": "0x86",
          "removed": false
        }
      ],
      "status": "0x1",
      "logsBloom": "0x00000000000000000000020000000000000000000000000000000000000000000000000000000000002000000000000000000000000000000000000000000000000000000001000000000000000000000010000000000000000000000000000000000000000000000000000000000000000040000000000000000000000000000000000000000000000000000000000000000000000000000000000000000000000000000080000000000400000000000000000000000000000000000000002000000000000000000000040000000000000000000000000000000000000000000000000000000000000000000000000000000000000000000000000000000000",
      "type": "0x2",
      "effectiveGasPrice": "0x685ef5881"
    },
    {
      "transactionHash": "0x13022cea05ba97719355a03e759512f3b0b6c5c4bb7d8852f49d971277331449",
      "transactionIndex": "0x11",
      "blockHash": "0x4631797d03426c9cee9dacd72322f30e6cab36b63dc660d4e3eb8c575b3e2965",
      "blockNumber": "0x12a6529",
      "from": "0x01bd9aBD70D74D8eC70D338bD6099ca29DA3F9B4",
      "to": "0xb676F34356a32A2493DBE47593a2Ab98Be17e689",
      "cumulativeGasUsed": "0x1a2960",
      "gasUsed": "0xba7f",
      "contractAddress": null,
      "logs": [
        {
          "address": "0xb676F34356a32A2493DBE47593a2Ab98Be17e689",
          "topics": [
            "0x38d16b8cac22d99fc7c124b9cd0de2d3fa1faef420bfe791d8c362d765e22700",
            "0x00000000000000000000000001bd9abd70d74d8ec70d338bd6099ca29da3f9b4",
            "0x0000000000000000000000000000000000417626ef34d62c4dc189b021603f2f"
          ],
          "data": "0x",
          "blockHash": "0x4631797d03426c9cee9dacd72322f30e6cab36b63dc660d4e3eb8c575b3e2965",
          "blockNumber": "0x12a6529",
          "transactionHash": "0x13022cea05ba97719355a03e759512f3b0b6c5c4bb7d8852f49d971277331449",
          "transactionIndex": "0x11",
          "logIndex": "0x38",
          "removed": false
        }
      ],
      "status": "0x1",
      "logsBloom": "0x00000000000000000000020000000000000000000000000000000802000000000000000000000000000000000000000000000000000000000000000000000000000000000000000000000000000000000010000000000000000000000000000000000000000000000000000000000000020840000000000000000000040000000000000000000000000000000000000000000000000000000000000000000000000000000000020000000000000000000000000000000000000000000000000000002000000000000000000000000000000000000000000000002000000000000000000000000800000000000000000000000000000000000000000000000000",
      "type": "0x2",
      "effectiveGasPrice": "0x6857d16a7"
    }
  ],
  "libraries": [],
  "pending": [],
  "returns": {},
  "timestamp": 1711909441,
  "chain": 1,
  "commit": "47346f8"
}