{
  "transactions": [
    {
      "hash": "0x9e0e368466f68d67c37cc850e070837ab67f3fa45b6a73c52c6bd8556cf31296",
      "transactionType": "CALL",
      "contractName": null,
      "contractAddress": "0x00000000008a3a77bd91bc738ed2efaa262c3763",
      "function": "grantRole(bytes32,address)",
      "arguments": [
        "0x5e17fc5225d4a099df75359ce1f405503ca79498a8dc46a7d583235a0ee45c16",
        "0x0000000000d8858E1A9B373582A691dB992C23CA"
      ],
      "transaction": {
        "from": "0x94544835cf97c631f101c5f538787fe14e2e04f6",
        "to": "0x00000000008a3a77bd91bc738ed2efaa262c3763",
        "gas": "0x13252",
        "value": "0x0",
        "input": "0x2f2ff15d5e17fc5225d4a099df75359ce1f405503ca79498a8dc46a7d583235a0ee45c160000000000000000000000000000000000d8858e1a9b373582a691db992c23ca",
        "nonce": "0xf",
        "chainId": "0x1"
      },
      "additionalContracts": [],
      "isFixedGasLimit": false
    },
    {
      "hash": "0x4efc0e4c330f98c2a72762bd9b0f8d80fb295e97a8729dd7f660fec9a906cdc1",
      "transactionType": "CALL",
      "contractName": null,
      "contractAddress": "0x00000000008a3a77bd91bc738ed2efaa262c3763",
      "function": "grantRole(bytes32,address)",
      "arguments": [
        "0xc8e63ee95f263967af737f71b1c5d180e676a7f8b91a501b355a526a9a8fe3eb",
        "0xe3692b2E55Eb2494cA73610c3b027F53815CCD39"
      ],
      "transaction": {
        "from": "0x94544835cf97c631f101c5f538787fe14e2e04f6",
        "to": "0x00000000008a3a77bd91bc738ed2efaa262c3763",
        "gas": "0x144af",
        "value": "0x0",
        "input": "0x2f2ff15dc8e63ee95f263967af737f71b1c5d180e676a7f8b91a501b355a526a9a8fe3eb000000000000000000000000e3692b2e55eb2494ca73610c3b027f53815ccd39",
        "nonce": "0x10",
        "chainId": "0x1"
      },
      "additionalContracts": [],
      "isFixedGasLimit": false
    },
    {
      "hash": "0xbb37d621c66d62c399384c6e34988e328ecd6637ce620b0fa51f751b32d2e685",
      "transactionType": "CALL",
      "contractName": null,
      "contractAddress": "0x00000000008a3a77bd91bc738ed2efaa262c3763",
      "function": "beginDefaultAdminTransfer(address)",
      "arguments": [
        "0x0000000000417626Ef34D62C4DC189b021603f2F"
      ],
      "transaction": {
        "from": "0x94544835cf97c631f101c5f538787fe14e2e04f6",
        "to": "0x00000000008a3a77bd91bc738ed2efaa262c3763",
        "gas": "0x13e83",
        "value": "0x0",
        "input": "0x634e93da0000000000000000000000000000000000417626ef34d62c4dc189b021603f2f",
        "nonce": "0x11",
        "chainId": "0x1"
      },
      "additionalContracts": [],
      "isFixedGasLimit": false
    },
    {
      "hash": "0x4f9f1d4f538f54a9f5afda98a7b58859670a70b716ca51151199f544e34ef753",
      "transactionType": "CALL",
      "contractName": null,
      "contractAddress": "0x91192b4d46d77d013bdee650ad38452ed1da0175",
      "function": "transferOwnership(address)",
      "arguments": [
        "0x0000000000417626Ef34D62C4DC189b021603f2F"
      ],
      "transaction": {
        "from": "0x94544835cf97c631f101c5f538787fe14e2e04f6",
        "to": "0x91192b4d46d77d013bdee650ad38452ed1da0175",
        "gas": "0x10197",
        "value": "0x0",
        "input": "0xf2fde38b0000000000000000000000000000000000417626ef34d62c4dc189b021603f2f",
        "nonce": "0x12",
        "chainId": "0x1"
      },
      "additionalContracts": [],
      "isFixedGasLimit": false
    }
  ],
  "receipts": [
    {
      "status": "0x1",
      "cumulativeGasUsed": "0xb32310",
      "logs": [
        {
          "address": "0x00000000008a3a77bd91bc738ed2efaa262c3763",
          "topics": [
            "0x2f8788117e7eff1d82e926ec794901d17c78024a50270940304540a733656f0d",
            "0x5e17fc5225d4a099df75359ce1f405503ca79498a8dc46a7d583235a0ee45c16",
            "0x0000000000000000000000000000000000d8858e1a9b373582a691db992c23ca",
            "0x00000000000000000000000094544835cf97c631f101c5f538787fe14e2e04f6"
          ],
          "data": "0x",
          "blockHash": "0x699a13f5ff418e8a506e7d00e45382d5be962685bc6e8f745bf082f9db34b05c",
          "blockNumber": "0x1317c7d",
          "transactionHash": "0x9e0e368466f68d67c37cc850e070837ab67f3fa45b6a73c52c6bd8556cf31296",
          "transactionIndex": "0x88",
          "logIndex": "0x12f",
          "removed": false
        }
      ],
      "logsBloom": "0x00000004000000000000000000000200000000000000000001000080000000000040000000000000001000000000000000000000000000000000000000000000000000000000000000000000000000000000000000000000000000000000000000000000010000000000000000000000000000000000000000000000000000400000000000000000000000400000000000000000000000000000000000000000000000000000000000000000000000000000000000000000001000000000000000000000000000000000000000000004010000000000020100000010000000000000000000000000000000000000000000000000000000000000000000000000",
      "type": "0x2",
      "transactionHash": "0x9e0e368466f68d67c37cc850e070837ab67f3fa45b6a73c52c6bd8556cf31296",
      "transactionIndex": "0x88",
      "blockHash": "0x699a13f5ff418e8a506e7d00e45382d5be962685bc6e8f745bf082f9db34b05c",
      "blockNumber": "0x1317c7d",
      "gasUsed": "0xddc6",
      "effectiveGasPrice": "0x370f6fa11",
      "from": "0x94544835cf97c631f101c5f538787fe14e2e04f6",
      "to": "0x00000000008a3a77bd91bc738ed2efaa262c3763",
      "contractAddress": null
    },
    {
      "status": "0x1",
      "cumulativeGasUsed": "0xa6b287",
      "logs": [
        {
          "address": "0x00000000008a3a77bd91bc738ed2efaa262c3763",
          "topics": [
            "0x2f8788117e7eff1d82e926ec794901d17c78024a50270940304540a733656f0d",
            "0xc8e63ee95f263967af737f71b1c5d180e676a7f8b91a501b355a526a9a8fe3eb",
            "0x000000000000000000000000e3692b2e55eb2494ca73610c3b027f53815ccd39",
            "0x00000000000000000000000094544835cf97c631f101c5f538787fe14e2e04f6"
          ],
          "data": "0x",
          "blockHash": "0x6b65a67ec5e89afdaf170986582b781a7102f2e8f1339baaff0df0bfbbdb6e6c",
          "blockNumber": "0x1317c7e",
          "transactionHash": "0x4efc0e4c330f98c2a72762bd9b0f8d80fb295e97a8729dd7f660fec9a906cdc1",
          "transactionIndex": "0x94",
          "logIndex": "0x133",
          "removed": false
        }
      ],
      "logsBloom": "0x00000004000000000000000000000200000000000000000001000000000000000040000000000000000000000000000000000000000000000004000000000000000000000000000000000000000000000000000000000000000000000000000000000000010000000000000000000800000000000000000000000020000000000000000000000000000000000000000000000000000000000000000000000000000000000000001000000000000000000000000000000000001000000000000000000000000000000000000000000004000000000080020100000000000800000000000000000000000000000000000000000000000000000000000000000000",
      "type": "0x2",
      "transactionHash": "0x4efc0e4c330f98c2a72762bd9b0f8d80fb295e97a8729dd7f660fec9a906cdc1",
      "transactionIndex": "0x94",
      "blockHash": "0x6b65a67ec5e89afdaf170986582b781a7102f2e8f1339baaff0df0bfbbdb6e6c",
      "blockNumber": "0x1317c7e",
      "gasUsed": "0xde02",
      "effectiveGasPrice": "0x36a3807f2",
      "from": "0x94544835cf97c631f101c5f538787fe14e2e04f6",
      "to": "0x00000000008a3a77bd91bc738ed2efaa262c3763",
      "contractAddress": null
    },
    {
      "status": "0x1",
      "cumulativeGasUsed": "0x10e7e9e",
      "logs": [
        {
          "address": "0x00000000008a3a77bd91bc738ed2efaa262c3763",
          "topics": [
            "0x3377dc44241e779dd06afab5b788a35ca5f3b778836e2990bdb26a2a4b2e5ed6",
            "0x0000000000000000000000000000000000417626ef34d62c4dc189b021603f2f"
          ],
          "data": "0x00000000000000000000000000000000000000000000000000000000665f6183",
          "blockHash": "0x6043451fc014aa11d67a5017e2921b0e3eac3ab94ee358c56dc450de29b8b047",
          "blockNumber": "0x1317c7f",
          "transactionHash": "0xbb37d621c66d62c399384c6e34988e328ecd6637ce620b0fa51f751b32d2e685",
          "transactionIndex": "0x83",
          "logIndex": "0x19c",
          "removed": false
        }
      ],
      "logsBloom": "0x00000000000000000000020000000200000000000000000000000000000000000000000000000000002000000000000000000000000000000000000000000000000000000000000000000000000000000010000000000000000000000000000000000000010000000000000000000000000040000000000000000000000000000000000000000000000000000000000000000000000000000000000000000000000000000080000000000000000000000000000000000000000000000000000000000000000000000000040000000004000000000000000000000000000000000000000000000000000000000000000000000000000000000000000000000000",
      "type": "0x2",
      "transactionHash": "0xbb37d621c66d62c399384c6e34988e328ecd6637ce620b0fa51f751b32d2e685",
      "transactionIndex": "0x83",
      "blockHash": "0x6043451fc014aa11d67a5017e2921b0e3eac3ab94ee358c56dc450de29b8b047",
      "blockNumber": "0x1317c7f",
      "gasUsed": "0xd9ca",
      "effectiveGasPrice": "0x3887a3335",
      "from": "0x94544835cf97c631f101c5f538787fe14e2e04f6",
      "to": "0x00000000008a3a77bd91bc738ed2efaa262c3763",
      "contractAddress": null
    },
    {
      "status": "0x1",
      "cumulativeGasUsed": "0x6b147a",
      "logs": [
        {
          "address": "0x91192b4d46d77d013bdee650ad38452ed1da0175",
          "topics": [
            "0x38d16b8cac22d99fc7c124b9cd0de2d3fa1faef420bfe791d8c362d765e22700",
            "0x00000000000000000000000094544835cf97c631f101c5f538787fe14e2e04f6",
            "0x0000000000000000000000000000000000417626ef34d62c4dc189b021603f2f"
          ],
          "data": "0x",
          "blockHash": "0xae13029c6ff8d355db64852275a5501353666f6e7dca4d03c2843e700ca5cedc",
          "blockNumber": "0x1317c80",
          "transactionHash": "0x4f9f1d4f538f54a9f5afda98a7b58859670a70b716ca51151199f544e34ef753",
          "transactionIndex": "0x62",
          "logIndex": "0xb3",
          "removed": false
        }
      ],
      "logsBloom": "0x00000000000000000000020000000000000000000000000001000000000000000040000000000200000000000000000000000000000000000000000000000000000000000000000000000000000000000010000000000000000000000000000000000000000000000000000000000000000840000000000020000000000000000000000000000000000000000000000000000000000000000000000000000000000000000000020000000000000000000000000000000000000000000000000000002000000000000000000000100000000000000000020000000000000000000000000000000000000000000000000000000000000000000000000000000000",
      "type": "0x2",
      "transactionHash": "0x4f9f1d4f538f54a9f5afda98a7b58859670a70b716ca51151199f544e34ef753",
      "transactionIndex": "0x62",
      "blockHash": "0xae13029c6ff8d355db64852275a5501353666f6e7dca4d03c2843e700ca5cedc",
      "blockNumber": "0x1317c80",
      "gasUsed": "0xba7f",
      "effectiveGasPrice": "0x3a9f33b3c",
      "from": "0x94544835cf97c631f101c5f538787fe14e2e04f6",
      "to": "0x91192b4d46d77d013bdee650ad38452ed1da0175",
      "contractAddress": null
    }
  ],
  "libraries": [],
  "pending": [],
  "returns": {},
  "timestamp": 1717526933,
  "chain": 1,
  "commit": "932bc9a"
}