{
  "transactions": [
    {
      "hash": "0xdf45cba4ae8e4ae248b94e24358475ebe42cd41c791fa0ad2c6dab8eed38134c",
      "transactionType": "CALL",
      "contractName": "UniswapV3Pool",
      "contractAddress": "0x30eA22C879628514f1494d4BBFEF79D21A6B49A2",
      "function": "increaseObservationCardinalityNext(uint16)",
      "arguments": [
        "100"
      ],
      "transaction": {
        "type": "0x02",
        "from": "0x1351257000a92de941aeaebb758e44dd7c8b809f",
        "to": "0x30ea22c879628514f1494d4bbfef79d21a6b49a2",
        "gas": "0x8d3a",
        "value": "0x0",
        "data": "0x32148f670000000000000000000000000000000000000000000000000000000000000064",
        "nonce": "0x60",
        "accessList": []
      },
      "additionalContracts": [],
      "isFixedGasLimit": false
    },
    {
      "hash": "0x39aab89dfa5ba3ced02992a9adafbd2804276483e7f5af09d7490847df4f0d9a",
      "transactionType": "CALL",
      "contractName": null,
      "contractAddress": "0xE8C1A6F98aD9a8b356283f1D9740e25D812CE566",
      "function": null,
      "arguments": null,
      "transaction": {
        "type": "0x02",
        "from": "0x1351257000a92de941aeaebb758e44dd7c8b809f",
        "to": "0xe8c1a6f98ad9a8b356283f1d9740e25d812ce566",
        "gas": "0xae53",
        "value": "0x0",
        "data": "0xe5a97f0700000000000000000000000000000000000000000000003635c9adc5dea00000",
        "nonce": "0x61",
        "accessList": []
      },
      "additionalContracts": [],
      "isFixedGasLimit": false
    },
    {
      "hash": "0xb0e573de8f8e4fba074c3e89f720f29025ac891ac3796a2daec482a57a5f4dcd",
      "transactionType": "CALL",
      "contractName": "WETH9",
      "contractAddress": "0xC02aaA39b223FE8D0A0e5C4F27eAD9083C756Cc2",
      "function": "deposit()",
      "arguments": [],
      "transaction": {
        "type": "0x02",
        "from": "0x1351257000a92de941aeaebb758e44dd7c8b809f",
        "to": "0xc02aaa39b223fe8d0a0e5c4f27ead9083c756cc2",
        "gas": "0x9f9b",
        "value": "0x1b1ae4d6e2ef500000",
        "data": "0xd0e30db0",
        "nonce": "0x62",
        "accessList": []
      },
      "additionalContracts": [],
      "isFixedGasLimit": false
    },
    {
      "hash": "0xebde282879a7bb9629daf39b3fa8f948ee41013527b83b89e9a37d48dd3727da",
      "transactionType": "CALL",
      "contractName": "WETH9",
      "contractAddress": "0xC02aaA39b223FE8D0A0e5C4F27eAD9083C756Cc2",
      "function": "approve(address,uint256):(bool)",
      "arguments": [
        "0xE8C1A6F98aD9a8b356283f1D9740e25D812CE566",
        "115792089237316195423570985008687907853269984665640564039457584007913129639935"
      ],
      "transaction": {
        "type": "0x02",
        "from": "0x1351257000a92de941aeaebb758e44dd7c8b809f",
        "to": "0xc02aaa39b223fe8d0a0e5c4f27ead9083c756cc2",
        "gas": "0x8ec9",
        "value": "0x0",
        "data": "0x095ea7b3000000000000000000000000e8c1a6f98ad9a8b356283f1d9740e25d812ce566ffffffffffffffffffffffffffffffffffffffffffffffffffffffffffffffff",
        "nonce": "0x63",
        "accessList": []
      },
      "additionalContracts": [],
      "isFixedGasLimit": false
    },
    {
      "hash": "0x594cebfeb32c6125bc903f47c8f55432142943766004f7975496af9ee0209450",
      "transactionType": "CALL",
      "contractName": null,
      "contractAddress": "0xE8C1A6F98aD9a8b356283f1D9740e25D812CE566",
      "function": null,
      "arguments": null,
      "transaction": {
        "type": "0x02",
        "from": "0x1351257000a92de941aeaebb758e44dd7c8b809f",
        "to": "0xe8c1a6f98ad9a8b356283f1d9740e25d812ce566",
        "gas": "0x38d5c",
        "value": "0x0",
        "data": "0x7ca5643d0000000000000000000000005b73c5498c1e3b4dba84de0f1833c4a029d9051900000000000000000000000000000000000000000000001b1ae4d6e2ef50000000000000000000000000000000000000000000000000000000000000000000600000000000000000000000000000000000000000000000000000000000000000",
        "nonce": "0x64",
        "accessList": []
      },
      "additionalContracts": [],
      "isFixedGasLimit": false
    },
    {
      "hash": "0x080c3a18cbb32010990fc1bef59f3164c4fe63c41a4c563c80813e78de40adbe",
      "transactionType": "CALL",
      "contractName": null,
      "contractAddress": null,
      "function": null,
      "arguments": null,
      "transaction": {
        "type": "0x02",
        "from": "0x1351257000a92de941aeaebb758e44dd7c8b809f",
        "to": "0x7f39c581f595b53c5cb19bd0b3f8da6c935e2ca0",
        "gas": "0x25356",
        "value": "0x56bc75e2d63100000",
        "data": "0x",
        "nonce": "0x65",
        "accessList": []
      },
      "additionalContracts": [],
      "isFixedGasLimit": false
    },
    {
      "hash": "0x502ad98fb06ddce98819c950eddad09477f3bc191f439a243b84d2784fdcbbd1",
      "transactionType": "CALL",
      "contractName": "TransparentUpgradeableProxy",
      "contractAddress": "0xcf5EA1b38380f6aF39068375516Daf40Ed70D299",
      "function": "deposit(address):(uint256)",
      "arguments": [
        "0x1351257000A92De941aEAebB758e44DD7c8B809f"
      ],
      "transaction": {
        "type": "0x02",
        "from": "0x1351257000a92de941aeaebb758e44dd7c8b809f",
        "to": "0xcf5ea1b38380f6af39068375516daf40ed70d299",
        "gas": "0x293f7",
        "value": "0x56bc75e2d63100000",
        "data": "0xf340fa010000000000000000000000001351257000a92de941aeaebb758e44dd7c8b809f",
        "nonce": "0x66",
        "accessList": []
      },
      "additionalContracts": [],
      "isFixedGasLimit": false
    },
    {
      "hash": "0x2922c4eb15114a0c4a0ac6064bf26dd303e3456457ef6bd17155adf4ac4f3e73",
      "transactionType": "CALL",
      "contractName": "TransparentUpgradeableProxy",
      "contractAddress": "0xf951E335afb289353dc249e82926178EaC7DEd78",
      "function": "deposit()",
      "arguments": [],
      "transaction": {
        "type": "0x02",
        "from": "0x1351257000a92de941aeaebb758e44dd7c8b809f",
        "to": "0xf951e335afb289353dc249e82926178eac7ded78",
        "gas": "0x1e67e",
        "value": "0x56bc75e2d63100000",
        "data": "0xd0e30db0",
        "nonce": "0x67",
        "accessList": []
      },
      "additionalContracts": [],
      "isFixedGasLimit": false
    },
    {
      "hash": "0x643bab6bbf905be515d90ebd75c965d527b2862ba2c293a7c0e4026dafda6e32",
      "transactionType": "CALL",
      "contractName": "WstETH",
      "contractAddress": "0x7f39C581F595B53c5cb19bD0b3f8dA6c935E2Ca0",
      "function": "approve(address,uint256):(bool)",
      "arguments": [
        "0x7aB10847e0F2225cDfD1334450bE33B4f5F08c3F",
        "115792089237316195423570985008687907853269984665640564039457584007913129639935"
      ],
      "transaction": {
        "type": "0x02",
        "from": "0x1351257000a92de941aeaebb758e44dd7c8b809f",
        "to": "0x7f39c581f595b53c5cb19bd0b3f8da6c935e2ca0",
        "gas": "0x8fab",
        "value": "0x0",
        "data": "0x095ea7b30000000000000000000000007ab10847e0f2225cdfd1334450be33b4f5f08c3fffffffffffffffffffffffffffffffffffffffffffffffffffffffffffffffff",
        "nonce": "0x68",
        "accessList": []
      },
      "additionalContracts": [],
      "isFixedGasLimit": false
    },
    {
      "hash": "0xcb42d1c9c7fcf992b97cb07a43d23479e4a485562733c4d6e876e29174b11abb",
      "transactionType": "CALL",
      "contractName": "TransparentUpgradeableProxy",
      "contractAddress": "0xA35b1B31Ce002FBF2058D22F30f95D405200A15b",
      "function": "approve(address,uint256):(bool)",
      "arguments": [
        "0x7188A614a2d1AC434c5E1E6288cB65C554FA4600",
        "115792089237316195423570985008687907853269984665640564039457584007913129639935"
      ],
      "transaction": {
        "type": "0x02",
        "from": "0x1351257000a92de941aeaebb758e44dd7c8b809f",
        "to": "0xa35b1b31ce002fbf2058d22f30f95d405200a15b",
        "gas": "0xb6c6",
        "value": "0x0",
        "data": "0x095ea7b30000000000000000000000007188a614a2d1ac434c5e1e6288cb65c554fa4600ffffffffffffffffffffffffffffffffffffffffffffffffffffffffffffffff",
        "nonce": "0x69",
        "accessList": []
      },
      "additionalContracts": [],
      "isFixedGasLimit": false
    },
    {
      "hash": "0x1b517ddf1374fd1a778257aeb684a8473a053fea654362ca2469c95665f1ce62",
      "transactionType": "CALL",
      "contractName": "TransparentUpgradeableProxy",
      "contractAddress": "0xf951E335afb289353dc249e82926178EaC7DEd78",
      "function": "approve(address,uint256):(bool)",
      "arguments": [
        "0xE95462273d31D457Bdb2C182869aCdE5c7aE49d2",
        "115792089237316195423570985008687907853269984665640564039457584007913129639935"
      ],
      "transaction": {
        "type": "0x02",
        "from": "0x1351257000a92de941aeaebb758e44dd7c8b809f",
        "to": "0xf951e335afb289353dc249e82926178eac7ded78",
        "gas": "0xc29e",
        "value": "0x0",
        "data": "0x095ea7b3000000000000000000000000e95462273d31d457bdb2c182869acde5c7ae49d2ffffffffffffffffffffffffffffffffffffffffffffffffffffffffffffffff",
        "nonce": "0x6a",
        "accessList": []
      },
      "additionalContracts": [],
      "isFixedGasLimit": false
    },
    {
      "hash": "0xea32061f96b6cf4331cf7d6889b1a66229877cc6bd725a1b87044e96076add15",
      "transactionType": "CALL",
      "contractName": null,
      "contractAddress": "0xE8C1A6F98aD9a8b356283f1D9740e25D812CE566",
      "function": null,
      "arguments": null,
      "transaction": {
        "type": "0x02",
        "from": "0x1351257000a92de941aeaebb758e44dd7c8b809f",
        "to": "0xe8c1a6f98ad9a8b356283f1d9740e25d812ce566",
        "gas": "0xaf60",
        "value": "0x0",
        "data": "0x9870d7fe0000000000000000000000007ab10847e0f2225cdfd1334450be33b4f5f08c3f",
        "nonce": "0x6b",
        "accessList": []
      },
      "additionalContracts": [],
      "isFixedGasLimit": false
    },
    {
      "hash": "0xd2d355140bcb2c8527bf817af375ca73dfa05ad3a871cd708a1a3fc97237e6c6",
      "transactionType": "CALL",
      "contractName": null,
      "contractAddress": "0xE8C1A6F98aD9a8b356283f1D9740e25D812CE566",
      "function": null,
      "arguments": null,
      "transaction": {
        "type": "0x02",
        "from": "0x1351257000a92de941aeaebb758e44dd7c8b809f",
        "to": "0xe8c1a6f98ad9a8b356283f1d9740e25d812ce566",
        "gas": "0xa591",
        "value": "0x0",
        "data": "0x9870d7fe0000000000000000000000007188a614a2d1ac434c5e1e6288cb65c554fa4600",
        "nonce": "0x6c",
        "accessList": []
      },
      "additionalContracts": [],
      "isFixedGasLimit": false
    },
    {
      "hash": "0xf30a93aa1383af9513b7f3bf495b9a9f401fd40d9a116e0b21077c877c1cf9b4",
      "transactionType": "CALL",
      "contractName": null,
      "contractAddress": "0xE8C1A6F98aD9a8b356283f1D9740e25D812CE566",
      "function": null,
      "arguments": null,
      "transaction": {
        "type": "0x02",
        "from": "0x1351257000a92de941aeaebb758e44dd7c8b809f",
        "to": "0xe8c1a6f98ad9a8b356283f1d9740e25d812ce566",
        "gas": "0xaf60",
        "value": "0x0",
        "data": "0x9870d7fe000000000000000000000000e95462273d31d457bdb2c182869acde5c7ae49d2",
        "nonce": "0x6d",
        "accessList": []
      },
      "additionalContracts": [],
      "isFixedGasLimit": false
    },
    {
      "hash": "0x7000bc0023da209b283283309ae5cb6df2b8201dab8427cc95c5860f41364d23",
      "transactionType": "CALL",
      "contractName": null,
      "contractAddress": "0x7aB10847e0F2225cDfD1334450bE33B4f5F08c3F",
      "function": null,
      "arguments": null,
      "transaction": {
        "type": "0x02",
        "from": "0x1351257000a92de941aeaebb758e44dd7c8b809f",
        "to": "0x7ab10847e0f2225cdfd1334450be33b4f5f08c3f",
        "gas": "0xafd97",
        "value": "0x0",
        "data": "0xf978b2a50000000000000000000000000000000000000000000000000de0b6b3a764000000000000000000000000000000000000000000000000000029a2241af62c00000000000000000000000000000000000000000000000000001fe36ec8bd166e94",
        "nonce": "0x6e",
        "accessList": []
      },
      "additionalContracts": [],
      "isFixedGasLimit": false
    },
    {
      "hash": "0x8f3a92b9e63e38806bbabdb4574b2874fc5c6c70876b1355efa52972f6f193c3",
      "transactionType": "CALL",
      "contractName": null,
      "contractAddress": "0x7aB10847e0F2225cDfD1334450bE33B4f5F08c3F",
      "function": null,
      "arguments": null,
      "transaction": {
        "type": "0x02",
        "from": "0x1351257000a92de941aeaebb758e44dd7c8b809f",
        "to": "0x7ab10847e0f2225cdfd1334450be33b4f5f08c3f",
        "gas": "0x91a49",
        "value": "0x0",
        "data": "0x1c8f66230000000000000000000000000000000000000000000000000de0b6b3a764000000000000000000000000000000000000000000000000000029a2241af62c00000000000000000000000000000000000000000000000000001fe36ec8bd166e94",
        "nonce": "0x6f",
        "accessList": []
      },
      "additionalContracts": [],
      "isFixedGasLimit": false
    },
    {
      "hash": "0xe808e2417de1ebfe4c197974c6b0173145385b66fee384f86ba094f1ff905bd9",
      "transactionType": "CALL",
      "contractName": null,
      "contractAddress": "0x7aB10847e0F2225cDfD1334450bE33B4f5F08c3F",
      "function": null,
      "arguments": null,
      "transaction": {
        "type": "0x02",
        "from": "0x1351257000a92de941aeaebb758e44dd7c8b809f",
        "to": "0x7ab10847e0f2225cdfd1334450be33b4f5f08c3f",
        "gas": "0x6ed90",
        "value": "0x0",
        "data": "0xd151581f0000000000000000000000000000000000000000000000000de0b6b3a764000000000000000000000000000000000000000000000000000029a2241af62c0000ffffffffffffffffffffffffffffffffffffffffffffffffffffffffffffffff0000000000000000000000000000000000000000000000000000000000000000",
        "nonce": "0x70",
        "accessList": []
      },
      "additionalContracts": [],
      "isFixedGasLimit": false
    },
    {
      "hash": "0xcbdb785de017abb91138d0a1ea01ee12af24d3beb49bb54d73e54225f17bae43",
      "transactionType": "CALL",
      "contractName": null,
      "contractAddress": "0x7188A614a2d1AC434c5E1E6288cB65C554FA4600",
      "function": null,
      "arguments": null,
      "transaction": {
        "type": "0x02",
        "from": "0x1351257000a92de941aeaebb758e44dd7c8b809f",
        "to": "0x7188a614a2d1ac434c5e1e6288cb65c554fa4600",
        "gas": "0xad9fd",
        "value": "0x0",
        "data": "0xf978b2a50000000000000000000000000000000000000000000000000de0b6b3a764000000000000000000000000000000000000000000000000000029a2241af62c00000000000000000000000000000000000000000000000000001c2d15c49b62459e",
        "nonce": "0x71",
        "accessList": []
      },
      "additionalContracts": [],
      "isFixedGasLimit": false
    },
    {
      "hash": "0x5a488417e70052d17b70c85ce1e7b6e0d78469100f37bab6c0602e3ebc629956",
      "transactionType": "CALL",
      "contractName": null,
      "contractAddress": "0x7188A614a2d1AC434c5E1E6288cB65C554FA4600",
      "function": null,
      "arguments": null,
      "transaction": {
        "type": "0x02",
        "from": "0x1351257000a92de941aeaebb758e44dd7c8b809f",
        "to": "0x7188a614a2d1ac434c5e1e6288cb65c554fa4600",
        "gas": "0x9de34",
        "value": "0x0",
        "data": "0x1c8f66230000000000000000000000000000000000000000000000000de0b6b3a764000000000000000000000000000000000000000000000000000029a2241af62c00000000000000000000000000000000000000000000000000001c2d15c49b62459e",
        "nonce": "0x72",
        "accessList": []
      },
      "additionalContracts": [],
      "isFixedGasLimit": false
    },
    {
      "hash": "0x1f6cc57aca2957c2db2720bea262feb2031a5fd0c0f4c8108a83ac86aeee4338",
      "transactionType": "CALL",
      "contractName": null,
      "contractAddress": "0x7188A614a2d1AC434c5E1E6288cB65C554FA4600",
      "function": null,
      "arguments": null,
      "transaction": {
        "type": "0x02",
        "from": "0x1351257000a92de941aeaebb758e44dd7c8b809f",
        "to": "0x7188a614a2d1ac434c5e1e6288cb65c554fa4600",
        "gas": "0xd4cce",
        "value": "0x0",
        "data": "0x3d2a4f560000000000000000000000000000000000000000000000000de0b6b3a764000000000000000000000000000000000000000000000000000029a2241af62c0000ffffffffffffffffffffffffffffffffffffffffffffffffffffffffffffffff",
        "nonce": "0x73",
        "accessList": []
      },
      "additionalContracts": [],
      "isFixedGasLimit": false
    },
    {
      "hash": "0x6b2f9d1f6dd3d09ecfa4c5ad83d19bad43a44b215b1736f5fddb120f46f1691f",
      "transactionType": "CALL",
      "contractName": null,
      "contractAddress": "0xE95462273d31D457Bdb2C182869aCdE5c7aE49d2",
      "function": null,
      "arguments": null,
      "transaction": {
        "type": "0x02",
        "from": "0x1351257000a92de941aeaebb758e44dd7c8b809f",
        "to": "0xe95462273d31d457bdb2c182869acde5c7ae49d2",
        "gas": "0x8f0c1",
        "value": "0x0",
        "data": "0xf978b2a50000000000000000000000000000000000000000000000000de0b6b3a764000000000000000000000000000000000000000000000000000029a2241af62c00000000000000000000000000000000000000000000000000001cfbbc2dc0ad11ff",
        "nonce": "0x74",
        "accessList": []
      },
      "additionalContracts": [],
      "isFixedGasLimit": false
    },
    {
      "hash": "0xf9d93cdee30a1662e52983364e98966d787f40443d6e8acf617faf600abfa44b",
      "transactionType": "CALL",
      "contractName": null,
      "contractAddress": "0xE95462273d31D457Bdb2C182869aCdE5c7aE49d2",
      "function": null,
      "arguments": null,
      "transaction": {
        "type": "0x02",
        "from": "0x1351257000a92de941aeaebb758e44dd7c8b809f",
        "to": "0xe95462273d31d457bdb2c182869acde5c7ae49d2",
        "gas": "0x82c23",
        "value": "0x0",
        "data": "0x1c8f66230000000000000000000000000000000000000000000000000de0b6b3a764000000000000000000000000000000000000000000000000000029a2241af62c00000000000000000000000000000000000000000000000000001cfbbc2dc0ad11ff",
        "nonce": "0x75",
        "accessList": []
      },
      "additionalContracts": [],
      "isFixedGasLimit": false
    },
    {
      "hash": "0x290a65e4de6e32108f07cfe7e65f5298412e98d83fb687e60d39dc7f62380b8a",
      "transactionType": "CALL",
      "contractName": null,
      "contractAddress": "0xE95462273d31D457Bdb2C182869aCdE5c7aE49d2",
      "function": null,
      "arguments": null,
      "transaction": {
        "type": "0x02",
        "from": "0x1351257000a92de941aeaebb758e44dd7c8b809f",
        "to": "0xe95462273d31d457bdb2c182869acde5c7ae49d2",
        "gas": "0x6e46c",
        "value": "0x0",
        "data": "0xd151581f0000000000000000000000000000000000000000000000000de0b6b3a764000000000000000000000000000000000000000000000000000029a2241af62c0000ffffffffffffffffffffffffffffffffffffffffffffffffffffffffffffffff0000000000000000000000000000000000000000000000000000000000000000",
        "nonce": "0x76",
        "accessList": []
      },
      "additionalContracts": [],
      "isFixedGasLimit": false
    },
    {
      "hash": "0xd0539710c2780bc0a494ba2b3f3ab2e6664c15f3c9e116f8b77d605899d9e8b9",
      "transactionType": "CALL",
      "contractName": null,
      "contractAddress": "0x7aB10847e0F2225cDfD1334450bE33B4f5F08c3F",
      "function": null,
      "arguments": null,
      "transaction": {
        "type": "0x02",
        "from": "0x1351257000a92de941aeaebb758e44dd7c8b809f",
        "to": "0x7ab10847e0f2225cdfd1334450be33b4f5f08c3f",
        "gas": "0x61f0c",
        "value": "0x0",
        "data": "0x89ee90f50000000000000000000000000000000000000000000000000de0b6b3a764000000000000000000000000000000000000000000000000000006f05b59d3b200000000000000000000000000000000000000000000000000000000000000000000",
        "nonce": "0x77",
        "accessList": []
      },
      "additionalContracts": [],
      "isFixedGasLimit": false
    },
    {
      "hash": "0x76004854438ec0e7d5fc178ec162b548486aa612b944a49e0fc42f4c4ce8902a",
      "transactionType": "CALL",
      "contractName": null,
      "contractAddress": "0x7188A614a2d1AC434c5E1E6288cB65C554FA4600",
      "function": null,
      "arguments": null,
      "transaction": {
        "type": "0x02",
        "from": "0x1351257000a92de941aeaebb758e44dd7c8b809f",
        "to": "0x7188a614a2d1ac434c5e1e6288cb65c554fa4600",
        "gas": "0xa1a12",
        "value": "0x0",
        "data": "0x934f73a40000000000000000000000000000000000000000000000000de0b6b3a764000000000000000000000000000000000000000000000000000006f05b59d3b20000",
        "nonce": "0x78",
        "accessList": []
      },
      "additionalContracts": [],
      "isFixedGasLimit": false
    },
    {
      "hash": "0x97620cb61f7ae95a5d20b16f20963b7224c0a7b535b5132ea714754fcc49f95e",
      "transactionType": "CALL",
      "contractName": null,
      "contractAddress": "0xE95462273d31D457Bdb2C182869aCdE5c7aE49d2",
      "function": null,
      "arguments": null,
      "transaction": {
        "type": "0x02",
        "from": "0x1351257000a92de941aeaebb758e44dd7c8b809f",
        "to": "0xe95462273d31d457bdb2c182869acde5c7ae49d2",
        "gas": "0x5e469",
        "value": "0x0",
        "data": "0x89ee90f50000000000000000000000000000000000000000000000000de0b6b3a764000000000000000000000000000000000000000000000000000006f05b59d3b200000000000000000000000000000000000000000000000000000000000000000000",
        "nonce": "0x79",
        "accessList": []
      },
      "additionalContracts": [],
      "isFixedGasLimit": false
    }
  ],
  "receipts": [],
  "libraries": [],
  "pending": [
    "0xdf45cba4ae8e4ae248b94e24358475ebe42cd41c791fa0ad2c6dab8eed38134c",
    "0x39aab89dfa5ba3ced02992a9adafbd2804276483e7f5af09d7490847df4f0d9a",
    "0xb0e573de8f8e4fba074c3e89f720f29025ac891ac3796a2daec482a57a5f4dcd",
    "0xebde282879a7bb9629daf39b3fa8f948ee41013527b83b89e9a37d48dd3727da",
    "0x594cebfeb32c6125bc903f47c8f55432142943766004f7975496af9ee0209450",
    "0x080c3a18cbb32010990fc1bef59f3164c4fe63c41a4c563c80813e78de40adbe",
    "0x502ad98fb06ddce98819c950eddad09477f3bc191f439a243b84d2784fdcbbd1",
    "0x2922c4eb15114a0c4a0ac6064bf26dd303e3456457ef6bd17155adf4ac4f3e73",
    "0x643bab6bbf905be515d90ebd75c965d527b2862ba2c293a7c0e4026dafda6e32",
    "0xcb42d1c9c7fcf992b97cb07a43d23479e4a485562733c4d6e876e29174b11abb",
    "0x1b517ddf1374fd1a778257aeb684a8473a053fea654362ca2469c95665f1ce62",
    "0xea32061f96b6cf4331cf7d6889b1a66229877cc6bd725a1b87044e96076add15",
    "0xd2d355140bcb2c8527bf817af375ca73dfa05ad3a871cd708a1a3fc97237e6c6",
    "0xf30a93aa1383af9513b7f3bf495b9a9f401fd40d9a116e0b21077c877c1cf9b4",
    "0x7000bc0023da209b283283309ae5cb6df2b8201dab8427cc95c5860f41364d23",
    "0x8f3a92b9e63e38806bbabdb4574b2874fc5c6c70876b1355efa52972f6f193c3",
    "0xe808e2417de1ebfe4c197974c6b0173145385b66fee384f86ba094f1ff905bd9",
    "0xcbdb785de017abb91138d0a1ea01ee12af24d3beb49bb54d73e54225f17bae43",
    "0x5a488417e70052d17b70c85ce1e7b6e0d78469100f37bab6c0602e3ebc629956",
    "0x1f6cc57aca2957c2db2720bea262feb2031a5fd0c0f4c8108a83ac86aeee4338",
    "0x6b2f9d1f6dd3d09ecfa4c5ad83d19bad43a44b215b1736f5fddb120f46f1691f",
    "0xf9d93cdee30a1662e52983364e98966d787f40443d6e8acf617faf600abfa44b",
    "0x290a65e4de6e32108f07cfe7e65f5298412e98d83fb687e60d39dc7f62380b8a",
    "0xd0539710c2780bc0a494ba2b3f3ab2e6664c15f3c9e116f8b77d605899d9e8b9",
    "0x76004854438ec0e7d5fc178ec162b548486aa612b944a49e0fc42f4c4ce8902a",
    "0x97620cb61f7ae95a5d20b16f20963b7224c0a7b535b5132ea714754fcc49f95e"
  ],
  "returns": {},
  "timestamp": 1701709102,
  "chain": 1,
  "multi": false,
  "commit": "75a316c"
}