{
  "transactions": [
    {
      "hash": "0x3128b79b667bb1eef60c08b165ab3c2ffd5eea3670a547b69e46453fe5259a1e",
      "transactionType": "CALL",
      "contractName": "UniswapV3Pool",
      "contractAddress": "0x30eA22C879628514f1494d4BBFEF79D21A6B49A2",
      "function": "increaseObservationCardinalityNext(uint16)",
      "arguments": [
        "100"
      ],
      "transaction": {
        "type": "0x02",
        "from": "0x1351257000a92de941aeaebb758e44dd7c8b809f",
        "to": "0x30ea22c879628514f1494d4bbfef79d21a6b49a2",
        "gas": "0x31c668",
        "value": "0x0",
        "data": "0x32148f670000000000000000000000000000000000000000000000000000000000000064",
        "nonce": "0x46",
        "accessList": []
      },
      "additionalContracts": [],
      "isFixedGasLimit": false
    },
    {
      "hash": "0x33edaff854735ee7641fc45731d73926c037c7e7061b00c7a0832f22f72b49a4",
      "transactionType": "CALL",
      "contractName": null,
      "contractAddress": "0xE8C1A6F98aD9a8b356283f1D9740e25D812CE566",
      "function": null,
      "arguments": null,
      "transaction": {
        "type": "0x02",
        "from": "0x1351257000a92de941aeaebb758e44dd7c8b809f",
        "to": "0xe8c1a6f98ad9a8b356283f1d9740e25d812ce566",
        "gas": "0x12a44",
        "value": "0x0",
        "data": "0xe5a97f0700000000000000000000000000000000000000000000003635c9adc5dea00000",
        "nonce": "0x47",
        "accessList": []
      },
      "additionalContracts": [],
      "isFixedGasLimit": false
    },
    {
      "hash": "0xb3897ab15b85c96983ed8615b9ffef9f9b9866fb7935fb4928ff5b5a4c10534d",
      "transactionType": "CALL",
      "contractName": "WETH9",
      "contractAddress": "0xC02aaA39b223FE8D0A0e5C4F27eAD9083C756Cc2",
      "function": "deposit()",
      "arguments": [],
      "transaction": {
        "type": "0x02",
        "from": "0x1351257000a92de941aeaebb758e44dd7c8b809f",
        "to": "0xc02aaa39b223fe8d0a0e5c4f27ead9083c756cc2",
        "gas": "0xf2ff",
        "value": "0x1b1ae4d6e2ef500000",
        "data": "0xd0e30db0",
        "nonce": "0x48",
        "accessList": []
      },
      "additionalContracts": [],
      "isFixedGasLimit": false
    },
    {
      "hash": "0xf76b16d4cd422a06f51c711863b2b79f28ebe60550b4c0eaec6b30a4b966dcaa",
      "transactionType": "CALL",
      "contractName": "WETH9",
      "contractAddress": "0xC02aaA39b223FE8D0A0e5C4F27eAD9083C756Cc2",
      "function": "approve(address,uint256):(bool)",
      "arguments": [
        "0xE8C1A6F98aD9a8b356283f1D9740e25D812CE566",
        "115792089237316195423570985008687907853269984665640564039457584007913129639935"
      ],
      "transaction": {
        "type": "0x02",
        "from": "0x1351257000a92de941aeaebb758e44dd7c8b809f",
        "to": "0xc02aaa39b223fe8d0a0e5c4f27ead9083c756cc2",
        "gas": "0xfa27",
        "value": "0x0",
        "data": "0x095ea7b3000000000000000000000000e8c1a6f98ad9a8b356283f1d9740e25d812ce566ffffffffffffffffffffffffffffffffffffffffffffffffffffffffffffffff",
        "nonce": "0x49",
        "accessList": []
      },
      "additionalContracts": [],
      "isFixedGasLimit": false
    },
    {
      "hash": "0x65b6e84494467709e0ebdfa9729e540ebc75f017db9358cded416042e8ae5c3a",
      "transactionType": "CALL",
      "contractName": null,
      "contractAddress": "0xE8C1A6F98aD9a8b356283f1D9740e25D812CE566",
      "function": null,
      "arguments": null,
      "transaction": {
        "type": "0x02",
        "from": "0x1351257000a92de941aeaebb758e44dd7c8b809f",
        "to": "0xe8c1a6f98ad9a8b356283f1d9740e25d812ce566",
        "gas": "0x37376",
        "value": "0x0",
        "data": "0x7ca5643d0000000000000000000000005b73c5498c1e3b4dba84de0f1833c4a029d9051900000000000000000000000000000000000000000000001b1ae4d6e2ef50000000000000000000000000000000000000000000000000000000000000000000600000000000000000000000000000000000000000000000000000000000000000",
        "nonce": "0x4a",
        "accessList": []
      },
      "additionalContracts": [],
      "isFixedGasLimit": false
    },
    {
      "hash": "0xdfbb9a699a318f40048bb6e3bf9f55aef22fcf98a6f2b3b0eb938c3bb72c5038",
      "transactionType": "CALL",
      "contractName": null,
      "contractAddress": null,
      "function": null,
      "arguments": null,
      "transaction": {
        "type": "0x02",
        "from": "0x1351257000a92de941aeaebb758e44dd7c8b809f",
        "to": "0x7f39c581f595b53c5cb19bd0b3f8da6c935e2ca0",
        "gas": "0x28e86",
        "value": "0x56bc75e2d63100000",
        "data": "0x",
        "nonce": "0x4b",
        "accessList": []
      },
      "additionalContracts": [],
      "isFixedGasLimit": false
    },
    {
      "hash": "0x4d011db083ba77d26b314504810006006b20461ca1fcfb0c2c22c2d10ae256ef",
      "transactionType": "CALL",
      "contractName": "TransparentUpgradeableProxy",
      "contractAddress": "0xcf5EA1b38380f6aF39068375516Daf40Ed70D299",
      "function": "deposit(address):(uint256)",
      "arguments": [
        "0x1351257000A92De941aEAebB758e44DD7c8B809f"
      ],
      "transaction": {
        "type": "0x02",
        "from": "0x1351257000a92de941aeaebb758e44dd7c8b809f",
        "to": "0xcf5ea1b38380f6af39068375516daf40ed70d299",
        "gas": "0x2cb90",
        "value": "0x56bc75e2d63100000",
        "data": "0xf340fa010000000000000000000000001351257000a92de941aeaebb758e44dd7c8b809f",
        "nonce": "0x4c",
        "accessList": []
      },
      "additionalContracts": [],
      "isFixedGasLimit": false
    },
    {
      "hash": "0x36c774908c5edd32a4cdc689b60ac10f6601d8f9d39d554ecd4fefdeeb98196f",
      "transactionType": "CALL",
      "contractName": "TransparentUpgradeableProxy",
      "contractAddress": "0xf951E335afb289353dc249e82926178EaC7DEd78",
      "function": "deposit()",
      "arguments": [],
      "transaction": {
        "type": "0x02",
        "from": "0x1351257000a92de941aeaebb758e44dd7c8b809f",
        "to": "0xf951e335afb289353dc249e82926178eac7ded78",
        "gas": "0x264cd",
        "value": "0x56bc75e2d63100000",
        "data": "0xd0e30db0",
        "nonce": "0x4d",
        "accessList": []
      },
      "additionalContracts": [],
      "isFixedGasLimit": false
    },
    {
      "hash": "0xa545d072b4cad4563f9eaaa219f47644f7bc64b8fd94a8cf50cf2e4520d3b5ca",
      "transactionType": "CALL",
      "contractName": "WstETH",
      "contractAddress": "0x7f39C581F595B53c5cb19bD0b3f8dA6c935E2Ca0",
      "function": "approve(address,uint256):(bool)",
      "arguments": [
        "0x7aB10847e0F2225cDfD1334450bE33B4f5F08c3F",
        "115792089237316195423570985008687907853269984665640564039457584007913129639935"
      ],
      "transaction": {
        "type": "0x02",
        "from": "0x1351257000a92de941aeaebb758e44dd7c8b809f",
        "to": "0x7f39c581f595b53c5cb19bd0b3f8da6c935e2ca0",
        "gas": "0xfb0a",
        "value": "0x0",
        "data": "0x095ea7b30000000000000000000000007ab10847e0f2225cdfd1334450be33b4f5f08c3fffffffffffffffffffffffffffffffffffffffffffffffffffffffffffffffff",
        "nonce": "0x4e",
        "accessList": []
      },
      "additionalContracts": [],
      "isFixedGasLimit": false
    },
    {
      "hash": "0x5a5556fab8d34e4bfee3f782d1c6162a420126e06b6d9cceae89d7b02755532a",
      "transactionType": "CALL",
      "contractName": "TransparentUpgradeableProxy",
      "contractAddress": "0xA35b1B31Ce002FBF2058D22F30f95D405200A15b",
      "function": "approve(address,uint256):(bool)",
      "arguments": [
        "0x7188A614a2d1AC434c5E1E6288cB65C554FA4600",
        "115792089237316195423570985008687907853269984665640564039457584007913129639935"
      ],
      "transaction": {
        "type": "0x02",
        "from": "0x1351257000a92de941aeaebb758e44dd7c8b809f",
        "to": "0xa35b1b31ce002fbf2058d22f30f95d405200a15b",
        "gas": "0x12226",
        "value": "0x0",
        "data": "0x095ea7b30000000000000000000000007188a614a2d1ac434c5e1e6288cb65c554fa4600ffffffffffffffffffffffffffffffffffffffffffffffffffffffffffffffff",
        "nonce": "0x4f",
        "accessList": []
      },
      "additionalContracts": [],
      "isFixedGasLimit": false
    },
    {
      "hash": "0xaab720cb220785d62a2a4ae90adf633a1d9060364e78ff8636ee1bc532807425",
      "transactionType": "CALL",
      "contractName": "TransparentUpgradeableProxy",
      "contractAddress": "0xf951E335afb289353dc249e82926178EaC7DEd78",
      "function": "approve(address,uint256):(bool)",
      "arguments": [
        "0xE95462273d31D457Bdb2C182869aCdE5c7aE49d2",
        "115792089237316195423570985008687907853269984665640564039457584007913129639935"
      ],
      "transaction": {
        "type": "0x02",
        "from": "0x1351257000a92de941aeaebb758e44dd7c8b809f",
        "to": "0xf951e335afb289353dc249e82926178eac7ded78",
        "gas": "0x1232c",
        "value": "0x0",
        "data": "0x095ea7b3000000000000000000000000e95462273d31d457bdb2c182869acde5c7ae49d2ffffffffffffffffffffffffffffffffffffffffffffffffffffffffffffffff",
        "nonce": "0x50",
        "accessList": []
      },
      "additionalContracts": [],
      "isFixedGasLimit": false
    },
    {
      "hash": "0xed3ad7b50e98ba3f03b539f096df7cb3f9e97a11a38c7590cb90fdb73512bfc4",
      "transactionType": "CALL",
      "contractName": null,
      "contractAddress": "0xE8C1A6F98aD9a8b356283f1D9740e25D812CE566",
      "function": null,
      "arguments": null,
      "transaction": {
        "type": "0x02",
        "from": "0x1351257000a92de941aeaebb758e44dd7c8b809f",
        "to": "0xe8c1a6f98ad9a8b356283f1d9740e25d812ce566",
        "gas": "0x11101",
        "value": "0x0",
        "data": "0x9870d7fe0000000000000000000000007ab10847e0f2225cdfd1334450be33b4f5f08c3f",
        "nonce": "0x51",
        "accessList": []
      },
      "additionalContracts": [],
      "isFixedGasLimit": false
    },
    {
      "hash": "0x35415bc6614af0c3da06a03d5190e6c67affb92452b865187859504e648c3b41",
      "transactionType": "CALL",
      "contractName": null,
      "contractAddress": "0xE8C1A6F98aD9a8b356283f1D9740e25D812CE566",
      "function": null,
      "arguments": null,
      "transaction": {
        "type": "0x02",
        "from": "0x1351257000a92de941aeaebb758e44dd7c8b809f",
        "to": "0xe8c1a6f98ad9a8b356283f1d9740e25d812ce566",
        "gas": "0x120ff",
        "value": "0x0",
        "data": "0x9870d7fe0000000000000000000000007188a614a2d1ac434c5e1e6288cb65c554fa4600",
        "nonce": "0x52",
        "accessList": []
      },
      "additionalContracts": [],
      "isFixedGasLimit": false
    },
    {
      "hash": "0xdac633709de79ff5c75b22235b2f97fd83e66725bfeae1c40429cb11a174f2e4",
      "transactionType": "CALL",
      "contractName": null,
      "contractAddress": "0xE8C1A6F98aD9a8b356283f1D9740e25D812CE566",
      "function": null,
      "arguments": null,
      "transaction": {
        "type": "0x02",
        "from": "0x1351257000a92de941aeaebb758e44dd7c8b809f",
        "to": "0xe8c1a6f98ad9a8b356283f1d9740e25d812ce566",
        "gas": "0x11101",
        "value": "0x0",
        "data": "0x9870d7fe000000000000000000000000e95462273d31d457bdb2c182869acde5c7ae49d2",
        "nonce": "0x53",
        "accessList": []
      },
      "additionalContracts": [],
      "isFixedGasLimit": false
    },
    {
      "hash": "0xf5e2f63887a57914b4dc9abdd0843c15840fedb46c2f880476931dbf216e3cf5",
      "transactionType": "CALL",
      "contractName": null,
      "contractAddress": "0x7aB10847e0F2225cDfD1334450bE33B4f5F08c3F",
      "function": null,
      "arguments": null,
      "transaction": {
        "type": "0x02",
        "from": "0x1351257000a92de941aeaebb758e44dd7c8b809f",
        "to": "0x7ab10847e0f2225cdfd1334450be33b4f5f08c3f",
        "gas": "0xafd97",
        "value": "0x0",
        "data": "0xf978b2a50000000000000000000000000000000000000000000000000de0b6b3a764000000000000000000000000000000000000000000000000000029a2241af62c00000000000000000000000000000000000000000000000000001fe36ec8bd166e94",
        "nonce": "0x54",
        "accessList": []
      },
      "additionalContracts": [],
      "isFixedGasLimit": false
    },
    {
      "hash": "0x77bb206bb32bf8b179084af630fb70f6215ab3d01305a44402e71114751c65af",
      "transactionType": "CALL",
      "contractName": null,
      "contractAddress": "0x7aB10847e0F2225cDfD1334450bE33B4f5F08c3F",
      "function": null,
      "arguments": null,
      "transaction": {
        "type": "0x02",
        "from": "0x1351257000a92de941aeaebb758e44dd7c8b809f",
        "to": "0x7ab10847e0f2225cdfd1334450be33b4f5f08c3f",
        "gas": "0x91570",
        "value": "0x0",
        "data": "0x1c8f66230000000000000000000000000000000000000000000000000de0b6b3a764000000000000000000000000000000000000000000000000000029a2241af62c00000000000000000000000000000000000000000000000000001fe36ec8bd166e94",
        "nonce": "0x55",
        "accessList": []
      },
      "additionalContracts": [],
      "isFixedGasLimit": false
    },
    {
      "hash": "0xf9a21b4bc0a72146806d6348f418b9275ab5863cac6524fe2fa2b2fd3807a344",
      "transactionType": "CALL",
      "contractName": null,
      "contractAddress": "0x7aB10847e0F2225cDfD1334450bE33B4f5F08c3F",
      "function": null,
      "arguments": null,
      "transaction": {
        "type": "0x02",
        "from": "0x1351257000a92de941aeaebb758e44dd7c8b809f",
        "to": "0x7ab10847e0f2225cdfd1334450be33b4f5f08c3f",
        "gas": "0x6ed90",
        "value": "0x0",
        "data": "0xd151581f0000000000000000000000000000000000000000000000000de0b6b3a764000000000000000000000000000000000000000000000000000029a2241af62c0000ffffffffffffffffffffffffffffffffffffffffffffffffffffffffffffffff0000000000000000000000000000000000000000000000000000000000000000",
        "nonce": "0x56",
        "accessList": []
      },
      "additionalContracts": [],
      "isFixedGasLimit": false
    },
    {
      "hash": "0x0b632ea4962fe0d0167df9e1fb19115afd994c45094f50edf97e150bbd0453f4",
      "transactionType": "CALL",
      "contractName": null,
      "contractAddress": "0x7188A614a2d1AC434c5E1E6288cB65C554FA4600",
      "function": null,
      "arguments": null,
      "transaction": {
        "type": "0x02",
        "from": "0x1351257000a92de941aeaebb758e44dd7c8b809f",
        "to": "0x7188a614a2d1ac434c5e1e6288cb65c554fa4600",
        "gas": "0xad9fd",
        "value": "0x0",
        "data": "0xf978b2a50000000000000000000000000000000000000000000000000de0b6b3a764000000000000000000000000000000000000000000000000000029a2241af62c00000000000000000000000000000000000000000000000000001c2d15c49b62459e",
        "nonce": "0x57",
        "accessList": []
      },
      "additionalContracts": [],
      "isFixedGasLimit": false
    },
    {
      "hash": "0x5aeff96cc43973e93dc0c2fce113d1d3393d43d99f559095e3be75f37319b6c3",
      "transactionType": "CALL",
      "contractName": null,
      "contractAddress": "0x7188A614a2d1AC434c5E1E6288cB65C554FA4600",
      "function": null,
      "arguments": null,
      "transaction": {
        "type": "0x02",
        "from": "0x1351257000a92de941aeaebb758e44dd7c8b809f",
        "to": "0x7188a614a2d1ac434c5e1e6288cb65c554fa4600",
        "gas": "0x94d04",
        "value": "0x0",
        "data": "0x1c8f66230000000000000000000000000000000000000000000000000de0b6b3a764000000000000000000000000000000000000000000000000000029a2241af62c00000000000000000000000000000000000000000000000000001c2d15c49b62459e",
        "nonce": "0x58",
        "accessList": []
      },
      "additionalContracts": [],
      "isFixedGasLimit": false
    },
    {
      "hash": "0x98acdcfede739339b6772c6779eecbf7e49af8626b6194b6395a8a013841d028",
      "transactionType": "CALL",
      "contractName": null,
      "contractAddress": "0x7188A614a2d1AC434c5E1E6288cB65C554FA4600",
      "function": null,
      "arguments": null,
      "transaction": {
        "type": "0x02",
        "from": "0x1351257000a92de941aeaebb758e44dd7c8b809f",
        "to": "0x7188a614a2d1ac434c5e1e6288cb65c554fa4600",
        "gas": "0xd4cce",
        "value": "0x0",
        "data": "0x3d2a4f560000000000000000000000000000000000000000000000000de0b6b3a764000000000000000000000000000000000000000000000000000029a2241af62c0000ffffffffffffffffffffffffffffffffffffffffffffffffffffffffffffffff",
        "nonce": "0x59",
        "accessList": []
      },
      "additionalContracts": [],
      "isFixedGasLimit": false
    },
    {
      "hash": "0xf8e52a1156cceedef618dd32cb22c300f5d29048817c1871da77b115e341d4e2",
      "transactionType": "CALL",
      "contractName": null,
      "contractAddress": "0xE95462273d31D457Bdb2C182869aCdE5c7aE49d2",
      "function": null,
      "arguments": null,
      "transaction": {
        "type": "0x02",
        "from": "0x1351257000a92de941aeaebb758e44dd7c8b809f",
        "to": "0xe95462273d31d457bdb2c182869acde5c7ae49d2",
        "gas": "0x8f0c1",
        "value": "0x0",
        "data": "0xf978b2a50000000000000000000000000000000000000000000000000de0b6b3a764000000000000000000000000000000000000000000000000000029a2241af62c00000000000000000000000000000000000000000000000000001cfbbc2dc0ad11ff",
        "nonce": "0x5a",
        "accessList": []
      },
      "additionalContracts": [],
      "isFixedGasLimit": false
    },
    {
      "hash": "0x7f81ca0a2ee1dd6ec23e4b660d0f5deba5261ee1046dc408a749f59f30d295d2",
      "transactionType": "CALL",
      "contractName": null,
      "contractAddress": "0xE95462273d31D457Bdb2C182869aCdE5c7aE49d2",
      "function": null,
      "arguments": null,
      "transaction": {
        "type": "0x02",
        "from": "0x1351257000a92de941aeaebb758e44dd7c8b809f",
        "to": "0xe95462273d31d457bdb2c182869acde5c7ae49d2",
        "gas": "0x8a213",
        "value": "0x0",
        "data": "0x1c8f66230000000000000000000000000000000000000000000000000de0b6b3a764000000000000000000000000000000000000000000000000000029a2241af62c00000000000000000000000000000000000000000000000000001cfbbc2dc0ad11ff",
        "nonce": "0x5b",
        "accessList": []
      },
      "additionalContracts": [],
      "isFixedGasLimit": false
    },
    {
      "hash": "0x824046c09f2d3ee7d9b475dd0cb4c09a2783248e9b894a3bd893eea931ac78c1",
      "transactionType": "CALL",
      "contractName": null,
      "contractAddress": "0xE95462273d31D457Bdb2C182869aCdE5c7aE49d2",
      "function": null,
      "arguments": null,
      "transaction": {
        "type": "0x02",
        "from": "0x1351257000a92de941aeaebb758e44dd7c8b809f",
        "to": "0xe95462273d31d457bdb2c182869acde5c7ae49d2",
        "gas": "0x6e46c",
        "value": "0x0",
        "data": "0xd151581f0000000000000000000000000000000000000000000000000de0b6b3a764000000000000000000000000000000000000000000000000000029a2241af62c0000ffffffffffffffffffffffffffffffffffffffffffffffffffffffffffffffff0000000000000000000000000000000000000000000000000000000000000000",
        "nonce": "0x5c",
        "accessList": []
      },
      "additionalContracts": [],
      "isFixedGasLimit": false
    },
    {
      "hash": "0x26106bfdb8a5a0c3815a7a69c0421288dde754f2cddee7f31780828518709666",
      "transactionType": "CALL",
      "contractName": null,
      "contractAddress": "0x7aB10847e0F2225cDfD1334450bE33B4f5F08c3F",
      "function": null,
      "arguments": null,
      "transaction": {
        "type": "0x02",
        "from": "0x1351257000a92de941aeaebb758e44dd7c8b809f",
        "to": "0x7ab10847e0f2225cdfd1334450be33b4f5f08c3f",
        "gas": "0x61f0c",
        "value": "0x0",
        "data": "0x89ee90f50000000000000000000000000000000000000000000000000de0b6b3a764000000000000000000000000000000000000000000000000000006f05b59d3b200000000000000000000000000000000000000000000000000000000000000000000",
        "nonce": "0x5d",
        "accessList": []
      },
      "additionalContracts": [],
      "isFixedGasLimit": false
    },
    {
      "hash": "0x1da258c03c504923217777983f4b3931425ac7b7a06932818cb0d5460fd301df",
      "transactionType": "CALL",
      "contractName": null,
      "contractAddress": "0x7188A614a2d1AC434c5E1E6288cB65C554FA4600",
      "function": null,
      "arguments": null,
      "transaction": {
        "type": "0x02",
        "from": "0x1351257000a92de941aeaebb758e44dd7c8b809f",
        "to": "0x7188a614a2d1ac434c5e1e6288cb65c554fa4600",
        "gas": "0xa1a12",
        "value": "0x0",
        "data": "0x934f73a40000000000000000000000000000000000000000000000000de0b6b3a764000000000000000000000000000000000000000000000000000006f05b59d3b20000",
        "nonce": "0x5e",
        "accessList": []
      },
      "additionalContracts": [],
      "isFixedGasLimit": false
    },
    {
      "hash": "0x4cb6afcd0e05626f8807d87c810c21d8fa24d717e0bdb40241f4b044cc145a9d",
      "transactionType": "CALL",
      "contractName": null,
      "contractAddress": "0xE95462273d31D457Bdb2C182869aCdE5c7aE49d2",
      "function": null,
      "arguments": null,
      "transaction": {
        "type": "0x02",
        "from": "0x1351257000a92de941aeaebb758e44dd7c8b809f",
        "to": "0xe95462273d31d457bdb2c182869acde5c7ae49d2",
        "gas": "0x5e469",
        "value": "0x0",
        "data": "0x89ee90f50000000000000000000000000000000000000000000000000de0b6b3a764000000000000000000000000000000000000000000000000000006f05b59d3b200000000000000000000000000000000000000000000000000000000000000000000",
        "nonce": "0x5f",
        "accessList": []
      },
      "additionalContracts": [],
      "isFixedGasLimit": false
    }
  ],
  "receipts": [
    {
      "transactionHash": "0x3128b79b667bb1eef60c08b165ab3c2ffd5eea3670a547b69e46453fe5259a1e",
      "transactionIndex": "0x0",
      "blockHash": "0xdd3ef7bb069942fa4728369ecafd3de163a4924b97b295a73984449aca9fc669",
      "blockNumber": "0x11d38c9",
      "from": "0x1351257000A92De941aEAebB758e44DD7c8B809f",
      "to": "0x30eA22C879628514f1494d4BBFEF79D21A6B49A2",
      "cumulativeGasUsed": "0x2208c2",
      "gasUsed": "0x2208c2",
      "contractAddress": null,
      "logs": [
        {
          "address": "0x30eA22C879628514f1494d4BBFEF79D21A6B49A2",
          "topics": [
            "0xac49e518f90a358f652e4400164f05a5d8f7e35e7747279bc3a93dbf584e125a"
          ],
          "data": "0x00000000000000000000000000000000000000000000000000000000000000010000000000000000000000000000000000000000000000000000000000000064",
          "blockHash": "0xdd3ef7bb069942fa4728369ecafd3de163a4924b97b295a73984449aca9fc669",
          "blockNumber": "0x11d38c9",
          "transactionHash": "0x3128b79b667bb1eef60c08b165ab3c2ffd5eea3670a547b69e46453fe5259a1e",
          "transactionIndex": "0x0",
          "logIndex": "0x0",
          "removed": false
        }
      ],
      "status": "0x1",
      "logsBloom": "0x00000000000000000000000000000000000000000080000002000000000800000000000000000000000000000000000000000000000000000000000000000000000000000000000000000000000000000000000000000000000000000000000000000000000000000000000000000020000000000000000000000000000000000000000000000000000000000000000000000040000000000000000000000000000000000000000000000000000000000000000000000000000000000000000000000000000000000000000000000000000000000000000000000000000000000000000000000000000400000000000000000000000000000000000000000000",
      "type": "0x2",
      "effectiveGasPrice": "0xfd70dd559"
    },
    {
      "transactionHash": "0xdfbb9a699a318f40048bb6e3bf9f55aef22fcf98a6f2b3b0eb938c3bb72c5038",
      "transactionIndex": "0x0",
      "blockHash": "0x14b7880c20a3360d1f5246e159b76df68cf849fa2f21f5d0d8385fdbaf6ed01a",
      "blockNumber": "0x11d38ca",
      "from": "0x1351257000A92De941aEAebB758e44DD7c8B809f",
      "to": "0x7f39C581F595B53c5cb19bD0b3f8dA6c935E2Ca0",
      "cumulativeGasUsed": "0x1d9de",
      "gasUsed": "0x1d9de",
      "contractAddress": null,
      "logs": [
        {
          "address": "0xae7ab96520DE3A18E5e111B5EaAb095312D7fE84",
          "topics": [
            "0x96a25c8ce0baabc1fdefd93e9ed25d8e092a3332f3aa9a41722b5697231d1d1a",
            "0x0000000000000000000000007f39c581f595b53c5cb19bd0b3f8da6c935e2ca0"
          ],
          "data": "0x0000000000000000000000000000000000000000000000056bc75e2d631000000000000000000000000000000000000000000000000000000000000000000000",
          "blockHash": "0x14b7880c20a3360d1f5246e159b76df68cf849fa2f21f5d0d8385fdbaf6ed01a",
          "blockNumber": "0x11d38ca",
          "transactionHash": "0xdfbb9a699a318f40048bb6e3bf9f55aef22fcf98a6f2b3b0eb938c3bb72c5038",
          "transactionIndex": "0x0",
          "logIndex": "0x0",
          "removed": false
        },
        {
          "address": "0xae7ab96520DE3A18E5e111B5EaAb095312D7fE84",
          "topics": [
            "0xddf252ad1be2c89b69c2b068fc378daa952ba7f163c4a11628f55a4df523b3ef",
            "0x0000000000000000000000000000000000000000000000000000000000000000",
            "0x0000000000000000000000007f39c581f595b53c5cb19bd0b3f8da6c935e2ca0"
          ],
          "data": "0x0000000000000000000000000000000000000000000000056bc75e2d630fffff",
          "blockHash": "0x14b7880c20a3360d1f5246e159b76df68cf849fa2f21f5d0d8385fdbaf6ed01a",
          "blockNumber": "0x11d38ca",
          "transactionHash": "0xdfbb9a699a318f40048bb6e3bf9f55aef22fcf98a6f2b3b0eb938c3bb72c5038",
          "transactionIndex": "0x0",
          "logIndex": "0x1",
          "removed": false
        },
        {
          "address": "0xae7ab96520DE3A18E5e111B5EaAb095312D7fE84",
          "topics": [
            "0x9d9c909296d9c674451c0c24f02cb64981eb3b727f99865939192f880a755dcb",
            "0x0000000000000000000000000000000000000000000000000000000000000000",
            "0x0000000000000000000000007f39c581f595b53c5cb19bd0b3f8da6c935e2ca0"
          ],
          "data": "0x000000000000000000000000000000000000000000000004b7eb21caa4c24fb2",
          "blockHash": "0x14b7880c20a3360d1f5246e159b76df68cf849fa2f21f5d0d8385fdbaf6ed01a",
          "blockNumber": "0x11d38ca",
          "transactionHash": "0xdfbb9a699a318f40048bb6e3bf9f55aef22fcf98a6f2b3b0eb938c3bb72c5038",
          "transactionIndex": "0x0",
          "logIndex": "0x2",
          "removed": false
        },
        {
          "address": "0x7f39C581F595B53c5cb19bD0b3f8dA6c935E2Ca0",
          "topics": [
            "0xddf252ad1be2c89b69c2b068fc378daa952ba7f163c4a11628f55a4df523b3ef",
            "0x0000000000000000000000000000000000000000000000000000000000000000",
            "0x0000000000000000000000001351257000a92de941aeaebb758e44dd7c8b809f"
          ],
          "data": "0x000000000000000000000000000000000000000000000004b7eb21caa4c24fb2",
          "blockHash": "0x14b7880c20a3360d1f5246e159b76df68cf849fa2f21f5d0d8385fdbaf6ed01a",
          "blockNumber": "0x11d38ca",
          "transactionHash": "0xdfbb9a699a318f40048bb6e3bf9f55aef22fcf98a6f2b3b0eb938c3bb72c5038",
          "transactionIndex": "0x0",
          "logIndex": "0x3",
          "removed": false
        }
      ],
      "status": "0x1",
      "logsBloom": "0x00000100000000000000000000000000000000000000000000000000000000000000000400000000000000000000000000000000000000000004000000000000000200000000000000000008000000000000000000000000000000000000002000000000120000000000008000200800000000000000000000000010000000000000000000000000000080000000000000000000000000800000000000002000000000000000000000000000000200000000000000000000000000000000000000000002000000100000000000000080000000000080000000000000000020000000000000000000000000008000000000000000024000000000000000000000",
      "type": "0x2",
      "effectiveGasPrice": "0xfd70dd559"
    },
    {
      "transactionHash": "0xf76b16d4cd422a06f51c711863b2b79f28ebe60550b4c0eaec6b30a4b966dcaa",
      "transactionIndex": "0x0",
      "blockHash": "0x4ed30db2f3aaa7d262fb7637efdce9443bd6ea9045c31e00d957e5c5cb94d2b6",
      "blockNumber": "0x11d38cc",
      "from": "0x1351257000A92De941aEAebB758e44DD7c8B809f",
      "to": "0xC02aaA39b223FE8D0A0e5C4F27eAD9083C756Cc2",
      "cumulativeGasUsed": "0xb51c",
      "gasUsed": "0xb51c",
      "contractAddress": null,
      "logs": [
        {
          "address": "0xC02aaA39b223FE8D0A0e5C4F27eAD9083C756Cc2",
          "topics": [
            "0x8c5be1e5ebec7d5bd14f71427d1e84f3dd0314c0f7b2291e5b200ac8c7c3b925",
            "0x0000000000000000000000001351257000a92de941aeaebb758e44dd7c8b809f",
            "0x000000000000000000000000e8c1a6f98ad9a8b356283f1d9740e25d812ce566"
          ],
          "data": "0xffffffffffffffffffffffffffffffffffffffffffffffffffffffffffffffff",
          "blockHash": "0x4ed30db2f3aaa7d262fb7637efdce9443bd6ea9045c31e00d957e5c5cb94d2b6",
          "blockNumber": "0x11d38cc",
          "transactionHash": "0xf76b16d4cd422a06f51c711863b2b79f28ebe60550b4c0eaec6b30a4b966dcaa",
          "transactionIndex": "0x0",
          "logIndex": "0x0",
          "removed": false
        }
      ],
      "status": "0x1",
      "logsBloom": "0x00000000000000000000010000000000000000000000000000000000000000000000000400000000000000000000000002000000080000000004000000200000000000000000000000000000000000000000008000000000000000000000000000000000100000000000000000000000100000000000000000000000000000000000000000000000000000000000000000000000000000000000000000000000020000000000000000000000000000000000000000000000000000000000000000000000000000000000000000000000000000000000000000000000000000000010200000000000000000000000000000000000000000000000000000000000",
      "type": "0x2",
      "effectiveGasPrice": "0xfd70dd559"
    },
    {
      "transactionHash": "0x4d011db083ba77d26b314504810006006b20461ca1fcfb0c2c22c2d10ae256ef",
      "transactionIndex": "0x0",
      "blockHash": "0x173b10ba65f75b5ff39794436525691ffa452482e75ae51f2146c67dc934e62e",
      "blockNumber": "0x11d38cd",
      "from": "0x1351257000A92De941aEAebB758e44DD7c8B809f",
      "to": "0xcf5EA1b38380f6aF39068375516Daf40Ed70D299",
      "cumulativeGasUsed": "0x2060f",
      "gasUsed": "0x2060f",
      "contractAddress": null,
      "logs": [
        {
          "address": "0xA35b1B31Ce002FBF2058D22F30f95D405200A15b",
          "topics": [
            "0xddf252ad1be2c89b69c2b068fc378daa952ba7f163c4a11628f55a4df523b3ef",
            "0x0000000000000000000000000000000000000000000000000000000000000000",
            "0x0000000000000000000000001351257000a92de941aeaebb758e44dd7c8b809f"
          ],
          "data": "0x0000000000000000000000000000000000000000000000055710d354d3bc3a9f",
          "blockHash": "0x173b10ba65f75b5ff39794436525691ffa452482e75ae51f2146c67dc934e62e",
          "blockNumber": "0x11d38cd",
          "transactionHash": "0x4d011db083ba77d26b314504810006006b20461ca1fcfb0c2c22c2d10ae256ef",
          "transactionIndex": "0x0",
          "logIndex": "0x0",
          "removed": false
        },
        {
          "address": "0xcf5EA1b38380f6aF39068375516Daf40Ed70D299",
          "topics": [
            "0xf5681f9d0db1b911ac18ee83d515a1cf1051853a9eae418316a2fdf7dea427c5",
            "0x0000000000000000000000001351257000a92de941aeaebb758e44dd7c8b809f",
            "0x0000000000000000000000001351257000a92de941aeaebb758e44dd7c8b809f"
          ],
          "data": "0x0000000000000000000000000000000000000000000000056bc75e2d631000000000000000000000000000000000000000000000000000055710d354d3bc3a9f",
          "blockHash": "0x173b10ba65f75b5ff39794436525691ffa452482e75ae51f2146c67dc934e62e",
          "blockNumber": "0x11d38cd",
          "transactionHash": "0x4d011db083ba77d26b314504810006006b20461ca1fcfb0c2c22c2d10ae256ef",
          "transactionIndex": "0x0",
          "logIndex": "0x1",
          "removed": false
        }
      ],
      "status": "0x1",
      "logsBloom": "0x00000000000000000000000000000000000000000000000000000000000000000000000400000000000000040000000000000000000000000004000000800000000000800000000000000008000000000000000000000000000000000000000000000000120000000000000000000800000000000000100000000010000000000000000000000000000000080000000000000000000000000000000000000000000000000100000000000000000000000000000000000000000000000000000000000002000000000000000000000010000000000000000002000000000020000000000001000000000000000000000000000000000000000000000000000000",
      "type": "0x2",
      "effectiveGasPrice": "0xfd70dd559"
    },
    {
      "transactionHash": "0xb3897ab15b85c96983ed8615b9ffef9f9b9866fb7935fb4928ff5b5a4c10534d",
      "transactionIndex": "0x0",
      "blockHash": "0x1f2900f0247c5870e459dd6d89e5bf48ae173378ad21201a96eba8560acfcbb8",
      "blockNumber": "0x11d38ce",
      "from": "0x1351257000A92De941aEAebB758e44DD7c8B809f",
      "to": "0xC02aaA39b223FE8D0A0e5C4F27eAD9083C756Cc2",
      "cumulativeGasUsed": "0xafee",
      "gasUsed": "0xafee",
      "contractAddress": null,
      "logs": [
        {
          "address": "0xC02aaA39b223FE8D0A0e5C4F27eAD9083C756Cc2",
          "topics": [
            "0xe1fffcc4923d04b559f4d29a8bfc6cda04eb5b0d3c460751c2402c5c5cc9109c",
            "0x0000000000000000000000001351257000a92de941aeaebb758e44dd7c8b809f"
          ],
          "data": "0x00000000000000000000000000000000000000000000001b1ae4d6e2ef500000",
          "blockHash": "0x1f2900f0247c5870e459dd6d89e5bf48ae173378ad21201a96eba8560acfcbb8",
          "blockNumber": "0x11d38ce",
          "transactionHash": "0xb3897ab15b85c96983ed8615b9ffef9f9b9866fb7935fb4928ff5b5a4c10534d",
          "transactionIndex": "0x0",
          "logIndex": "0x0",
          "removed": false
        }
      ],
      "status": "0x1",
      "logsBloom": "0x00000000000000000000000000000000000000000000000000000000000000000000000400000000000000000000000002000000080000000004000000000000000000000000000000000000000000000000000000000000000000008000000000000000100000000000000000000000000000000000000000000000000000000000000000000000000000000000000000000001000000000000000000000000000000000000000000000000000000000000000000000000000000000000000000000000000000000000000000000000000000000000000000000000000000000000200000000000000000000000000000000000000000400000000000000000",
      "type": "0x2",
      "effectiveGasPrice": "0xfd70dd559"
    },
    {
      "transactionHash": "0x33edaff854735ee7641fc45731d73926c037c7e7061b00c7a0832f22f72b49a4",
      "transactionIndex": "0x0",
      "blockHash": "0x7fb3884dc561b6f621802c84721fe3e09f53c48de689a92c0f8544385894da93",
      "blockNumber": "0x11d38cf",
      "from": "0x1351257000A92De941aEAebB758e44DD7c8B809f",
      "to": "0xE8C1A6F98aD9a8b356283f1D9740e25D812CE566",
      "cumulativeGasUsed": "0xcbf2",
      "gasUsed": "0xcbf2",
      "contractAddress": null,
      "logs": [
        {
          "address": "0xE8C1A6F98aD9a8b356283f1D9740e25D812CE566",
          "topics": [
            "0x4e44c8be34d12f1b7f56b13b4bbe97e64ca37a91916f86c73412da80c21748e2"
          ],
          "data": "0x00000000000000000000000000000000000000000000003635c9adc5dea00000",
          "blockHash": "0x7fb3884dc561b6f621802c84721fe3e09f53c48de689a92c0f8544385894da93",
          "blockNumber": "0x11d38cf",
          "transactionHash": "0x33edaff854735ee7641fc45731d73926c037c7e7061b00c7a0832f22f72b49a4",
          "transactionIndex": "0x0",
          "logIndex": "0x0",
          "removed": false
        }
      ],
      "status": "0x1",
      "logsBloom": "0x04000000000000000000000000000000000000000000000000200000000000000000000000000000000000000000000000000000000000000000000000000000000000000000000000001000000000000000000000000000000000000000000000000000000000000000000000000000001000000000000000000000000000000000000000000001000000000000000000000000000000000000000000000000000000000000000000000000000000000000000000000000000000000000000000000000000000000000000000000000000000000000000000000000000000000000000000000000000000000000000000000000200000000000000000000000",
      "type": "0x2",
      "effectiveGasPrice": "0xfd70dd559"
    },
    {
      "transactionHash": "0x36c774908c5edd32a4cdc689b60ac10f6601d8f9d39d554ecd4fefdeeb98196f",
      "transactionIndex": "0x0",
      "blockHash": "0xcd11b0394b1bd289d2716380d1970b1f61e402d24c54f21007faa53703aaf268",
      "blockNumber": "0x11d38d0",
      "from": "0x1351257000A92De941aEAebB758e44DD7c8B809f",
      "to": "0xf951E335afb289353dc249e82926178EaC7DEd78",
      "cumulativeGasUsed": "0x1a303",
      "gasUsed": "0x1a303",
      "contractAddress": null,
      "logs": [
        {
          "address": "0xf951E335afb289353dc249e82926178EaC7DEd78",
          "topics": [
            "0xddf252ad1be2c89b69c2b068fc378daa952ba7f163c4a11628f55a4df523b3ef",
            "0x0000000000000000000000000000000000000000000000000000000000000000",
            "0x0000000000000000000000001351257000a92de941aeaebb758e44dd7c8b809f"
          ],
          "data": "0x00000000000000000000000000000000000000000000000530fdb3c59f481a10",
          "blockHash": "0xcd11b0394b1bd289d2716380d1970b1f61e402d24c54f21007faa53703aaf268",
          "blockNumber": "0x11d38d0",
          "transactionHash": "0x36c774908c5edd32a4cdc689b60ac10f6601d8f9d39d554ecd4fefdeeb98196f",
          "transactionIndex": "0x0",
          "logIndex": "0x0",
          "removed": false
        },
        {
          "address": "0xb3D9cf8E163bbc840195a97E81F8A34E295B8f39",
          "topics": [
            "0xbfe611b001dfcd411432f7bf0d79b82b4b2ee81511edac123a3403c357fb972a",
            "0x000000000000000000000000f951e335afb289353dc249e82926178eac7ded78"
          ],
          "data": "0x0000000000000000000000000000000000000000000000056bc75e2d63100000",
          "blockHash": "0xcd11b0394b1bd289d2716380d1970b1f61e402d24c54f21007faa53703aaf268",
          "blockNumber": "0x11d38d0",
          "transactionHash": "0x36c774908c5edd32a4cdc689b60ac10f6601d8f9d39d554ecd4fefdeeb98196f",
          "transactionIndex": "0x0",
          "logIndex": "0x1",
          "removed": false
        },
        {
          "address": "0xf951E335afb289353dc249e82926178EaC7DEd78",
          "topics": [
            "0xe28a9e1df63912c0c77b586c53595df741cbbc554d6831e40f1b5453199a9630",
            "0x0000000000000000000000001351257000a92de941aeaebb758e44dd7c8b809f",
            "0x0000000000000000000000000000000000000000000000000000000000000000"
          ],
          "data": "0x0000000000000000000000000000000000000000000000056bc75e2d6310000000000000000000000000000000000000000000000000000530fdb3c59f481a10000000000000000000000000000000000000000000000a663755b58390c817e3",
          "blockHash": "0xcd11b0394b1bd289d2716380d1970b1f61e402d24c54f21007faa53703aaf268",
          "blockNumber": "0x11d38d0",
          "transactionHash": "0x36c774908c5edd32a4cdc689b60ac10f6601d8f9d39d554ecd4fefdeeb98196f",
          "transactionIndex": "0x0",
          "logIndex": "0x2",
          "removed": false
        }
      ],
      "status": "0x1",
      "logsBloom": "0x00000000000000000008000000008000000000000000000000000000000000000000000400000000400000000000000000000000000000000004000000000000000000000000000000000008000000000000100000000000400000000000000000004000120000000000000000000800000000000000000000000010000000000000000000000000000000000800000000000000000000000000000000000000000000000000000000000000000000000000000000000000000000000000000000800002000000400000000000000000000020000000000000000000000060000000000000000000000000000000000000000010100000000000000040000000",
      "type": "0x2",
      "effectiveGasPrice": "0xfd70dd559"
    },
    {
      "transactionHash": "0xa545d072b4cad4563f9eaaa219f47644f7bc64b8fd94a8cf50cf2e4520d3b5ca",
      "transactionIndex": "0x0",
      "blockHash": "0x595398f150bb3e27312c16af44a5cd161eb132cfa08bb55f705474e1c3f40986",
      "blockNumber": "0x11d38d1",
      "from": "0x1351257000A92De941aEAebB758e44DD7c8B809f",
      "to": "0x7f39C581F595B53c5cb19bD0b3f8dA6c935E2Ca0",
      "cumulativeGasUsed": "0xb5c0",
      "gasUsed": "0xb5c0",
      "contractAddress": null,
      "logs": [
        {
          "address": "0x7f39C581F595B53c5cb19bD0b3f8dA6c935E2Ca0",
          "topics": [
            "0x8c5be1e5ebec7d5bd14f71427d1e84f3dd0314c0f7b2291e5b200ac8c7c3b925",
            "0x0000000000000000000000001351257000a92de941aeaebb758e44dd7c8b809f",
            "0x0000000000000000000000007ab10847e0f2225cdfd1334450be33b4f5f08c3f"
          ],
          "data": "0xffffffffffffffffffffffffffffffffffffffffffffffffffffffffffffffff",
          "blockHash": "0x595398f150bb3e27312c16af44a5cd161eb132cfa08bb55f705474e1c3f40986",
          "blockNumber": "0x11d38d1",
          "transactionHash": "0xa545d072b4cad4563f9eaaa219f47644f7bc64b8fd94a8cf50cf2e4520d3b5ca",
          "transactionIndex": "0x0",
          "logIndex": "0x0",
          "removed": false
        }
      ],
      "status": "0x1",
      "logsBloom": "0x00000000000000000000000000000000000000000000000000000000000000000000000400000000000000000000000000000000000000000004000000200000000000000000000000000000000000000000000000000000000000000000000000000000100000004000000000000000000000000000000000000000000000000000000000000000000080000000000000000000000000000000000000000000020000000000000000200000000000000000000000000000000000000000000800000000000000100000000000000000000000000000000000000000000000000010000000000000000000008000000000000000000000000000000000000000",
      "type": "0x2",
      "effectiveGasPrice": "0xfd70dd559"
    },
    {
      "transactionHash": "0x5a5556fab8d34e4bfee3f782d1c6162a420126e06b6d9cceae89d7b02755532a",
      "transactionIndex": "0x0",
      "blockHash": "0xf3bbb0cca06c49cf86c128554c0a8d84e8dc67b703a263f2b79f222c86764772",
      "blockNumber": "0x11d38d2",
      "from": "0x1351257000A92De941aEAebB758e44DD7c8B809f",
      "to": "0xA35b1B31Ce002FBF2058D22F30f95D405200A15b",
      "cumulativeGasUsed": "0xd210",
      "gasUsed": "0xd210",
      "contractAddress": null,
      "logs": [
        {
          "address": "0xA35b1B31Ce002FBF2058D22F30f95D405200A15b",
          "topics": [
            "0x8c5be1e5ebec7d5bd14f71427d1e84f3dd0314c0f7b2291e5b200ac8c7c3b925",
            "0x0000000000000000000000001351257000a92de941aeaebb758e44dd7c8b809f",
            "0x0000000000000000000000007188a614a2d1ac434c5e1e6288cb65c554fa4600"
          ],
          "data": "0xffffffffffffffffffffffffffffffffffffffffffffffffffffffffffffffff",
          "blockHash": "0xf3bbb0cca06c49cf86c128554c0a8d84e8dc67b703a263f2b79f222c86764772",
          "blockNumber": "0x11d38d2",
          "transactionHash": "0x5a5556fab8d34e4bfee3f782d1c6162a420126e06b6d9cceae89d7b02755532a",
          "transactionIndex": "0x0",
          "logIndex": "0x0",
          "removed": false
        }
      ],
      "status": "0x1",
      "logsBloom": "0x00000000000000000000000000000000000000000000000000000000000000000008000400000000000000040000000000000000000000000004000000200000000000000000000000000000000000000000000000000000000080000000000000000000100000000000000000000000000000000000000000000000000000000000000000000000000000080000000000004000000000000000000000000000020000000000000000000000000000000000000000000000000000000000000000000000000000000000000000000000000000000000000000000000000000000010000001000000000000000000000000000000000000000000000000000000",
      "type": "0x2",
      "effectiveGasPrice": "0xfd70dd559"
    },
    {
      "transactionHash": "0x35415bc6614af0c3da06a03d5190e6c67affb92452b865187859504e648c3b41",
      "transactionIndex": "0x0",
      "blockHash": "0x1ff91f22f403220b52a890cdc09216a895c4808d8bcff3563ec89e6e6a93c64f",
      "blockNumber": "0x11d38d3",
      "from": "0x1351257000A92De941aEAebB758e44DD7c8B809f",
      "to": "0xE8C1A6F98aD9a8b356283f1D9740e25D812CE566",
      "cumulativeGasUsed": "0xc59b",
      "gasUsed": "0xc59b",
      "contractAddress": null,
      "logs": [
        {
          "address": "0xE8C1A6F98aD9a8b356283f1D9740e25D812CE566",
          "topics": [
            "0x51778c51d58ce676f156168a160fc5e14ad3c40027f7d6bf7ce613de46dda9a0",
            "0x0000000000000000000000001351257000a92de941aeaebb758e44dd7c8b809f",
            "0x0000000000000000000000007188a614a2d1ac434c5e1e6288cb65c554fa4600"
          ],
          "data": "0x",
          "blockHash": "0x1ff91f22f403220b52a890cdc09216a895c4808d8bcff3563ec89e6e6a93c64f",
          "blockNumber": "0x11d38d3",
          "transactionHash": "0x35415bc6614af0c3da06a03d5190e6c67affb92452b865187859504e648c3b41",
          "transactionIndex": "0x0",
          "logIndex": "0x0",
          "removed": false
        }
      ],
      "status": "0x1",
      "logsBloom": "0x04000000000000000000000000000000000000000000000000200000000000000008000400000000000000000000000000000000000000000004000000000000000000000000000000001000000000000000000000000000000080000000000000000000100000000000000000000000000000000000000000000000000000000000000000000000000000000000000000004000000000000000000000000000000000000000004000000000000000000000000000000000000001000000000000000000000000000000000000000000000000000000000000000000000000000000000000000000000000000000000000000000000000000000000800000000",
      "type": "0x2",
      "effectiveGasPrice": "0xfd70dd559"
    },
    {
      "transactionHash": "0xaab720cb220785d62a2a4ae90adf633a1d9060364e78ff8636ee1bc532807425",
      "transactionIndex": "0x0",
      "blockHash": "0x8a18585f947a637bf90d53809048a230b8ce867d3c7c9ff7d1f230ae5d09d593",
      "blockNumber": "0x11d38d6",
      "from": "0x1351257000A92De941aEAebB758e44DD7c8B809f",
      "to": "0xf951E335afb289353dc249e82926178EaC7DEd78",
      "cumulativeGasUsed": "0xd2cf",
      "gasUsed": "0xd2cf",
      "contractAddress": null,
      "logs": [
        {
          "address": "0xf951E335afb289353dc249e82926178EaC7DEd78",
          "topics": [
            "0x8c5be1e5ebec7d5bd14f71427d1e84f3dd0314c0f7b2291e5b200ac8c7c3b925",
            "0x0000000000000000000000001351257000a92de941aeaebb758e44dd7c8b809f",
            "0x000000000000000000000000e95462273d31d457bdb2c182869acde5c7ae49d2"
          ],
          "data": "0xffffffffffffffffffffffffffffffffffffffffffffffffffffffffffffffff",
          "blockHash": "0x8a18585f947a637bf90d53809048a230b8ce867d3c7c9ff7d1f230ae5d09d593",
          "blockNumber": "0x11d38d6",
          "transactionHash": "0xaab720cb220785d62a2a4ae90adf633a1d9060364e78ff8636ee1bc532807425",
          "transactionIndex": "0x0",
          "logIndex": "0x0",
          "removed": false
        }
      ],
      "status": "0x1",
      "logsBloom": "0x00000000000000000000000000000000000000000000000000000000000000000000000400000004000000000000000000000000000000000004000000200000000000000000000000100000000000000000000000000000000000000000000000004000100000000000000000000000000000000000000000000000000000000000000000000000000000000000000000000000000000000000000000000000020000000000000000000000000000000000000000000000000000000000000000800000000000000000000000000000000000000000000000000000000000000010000000000000000000000000000000000000000000000000000040000000",
      "type": "0x2",
      "effectiveGasPrice": "0xfd70dd559"
    },
    {
      "transactionHash": "0xed3ad7b50e98ba3f03b539f096df7cb3f9e97a11a38c7590cb90fdb73512bfc4",
      "transactionIndex": "0x0",
      "blockHash": "0x615bd6cd995ce03758a4ae0b80ba9ad517fe1381814301529b34ca820cba6ea2",
      "blockNumber": "0x11d38d7",
      "from": "0x1351257000A92De941aEAebB758e44DD7c8B809f",
      "to": "0xE8C1A6F98aD9a8b356283f1D9740e25D812CE566",
      "cumulativeGasUsed": "0xc5a7",
      "gasUsed": "0xc5a7",
      "contractAddress": null,
      "logs": [
        {
          "address": "0xE8C1A6F98aD9a8b356283f1D9740e25D812CE566",
          "topics": [
            "0x51778c51d58ce676f156168a160fc5e14ad3c40027f7d6bf7ce613de46dda9a0",
            "0x0000000000000000000000001351257000a92de941aeaebb758e44dd7c8b809f",
            "0x0000000000000000000000007ab10847e0f2225cdfd1334450be33b4f5f08c3f"
          ],
          "data": "0x",
          "blockHash": "0x615bd6cd995ce03758a4ae0b80ba9ad517fe1381814301529b34ca820cba6ea2",
          "blockNumber": "0x11d38d7",
          "transactionHash": "0xed3ad7b50e98ba3f03b539f096df7cb3f9e97a11a38c7590cb90fdb73512bfc4",
          "transactionIndex": "0x0",
          "logIndex": "0x0",
          "removed": false
        }
      ],
      "status": "0x1",
      "logsBloom": "0x04000000000000000000000000000000000000000000000000200000000000000000000400000000000000000000000000000000000000000004000000000000000000000000000000001000000000000000000000000000000000000000000000000000100000004000000000000000000000000000000000000000000000000000000000000000000000000000000000000000000000000000000000000000000000000000004000200000000000000000000000000000000001000000000800000000000000000000000000000000000000000000000000000000000000000000000000000000000000000000000000000000000000000000000800000000",
      "type": "0x2",
      "effectiveGasPrice": "0xfd70dd559"
    },
    {
      "transactionHash": "0xdac633709de79ff5c75b22235b2f97fd83e66725bfeae1c40429cb11a174f2e4",
      "transactionIndex": "0x0",
      "blockHash": "0x786fc17f76d882db3f92afa82edc53f16e6098718e7538c91e179e0bef8b0e75",
      "blockNumber": "0x11d38da",
      "from": "0x1351257000A92De941aEAebB758e44DD7c8B809f",
      "to": "0xE8C1A6F98aD9a8b356283f1D9740e25D812CE566",
      "cumulativeGasUsed": "0xc5a7",
      "gasUsed": "0xc5a7",
      "contractAddress": null,
      "logs": [
        {
          "address": "0xE8C1A6F98aD9a8b356283f1D9740e25D812CE566",
          "topics": [
            "0x51778c51d58ce676f156168a160fc5e14ad3c40027f7d6bf7ce613de46dda9a0",
            "0x0000000000000000000000001351257000a92de941aeaebb758e44dd7c8b809f",
            "0x000000000000000000000000e95462273d31d457bdb2c182869acde5c7ae49d2"
          ],
          "data": "0x",
          "blockHash": "0x786fc17f76d882db3f92afa82edc53f16e6098718e7538c91e179e0bef8b0e75",
          "blockNumber": "0x11d38da",
          "transactionHash": "0xdac633709de79ff5c75b22235b2f97fd83e66725bfeae1c40429cb11a174f2e4",
          "transactionIndex": "0x0",
          "logIndex": "0x0",
          "removed": false
        }
      ],
      "status": "0x1",
      "logsBloom": "0x04000000000000000000000000000000000000000000000000200000000000000000000400000004000000000000000000000000000000000004000000000000000000000000000000101000000000000000000000000000000000000000000000000000100000000000000000000000000000000000000000000000000000000000000000000000000000000000000000000000000000000000000000000000000000000000004000000000000000000000000000000000000001000000000000000000000000000000000000000000000000000000000000000000000000000000000000000000000000000000000000000000000000000000000800000000",
      "type": "0x2",
      "effectiveGasPrice": "0xfd70dd559"
    }
  ],
  "libraries": [],
  "pending": [],
  "returns": {},
  "timestamp": 1701708936,
  "chain": 1,
  "multi": false,
  "commit": "75a316c"
}