{
  "transactions": [
    {
      "hash": "0xdf45cba4ae8e4ae248b94e24358475ebe42cd41c791fa0ad2c6dab8eed38134c",
      "transactionType": "CALL",
      "contractName": "UniswapV3Pool",
      "contractAddress": "0x30eA22C879628514f1494d4BBFEF79D21A6B49A2",
      "function": "increaseObservationCardinalityNext(uint16)",
      "arguments": [
        "100"
      ],
      "transaction": {
        "type": "0x02",
        "from": "0x1351257000a92de941aeaebb758e44dd7c8b809f",
        "to": "0x30ea22c879628514f1494d4bbfef79d21a6b49a2",
        "gas": "0x8d3a",
        "value": "0x0",
        "data": "0x32148f670000000000000000000000000000000000000000000000000000000000000064",
        "nonce": "0x60",
        "accessList": []
      },
      "additionalContracts": [],
      "isFixedGasLimit": false
    },
    {
      "hash": "0x39aab89dfa5ba3ced02992a9adafbd2804276483e7f5af09d7490847df4f0d9a",
      "transactionType": "CALL",
      "contractName": null,
      "contractAddress": "0xE8C1A6F98aD9a8b356283f1D9740e25D812CE566",
      "function": null,
      "arguments": null,
      "transaction": {
        "type": "0x02",
        "from": "0x1351257000a92de941aeaebb758e44dd7c8b809f",
        "to": "0xe8c1a6f98ad9a8b356283f1d9740e25d812ce566",
        "gas": "0xae53",
        "value": "0x0",
        "data": "0xe5a97f0700000000000000000000000000000000000000000000003635c9adc5dea00000",
        "nonce": "0x61",
        "accessList": []
      },
      "additionalContracts": [],
      "isFixedGasLimit": false
    },
    {
      "hash": "0xb0e573de8f8e4fba074c3e89f720f29025ac891ac3796a2daec482a57a5f4dcd",
      "transactionType": "CALL",
      "contractName": "WETH9",
      "contractAddress": "0xC02aaA39b223FE8D0A0e5C4F27eAD9083C756Cc2",
      "function": "deposit()",
      "arguments": [],
      "transaction": {
        "type": "0x02",
        "from": "0x1351257000a92de941aeaebb758e44dd7c8b809f",
        "to": "0xc02aaa39b223fe8d0a0e5c4f27ead9083c756cc2",
        "gas": "0x9f9b",
        "value": "0x1b1ae4d6e2ef500000",
        "data": "0xd0e30db0",
        "nonce": "0x62",
        "accessList": []
      },
      "additionalContracts": [],
      "isFixedGasLimit": false
    },
    {
      "hash": "0xebde282879a7bb9629daf39b3fa8f948ee41013527b83b89e9a37d48dd3727da",
      "transactionType": "CALL",
      "contractName": "WETH9",
      "contractAddress": "0xC02aaA39b223FE8D0A0e5C4F27eAD9083C756Cc2",
      "function": "approve(address,uint256):(bool)",
      "arguments": [
        "0xE8C1A6F98aD9a8b356283f1D9740e25D812CE566",
        "115792089237316195423570985008687907853269984665640564039457584007913129639935"
      ],
      "transaction": {
        "type": "0x02",
        "from": "0x1351257000a92de941aeaebb758e44dd7c8b809f",
        "to": "0xc02aaa39b223fe8d0a0e5c4f27ead9083c756cc2",
        "gas": "0x8ec9",
        "value": "0x0",
        "data": "0x095ea7b3000000000000000000000000e8c1a6f98ad9a8b356283f1d9740e25d812ce566ffffffffffffffffffffffffffffffffffffffffffffffffffffffffffffffff",
        "nonce": "0x63",
        "accessList": []
      },
      "additionalContracts": [],
      "isFixedGasLimit": false
    },
    {
      "hash": "0x594cebfeb32c6125bc903f47c8f55432142943766004f7975496af9ee0209450",
      "transactionType": "CALL",
      "contractName": null,
      "contractAddress": "0xE8C1A6F98aD9a8b356283f1D9740e25D812CE566",
      "function": null,
      "arguments": null,
      "transaction": {
        "type": "0x02",
        "from": "0x1351257000a92de941aeaebb758e44dd7c8b809f",
        "to": "0xe8c1a6f98ad9a8b356283f1d9740e25d812ce566",
        "gas": "0x38d5c",
        "value": "0x0",
        "data": "0x7ca5643d0000000000000000000000005b73c5498c1e3b4dba84de0f1833c4a029d9051900000000000000000000000000000000000000000000001b1ae4d6e2ef50000000000000000000000000000000000000000000000000000000000000000000600000000000000000000000000000000000000000000000000000000000000000",
        "nonce": "0x64",
        "accessList": []
      },
      "additionalContracts": [],
      "isFixedGasLimit": false
    },
    {
      "hash": "0x080c3a18cbb32010990fc1bef59f3164c4fe63c41a4c563c80813e78de40adbe",
      "transactionType": "CALL",
      "contractName": null,
      "contractAddress": null,
      "function": null,
      "arguments": null,
      "transaction": {
        "type": "0x02",
        "from": "0x1351257000a92de941aeaebb758e44dd7c8b809f",
        "to": "0x7f39c581f595b53c5cb19bd0b3f8da6c935e2ca0",
        "gas": "0x25356",
        "value": "0x56bc75e2d63100000",
        "data": "0x",
        "nonce": "0x65",
        "accessList": []
      },
      "additionalContracts": [],
      "isFixedGasLimit": false
    },
    {
      "hash": "0x502ad98fb06ddce98819c950eddad09477f3bc191f439a243b84d2784fdcbbd1",
      "transactionType": "CALL",
      "contractName": "TransparentUpgradeableProxy",
      "contractAddress": "0xcf5EA1b38380f6aF39068375516Daf40Ed70D299",
      "function": "deposit(address):(uint256)",
      "arguments": [
        "0x1351257000A92De941aEAebB758e44DD7c8B809f"
      ],
      "transaction": {
        "type": "0x02",
        "from": "0x1351257000a92de941aeaebb758e44dd7c8b809f",
        "to": "0xcf5ea1b38380f6af39068375516daf40ed70d299",
        "gas": "0x293f7",
        "value": "0x56bc75e2d63100000",
        "data": "0xf340fa010000000000000000000000001351257000a92de941aeaebb758e44dd7c8b809f",
        "nonce": "0x66",
        "accessList": []
      },
      "additionalContracts": [],
      "isFixedGasLimit": false
    },
    {
      "hash": "0x2922c4eb15114a0c4a0ac6064bf26dd303e3456457ef6bd17155adf4ac4f3e73",
      "transactionType": "CALL",
      "contractName": "TransparentUpgradeableProxy",
      "contractAddress": "0xf951E335afb289353dc249e82926178EaC7DEd78",
      "function": "deposit()",
      "arguments": [],
      "transaction": {
        "type": "0x02",
        "from": "0x1351257000a92de941aeaebb758e44dd7c8b809f",
        "to": "0xf951e335afb289353dc249e82926178eac7ded78",
        "gas": "0x1e67e",
        "value": "0x56bc75e2d63100000",
        "data": "0xd0e30db0",
        "nonce": "0x67",
        "accessList": []
      },
      "additionalContracts": [],
      "isFixedGasLimit": false
    },
    {
      "hash": "0x643bab6bbf905be515d90ebd75c965d527b2862ba2c293a7c0e4026dafda6e32",
      "transactionType": "CALL",
      "contractName": "WstETH",
      "contractAddress": "0x7f39C581F595B53c5cb19bD0b3f8dA6c935E2Ca0",
      "function": "approve(address,uint256):(bool)",
      "arguments": [
        "0x7aB10847e0F2225cDfD1334450bE33B4f5F08c3F",
        "115792089237316195423570985008687907853269984665640564039457584007913129639935"
      ],
      "transaction": {
        "type": "0x02",
        "from": "0x1351257000a92de941aeaebb758e44dd7c8b809f",
        "to": "0x7f39c581f595b53c5cb19bd0b3f8da6c935e2ca0",
        "gas": "0x8fab",
        "value": "0x0",
        "data": "0x095ea7b30000000000000000000000007ab10847e0f2225cdfd1334450be33b4f5f08c3fffffffffffffffffffffffffffffffffffffffffffffffffffffffffffffffff",
        "nonce": "0x68",
        "accessList": []
      },
      "additionalContracts": [],
      "isFixedGasLimit": false
    },
    {
      "hash": "0xcb42d1c9c7fcf992b97cb07a43d23479e4a485562733c4d6e876e29174b11abb",
      "transactionType": "CALL",
      "contractName": "TransparentUpgradeableProxy",
      "contractAddress": "0xA35b1B31Ce002FBF2058D22F30f95D405200A15b",
      "function": "approve(address,uint256):(bool)",
      "arguments": [
        "0x7188A614a2d1AC434c5E1E6288cB65C554FA4600",
        "115792089237316195423570985008687907853269984665640564039457584007913129639935"
      ],
      "transaction": {
        "type": "0x02",
        "from": "0x1351257000a92de941aeaebb758e44dd7c8b809f",
        "to": "0xa35b1b31ce002fbf2058d22f30f95d405200a15b",
        "gas": "0xb6c6",
        "value": "0x0",
        "data": "0x095ea7b30000000000000000000000007188a614a2d1ac434c5e1e6288cb65c554fa4600ffffffffffffffffffffffffffffffffffffffffffffffffffffffffffffffff",
        "nonce": "0x69",
        "accessList": []
      },
      "additionalContracts": [],
      "isFixedGasLimit": false
    },
    {
      "hash": "0x1b517ddf1374fd1a778257aeb684a8473a053fea654362ca2469c95665f1ce62",
      "transactionType": "CALL",
      "contractName": "TransparentUpgradeableProxy",
      "contractAddress": "0xf951E335afb289353dc249e82926178EaC7DEd78",
      "function": "approve(address,uint256):(bool)",
      "arguments": [
        "0xE95462273d31D457Bdb2C182869aCdE5c7aE49d2",
        "115792089237316195423570985008687907853269984665640564039457584007913129639935"
      ],
      "transaction": {
        "type": "0x02",
        "from": "0x1351257000a92de941aeaebb758e44dd7c8b809f",
        "to": "0xf951e335afb289353dc249e82926178eac7ded78",
        "gas": "0xc29e",
        "value": "0x0",
        "data": "0x095ea7b3000000000000000000000000e95462273d31d457bdb2c182869acde5c7ae49d2ffffffffffffffffffffffffffffffffffffffffffffffffffffffffffffffff",
        "nonce": "0x6a",
        "accessList": []
      },
      "additionalContracts": [],
      "isFixedGasLimit": false
    },
    {
      "hash": "0xea32061f96b6cf4331cf7d6889b1a66229877cc6bd725a1b87044e96076add15",
      "transactionType": "CALL",
      "contractName": null,
      "contractAddress": "0xE8C1A6F98aD9a8b356283f1D9740e25D812CE566",
      "function": null,
      "arguments": null,
      "transaction": {
        "type": "0x02",
        "from": "0x1351257000a92de941aeaebb758e44dd7c8b809f",
        "to": "0xe8c1a6f98ad9a8b356283f1d9740e25d812ce566",
        "gas": "0xaf60",
        "value": "0x0",
        "data": "0x9870d7fe0000000000000000000000007ab10847e0f2225cdfd1334450be33b4f5f08c3f",
        "nonce": "0x6b",
        "accessList": []
      },
      "additionalContracts": [],
      "isFixedGasLimit": false
    },
    {
      "hash": "0xd2d355140bcb2c8527bf817af375ca73dfa05ad3a871cd708a1a3fc97237e6c6",
      "transactionType": "CALL",
      "contractName": null,
      "contractAddress": "0xE8C1A6F98aD9a8b356283f1D9740e25D812CE566",
      "function": null,
      "arguments": null,
      "transaction": {
        "type": "0x02",
        "from": "0x1351257000a92de941aeaebb758e44dd7c8b809f",
        "to": "0xe8c1a6f98ad9a8b356283f1d9740e25d812ce566",
        "gas": "0xa591",
        "value": "0x0",
        "data": "0x9870d7fe0000000000000000000000007188a614a2d1ac434c5e1e6288cb65c554fa4600",
        "nonce": "0x6c",
        "accessList": []
      },
      "additionalContracts": [],
      "isFixedGasLimit": false
    },
    {
      "hash": "0xf30a93aa1383af9513b7f3bf495b9a9f401fd40d9a116e0b21077c877c1cf9b4",
      "transactionType": "CALL",
      "contractName": null,
      "contractAddress": "0xE8C1A6F98aD9a8b356283f1D9740e25D812CE566",
      "function": null,
      "arguments": null,
      "transaction": {
        "type": "0x02",
        "from": "0x1351257000a92de941aeaebb758e44dd7c8b809f",
        "to": "0xe8c1a6f98ad9a8b356283f1d9740e25d812ce566",
        "gas": "0xaf60",
        "value": "0x0",
        "data": "0x9870d7fe000000000000000000000000e95462273d31d457bdb2c182869acde5c7ae49d2",
        "nonce": "0x6d",
        "accessList": []
      },
      "additionalContracts": [],
      "isFixedGasLimit": false
    },
    {
      "hash": "0x7000bc0023da209b283283309ae5cb6df2b8201dab8427cc95c5860f41364d23",
      "transactionType": "CALL",
      "contractName": null,
      "contractAddress": "0x7aB10847e0F2225cDfD1334450bE33B4f5F08c3F",
      "function": null,
      "arguments": null,
      "transaction": {
        "type": "0x02",
        "from": "0x1351257000a92de941aeaebb758e44dd7c8b809f",
        "to": "0x7ab10847e0f2225cdfd1334450be33b4f5f08c3f",
        "gas": "0xafd97",
        "value": "0x0",
        "data": "0xf978b2a50000000000000000000000000000000000000000000000000de0b6b3a764000000000000000000000000000000000000000000000000000029a2241af62c00000000000000000000000000000000000000000000000000001fe36ec8bd166e94",
        "nonce": "0x6e",
        "accessList": []
      },
      "additionalContracts": [],
      "isFixedGasLimit": false
    },
    {
      "hash": "0x8f3a92b9e63e38806bbabdb4574b2874fc5c6c70876b1355efa52972f6f193c3",
      "transactionType": "CALL",
      "contractName": null,
      "contractAddress": "0x7aB10847e0F2225cDfD1334450bE33B4f5F08c3F",
      "function": null,
      "arguments": null,
      "transaction": {
        "type": "0x02",
        "from": "0x1351257000a92de941aeaebb758e44dd7c8b809f",
        "to": "0x7ab10847e0f2225cdfd1334450be33b4f5f08c3f",
        "gas": "0x91a49",
        "value": "0x0",
        "data": "0x1c8f66230000000000000000000000000000000000000000000000000de0b6b3a764000000000000000000000000000000000000000000000000000029a2241af62c00000000000000000000000000000000000000000000000000001fe36ec8bd166e94",
        "nonce": "0x6f",
        "accessList": []
      },
      "additionalContracts": [],
      "isFixedGasLimit": false
    },
    {
      "hash": "0xe808e2417de1ebfe4c197974c6b0173145385b66fee384f86ba094f1ff905bd9",
      "transactionType": "CALL",
      "contractName": null,
      "contractAddress": "0x7aB10847e0F2225cDfD1334450bE33B4f5F08c3F",
      "function": null,
      "arguments": null,
      "transaction": {
        "type": "0x02",
        "from": "0x1351257000a92de941aeaebb758e44dd7c8b809f",
        "to": "0x7ab10847e0f2225cdfd1334450be33b4f5f08c3f",
        "gas": "0x6ed90",
        "value": "0x0",
        "data": "0xd151581f0000000000000000000000000000000000000000000000000de0b6b3a764000000000000000000000000000000000000000000000000000029a2241af62c0000ffffffffffffffffffffffffffffffffffffffffffffffffffffffffffffffff0000000000000000000000000000000000000000000000000000000000000000",
        "nonce": "0x70",
        "accessList": []
      },
      "additionalContracts": [],
      "isFixedGasLimit": false
    },
    {
      "hash": "0xcbdb785de017abb91138d0a1ea01ee12af24d3beb49bb54d73e54225f17bae43",
      "transactionType": "CALL",
      "contractName": null,
      "contractAddress": "0x7188A614a2d1AC434c5E1E6288cB65C554FA4600",
      "function": null,
      "arguments": null,
      "transaction": {
        "type": "0x02",
        "from": "0x1351257000a92de941aeaebb758e44dd7c8b809f",
        "to": "0x7188a614a2d1ac434c5e1e6288cb65c554fa4600",
        "gas": "0xad9fd",
        "value": "0x0",
        "data": "0xf978b2a50000000000000000000000000000000000000000000000000de0b6b3a764000000000000000000000000000000000000000000000000000029a2241af62c00000000000000000000000000000000000000000000000000001c2d15c49b62459e",
        "nonce": "0x71",
        "accessList": []
      },
      "additionalContracts": [],
      "isFixedGasLimit": false
    },
    {
      "hash": "0x5a488417e70052d17b70c85ce1e7b6e0d78469100f37bab6c0602e3ebc629956",
      "transactionType": "CALL",
      "contractName": null,
      "contractAddress": "0x7188A614a2d1AC434c5E1E6288cB65C554FA4600",
      "function": null,
      "arguments": null,
      "transaction": {
        "type": "0x02",
        "from": "0x1351257000a92de941aeaebb758e44dd7c8b809f",
        "to": "0x7188a614a2d1ac434c5e1e6288cb65c554fa4600",
        "gas": "0x9de34",
        "value": "0x0",
        "data": "0x1c8f66230000000000000000000000000000000000000000000000000de0b6b3a764000000000000000000000000000000000000000000000000000029a2241af62c00000000000000000000000000000000000000000000000000001c2d15c49b62459e",
        "nonce": "0x72",
        "accessList": []
      },
      "additionalContracts": [],
      "isFixedGasLimit": false
    },
    {
      "hash": "0x1f6cc57aca2957c2db2720bea262feb2031a5fd0c0f4c8108a83ac86aeee4338",
      "transactionType": "CALL",
      "contractName": null,
      "contractAddress": "0x7188A614a2d1AC434c5E1E6288cB65C554FA4600",
      "function": null,
      "arguments": null,
      "transaction": {
        "type": "0x02",
        "from": "0x1351257000a92de941aeaebb758e44dd7c8b809f",
        "to": "0x7188a614a2d1ac434c5e1e6288cb65c554fa4600",
        "gas": "0xd4cce",
        "value": "0x0",
        "data": "0x3d2a4f560000000000000000000000000000000000000000000000000de0b6b3a764000000000000000000000000000000000000000000000000000029a2241af62c0000ffffffffffffffffffffffffffffffffffffffffffffffffffffffffffffffff",
        "nonce": "0x73",
        "accessList": []
      },
      "additionalContracts": [],
      "isFixedGasLimit": false
    },
    {
      "hash": "0x6b2f9d1f6dd3d09ecfa4c5ad83d19bad43a44b215b1736f5fddb120f46f1691f",
      "transactionType": "CALL",
      "contractName": null,
      "contractAddress": "0xE95462273d31D457Bdb2C182869aCdE5c7aE49d2",
      "function": null,
      "arguments": null,
      "transaction": {
        "type": "0x02",
        "from": "0x1351257000a92de941aeaebb758e44dd7c8b809f",
        "to": "0xe95462273d31d457bdb2c182869acde5c7ae49d2",
        "gas": "0x8f0c1",
        "value": "0x0",
        "data": "0xf978b2a50000000000000000000000000000000000000000000000000de0b6b3a764000000000000000000000000000000000000000000000000000029a2241af62c00000000000000000000000000000000000000000000000000001cfbbc2dc0ad11ff",
        "nonce": "0x74",
        "accessList": []
      },
      "additionalContracts": [],
      "isFixedGasLimit": false
    },
    {
      "hash": "0xf9d93cdee30a1662e52983364e98966d787f40443d6e8acf617faf600abfa44b",
      "transactionType": "CALL",
      "contractName": null,
      "contractAddress": "0xE95462273d31D457Bdb2C182869aCdE5c7aE49d2",
      "function": null,
      "arguments": null,
      "transaction": {
        "type": "0x02",
        "from": "0x1351257000a92de941aeaebb758e44dd7c8b809f",
        "to": "0xe95462273d31d457bdb2c182869acde5c7ae49d2",
        "gas": "0x82c23",
        "value": "0x0",
        "data": "0x1c8f66230000000000000000000000000000000000000000000000000de0b6b3a764000000000000000000000000000000000000000000000000000029a2241af62c00000000000000000000000000000000000000000000000000001cfbbc2dc0ad11ff",
        "nonce": "0x75",
        "accessList": []
      },
      "additionalContracts": [],
      "isFixedGasLimit": false
    },
    {
      "hash": "0x290a65e4de6e32108f07cfe7e65f5298412e98d83fb687e60d39dc7f62380b8a",
      "transactionType": "CALL",
      "contractName": null,
      "contractAddress": "0xE95462273d31D457Bdb2C182869aCdE5c7aE49d2",
      "function": null,
      "arguments": null,
      "transaction": {
        "type": "0x02",
        "from": "0x1351257000a92de941aeaebb758e44dd7c8b809f",
        "to": "0xe95462273d31d457bdb2c182869acde5c7ae49d2",
        "gas": "0x6e46c",
        "value": "0x0",
        "data": "0xd151581f0000000000000000000000000000000000000000000000000de0b6b3a764000000000000000000000000000000000000000000000000000029a2241af62c0000ffffffffffffffffffffffffffffffffffffffffffffffffffffffffffffffff0000000000000000000000000000000000000000000000000000000000000000",
        "nonce": "0x76",
        "accessList": []
      },
      "additionalContracts": [],
      "isFixedGasLimit": false
    },
    {
      "hash": "0xd0539710c2780bc0a494ba2b3f3ab2e6664c15f3c9e116f8b77d605899d9e8b9",
      "transactionType": "CALL",
      "contractName": null,
      "contractAddress": "0x7aB10847e0F2225cDfD1334450bE33B4f5F08c3F",
      "function": null,
      "arguments": null,
      "transaction": {
        "type": "0x02",
        "from": "0x1351257000a92de941aeaebb758e44dd7c8b809f",
        "to": "0x7ab10847e0f2225cdfd1334450be33b4f5f08c3f",
        "gas": "0x61f0c",
        "value": "0x0",
        "data": "0x89ee90f50000000000000000000000000000000000000000000000000de0b6b3a764000000000000000000000000000000000000000000000000000006f05b59d3b200000000000000000000000000000000000000000000000000000000000000000000",
        "nonce": "0x77",
        "accessList": []
      },
      "additionalContracts": [],
      "isFixedGasLimit": false
    },
    {
      "hash": "0x76004854438ec0e7d5fc178ec162b548486aa612b944a49e0fc42f4c4ce8902a",
      "transactionType": "CALL",
      "contractName": null,
      "contractAddress": "0x7188A614a2d1AC434c5E1E6288cB65C554FA4600",
      "function": null,
      "arguments": null,
      "transaction": {
        "type": "0x02",
        "from": "0x1351257000a92de941aeaebb758e44dd7c8b809f",
        "to": "0x7188a614a2d1ac434c5e1e6288cb65c554fa4600",
        "gas": "0xa1a12",
        "value": "0x0",
        "data": "0x934f73a40000000000000000000000000000000000000000000000000de0b6b3a764000000000000000000000000000000000000000000000000000006f05b59d3b20000",
        "nonce": "0x78",
        "accessList": []
      },
      "additionalContracts": [],
      "isFixedGasLimit": false
    },
    {
      "hash": "0x97620cb61f7ae95a5d20b16f20963b7224c0a7b535b5132ea714754fcc49f95e",
      "transactionType": "CALL",
      "contractName": null,
      "contractAddress": "0xE95462273d31D457Bdb2C182869aCdE5c7aE49d2",
      "function": null,
      "arguments": null,
      "transaction": {
        "type": "0x02",
        "from": "0x1351257000a92de941aeaebb758e44dd7c8b809f",
        "to": "0xe95462273d31d457bdb2c182869acde5c7ae49d2",
        "gas": "0x5e469",
        "value": "0x0",
        "data": "0x89ee90f50000000000000000000000000000000000000000000000000de0b6b3a764000000000000000000000000000000000000000000000000000006f05b59d3b200000000000000000000000000000000000000000000000000000000000000000000",
        "nonce": "0x79",
        "accessList": []
      },
      "additionalContracts": [],
      "isFixedGasLimit": false
    }
  ],
  "receipts": [
    {
      "transactionHash": "0x080c3a18cbb32010990fc1bef59f3164c4fe63c41a4c563c80813e78de40adbe",
      "transactionIndex": "0x0",
      "blockHash": "0x3eb312c3b6459f503234a9bf30036b70641aca3a2d265494029daf3f561edb06",
      "blockNumber": "0x11d38e3",
      "from": "0x1351257000A92De941aEAebB758e44DD7c8B809f",
      "to": "0x7f39C581F595B53c5cb19bD0b3f8dA6c935E2Ca0",
      "cumulativeGasUsed": "0x19712",
      "gasUsed": "0x19712",
      "contractAddress": null,
      "logs": [
        {
          "address": "0xae7ab96520DE3A18E5e111B5EaAb095312D7fE84",
          "topics": [
            "0x96a25c8ce0baabc1fdefd93e9ed25d8e092a3332f3aa9a41722b5697231d1d1a",
            "0x0000000000000000000000007f39c581f595b53c5cb19bd0b3f8da6c935e2ca0"
          ],
          "data": "0x0000000000000000000000000000000000000000000000056bc75e2d631000000000000000000000000000000000000000000000000000000000000000000000",
          "blockHash": "0x3eb312c3b6459f503234a9bf30036b70641aca3a2d265494029daf3f561edb06",
          "blockNumber": "0x11d38e3",
          "transactionHash": "0x080c3a18cbb32010990fc1bef59f3164c4fe63c41a4c563c80813e78de40adbe",
          "transactionIndex": "0x0",
          "logIndex": "0x0",
          "removed": false
        },
        {
          "address": "0xae7ab96520DE3A18E5e111B5EaAb095312D7fE84",
          "topics": [
            "0xddf252ad1be2c89b69c2b068fc378daa952ba7f163c4a11628f55a4df523b3ef",
            "0x0000000000000000000000000000000000000000000000000000000000000000",
            "0x0000000000000000000000007f39c581f595b53c5cb19bd0b3f8da6c935e2ca0"
          ],
          "data": "0x0000000000000000000000000000000000000000000000056bc75e2d630fffff",
          "blockHash": "0x3eb312c3b6459f503234a9bf30036b70641aca3a2d265494029daf3f561edb06",
          "blockNumber": "0x11d38e3",
          "transactionHash": "0x080c3a18cbb32010990fc1bef59f3164c4fe63c41a4c563c80813e78de40adbe",
          "transactionIndex": "0x0",
          "logIndex": "0x1",
          "removed": false
        },
        {
          "address": "0xae7ab96520DE3A18E5e111B5EaAb095312D7fE84",
          "topics": [
            "0x9d9c909296d9c674451c0c24f02cb64981eb3b727f99865939192f880a755dcb",
            "0x0000000000000000000000000000000000000000000000000000000000000000",
            "0x0000000000000000000000007f39c581f595b53c5cb19bd0b3f8da6c935e2ca0"
          ],
          "data": "0x000000000000000000000000000000000000000000000004b7eb21caa4c24fb2",
          "blockHash": "0x3eb312c3b6459f503234a9bf30036b70641aca3a2d265494029daf3f561edb06",
          "blockNumber": "0x11d38e3",
          "transactionHash": "0x080c3a18cbb32010990fc1bef59f3164c4fe63c41a4c563c80813e78de40adbe",
          "transactionIndex": "0x0",
          "logIndex": "0x2",
          "removed": false
        },
        {
          "address": "0x7f39C581F595B53c5cb19bD0b3f8dA6c935E2Ca0",
          "topics": [
            "0xddf252ad1be2c89b69c2b068fc378daa952ba7f163c4a11628f55a4df523b3ef",
            "0x0000000000000000000000000000000000000000000000000000000000000000",
            "0x0000000000000000000000001351257000a92de941aeaebb758e44dd7c8b809f"
          ],
          "data": "0x000000000000000000000000000000000000000000000004b7eb21caa4c24fb2",
          "blockHash": "0x3eb312c3b6459f503234a9bf30036b70641aca3a2d265494029daf3f561edb06",
          "blockNumber": "0x11d38e3",
          "transactionHash": "0x080c3a18cbb32010990fc1bef59f3164c4fe63c41a4c563c80813e78de40adbe",
          "transactionIndex": "0x0",
          "logIndex": "0x3",
          "removed": false
        }
      ],
      "status": "0x1",
      "logsBloom": "0x00000100000000000000000000000000000000000000000000000000000000000000000400000000000000000000000000000000000000000004000000000000000200000000000000000008000000000000000000000000000000000000002000000000120000000000008000200800000000000000000000000010000000000000000000000000000080000000000000000000000000800000000000002000000000000000000000000000000200000000000000000000000000000000000000000002000000100000000000000080000000000080000000000000000020000000000000000000000000008000000000000000024000000000000000000000",
      "type": "0x2",
      "effectiveGasPrice": "0xfd70dd559"
    },
    {
      "transactionHash": "0xdf45cba4ae8e4ae248b94e24358475ebe42cd41c791fa0ad2c6dab8eed38134c",
      "transactionIndex": "0x0",
      "blockHash": "0x41d102afba6854a7db9ea931a59438fbbe70d34bb07735aa8006c3b8e249e91e",
      "blockNumber": "0x11d38e4",
      "from": "0x1351257000A92De941aEAebB758e44DD7c8B809f",
      "to": "0x30eA22C879628514f1494d4BBFEF79D21A6B49A2",
      "cumulativeGasUsed": "0x6091",
      "gasUsed": "0x6091",
      "contractAddress": null,
      "logs": [],
      "status": "0x1",
      "logsBloom": "0x00000000000000000000000000000000000000000000000000000000000000000000000000000000000000000000000000000000000000000000000000000000000000000000000000000000000000000000000000000000000000000000000000000000000000000000000000000000000000000000000000000000000000000000000000000000000000000000000000000000000000000000000000000000000000000000000000000000000000000000000000000000000000000000000000000000000000000000000000000000000000000000000000000000000000000000000000000000000000000000000000000000000000000000000000000000",
      "type": "0x2",
      "effectiveGasPrice": "0xfd70dd559"
    },
    {
      "transactionHash": "0xebde282879a7bb9629daf39b3fa8f948ee41013527b83b89e9a37d48dd3727da",
      "transactionIndex": "0x0",
      "blockHash": "0x7ef3e0c49f011724104c78b68956d44bdb202c89aec2a13c118bc43664a3b31b",
      "blockNumber": "0x11d38e5",
      "from": "0x1351257000A92De941aEAebB758e44DD7c8B809f",
      "to": "0xC02aaA39b223FE8D0A0e5C4F27eAD9083C756Cc2",
      "cumulativeGasUsed": "0x6760",
      "gasUsed": "0x6760",
      "contractAddress": null,
      "logs": [
        {
          "address": "0xC02aaA39b223FE8D0A0e5C4F27eAD9083C756Cc2",
          "topics": [
            "0x8c5be1e5ebec7d5bd14f71427d1e84f3dd0314c0f7b2291e5b200ac8c7c3b925",
            "0x0000000000000000000000001351257000a92de941aeaebb758e44dd7c8b809f",
            "0x000000000000000000000000e8c1a6f98ad9a8b356283f1d9740e25d812ce566"
          ],
          "data": "0xffffffffffffffffffffffffffffffffffffffffffffffffffffffffffffffff",
          "blockHash": "0x7ef3e0c49f011724104c78b68956d44bdb202c89aec2a13c118bc43664a3b31b",
          "blockNumber": "0x11d38e5",
          "transactionHash": "0xebde282879a7bb9629daf39b3fa8f948ee41013527b83b89e9a37d48dd3727da",
          "transactionIndex": "0x0",
          "logIndex": "0x0",
          "removed": false
        }
      ],
      "status": "0x1",
      "logsBloom": "0x00000000000000000000010000000000000000000000000000000000000000000000000400000000000000000000000002000000080000000004000000200000000000000000000000000000000000000000008000000000000000000000000000000000100000000000000000000000100000000000000000000000000000000000000000000000000000000000000000000000000000000000000000000000020000000000000000000000000000000000000000000000000000000000000000000000000000000000000000000000000000000000000000000000000000000010200000000000000000000000000000000000000000000000000000000000",
      "type": "0x2",
      "effectiveGasPrice": "0xfd70dd559"
    },
    {
      "transactionHash": "0x502ad98fb06ddce98819c950eddad09477f3bc191f439a243b84d2784fdcbbd1",
      "transactionIndex": "0x0",
      "blockHash": "0xc8a49eba8baac3eb4c60b9d309148c35268fcf0d68568e48ae43a0649f8775f3",
      "blockNumber": "0x11d38e6",
      "from": "0x1351257000A92De941aEAebB758e44DD7c8B809f",
      "to": "0xcf5EA1b38380f6aF39068375516Daf40Ed70D299",
      "cumulativeGasUsed": "0x1c343",
      "gasUsed": "0x1c343",
      "contractAddress": null,
      "logs": [
        {
          "address": "0xA35b1B31Ce002FBF2058D22F30f95D405200A15b",
          "topics": [
            "0xddf252ad1be2c89b69c2b068fc378daa952ba7f163c4a11628f55a4df523b3ef",
            "0x0000000000000000000000000000000000000000000000000000000000000000",
            "0x0000000000000000000000001351257000a92de941aeaebb758e44dd7c8b809f"
          ],
          "data": "0x0000000000000000000000000000000000000000000000055710d354d3bc3a9f",
          "blockHash": "0xc8a49eba8baac3eb4c60b9d309148c35268fcf0d68568e48ae43a0649f8775f3",
          "blockNumber": "0x11d38e6",
          "transactionHash": "0x502ad98fb06ddce98819c950eddad09477f3bc191f439a243b84d2784fdcbbd1",
          "transactionIndex": "0x0",
          "logIndex": "0x0",
          "removed": false
        },
        {
          "address": "0xcf5EA1b38380f6aF39068375516Daf40Ed70D299",
          "topics": [
            "0xf5681f9d0db1b911ac18ee83d515a1cf1051853a9eae418316a2fdf7dea427c5",
            "0x0000000000000000000000001351257000a92de941aeaebb758e44dd7c8b809f",
            "0x0000000000000000000000001351257000a92de941aeaebb758e44dd7c8b809f"
          ],
          "data": "0x0000000000000000000000000000000000000000000000056bc75e2d631000000000000000000000000000000000000000000000000000055710d354d3bc3a9f",
          "blockHash": "0xc8a49eba8baac3eb4c60b9d309148c35268fcf0d68568e48ae43a0649f8775f3",
          "blockNumber": "0x11d38e6",
          "transactionHash": "0x502ad98fb06ddce98819c950eddad09477f3bc191f439a243b84d2784fdcbbd1",
          "transactionIndex": "0x0",
          "logIndex": "0x1",
          "removed": false
        }
      ],
      "status": "0x1",
      "logsBloom": "0x00000000000000000000000000000000000000000000000000000000000000000000000400000000000000040000000000000000000000000004000000800000000000800000000000000008000000000000000000000000000000000000000000000000120000000000000000000800000000000000100000000010000000000000000000000000000000080000000000000000000000000000000000000000000000000100000000000000000000000000000000000000000000000000000000000002000000000000000000000010000000000000000002000000000020000000000001000000000000000000000000000000000000000000000000000000",
      "type": "0x2",
      "effectiveGasPrice": "0xfd70dd559"
    },
    {
      "transactionHash": "0xb0e573de8f8e4fba074c3e89f720f29025ac891ac3796a2daec482a57a5f4dcd",
      "transactionIndex": "0x0",
      "blockHash": "0x7509ecd2a13160694c7f7d4a61c99f334b441738bd4cfe87cc7611217e23d1ee",
      "blockNumber": "0x11d38e7",
      "from": "0x1351257000A92De941aEAebB758e44DD7c8B809f",
      "to": "0xC02aaA39b223FE8D0A0e5C4F27eAD9083C756Cc2",
      "cumulativeGasUsed": "0x6d22",
      "gasUsed": "0x6d22",
      "contractAddress": null,
      "logs": [
        {
          "address": "0xC02aaA39b223FE8D0A0e5C4F27eAD9083C756Cc2",
          "topics": [
            "0xe1fffcc4923d04b559f4d29a8bfc6cda04eb5b0d3c460751c2402c5c5cc9109c",
            "0x0000000000000000000000001351257000a92de941aeaebb758e44dd7c8b809f"
          ],
          "data": "0x00000000000000000000000000000000000000000000001b1ae4d6e2ef500000",
          "blockHash": "0x7509ecd2a13160694c7f7d4a61c99f334b441738bd4cfe87cc7611217e23d1ee",
          "blockNumber": "0x11d38e7",
          "transactionHash": "0xb0e573de8f8e4fba074c3e89f720f29025ac891ac3796a2daec482a57a5f4dcd",
          "transactionIndex": "0x0",
          "logIndex": "0x0",
          "removed": false
        }
      ],
      "status": "0x1",
      "logsBloom": "0x00000000000000000000000000000000000000000000000000000000000000000000000400000000000000000000000002000000080000000004000000000000000000000000000000000000000000000000000000000000000000008000000000000000100000000000000000000000000000000000000000000000000000000000000000000000000000000000000000000001000000000000000000000000000000000000000000000000000000000000000000000000000000000000000000000000000000000000000000000000000000000000000000000000000000000000200000000000000000000000000000000000000000400000000000000000",
      "type": "0x2",
      "effectiveGasPrice": "0xfd70dd559"
    },
    {
      "transactionHash": "0x39aab89dfa5ba3ced02992a9adafbd2804276483e7f5af09d7490847df4f0d9a",
      "transactionIndex": "0x0",
      "blockHash": "0x8b0061b53a803f24ca7ec4ddccde21559eeeb876f7c82c67c9ed491a7612156d",
      "blockNumber": "0x11d38e8",
      "from": "0x1351257000A92De941aEAebB758e44DD7c8B809f",
      "to": "0xE8C1A6F98aD9a8b356283f1D9740e25D812CE566",
      "cumulativeGasUsed": "0x7e36",
      "gasUsed": "0x7e36",
      "contractAddress": null,
      "logs": [
        {
          "address": "0xE8C1A6F98aD9a8b356283f1D9740e25D812CE566",
          "topics": [
            "0x4e44c8be34d12f1b7f56b13b4bbe97e64ca37a91916f86c73412da80c21748e2"
          ],
          "data": "0x00000000000000000000000000000000000000000000003635c9adc5dea00000",
          "blockHash": "0x8b0061b53a803f24ca7ec4ddccde21559eeeb876f7c82c67c9ed491a7612156d",
          "blockNumber": "0x11d38e8",
          "transactionHash": "0x39aab89dfa5ba3ced02992a9adafbd2804276483e7f5af09d7490847df4f0d9a",
          "transactionIndex": "0x0",
          "logIndex": "0x0",
          "removed": false
        }
      ],
      "status": "0x1",
      "logsBloom": "0x04000000000000000000000000000000000000000000000000200000000000000000000000000000000000000000000000000000000000000000000000000000000000000000000000001000000000000000000000000000000000000000000000000000000000000000000000000000001000000000000000000000000000000000000000000001000000000000000000000000000000000000000000000000000000000000000000000000000000000000000000000000000000000000000000000000000000000000000000000000000000000000000000000000000000000000000000000000000000000000000000000000200000000000000000000000",
      "type": "0x2",
      "effectiveGasPrice": "0xfd70dd559"
    },
    {
      "transactionHash": "0x2922c4eb15114a0c4a0ac6064bf26dd303e3456457ef6bd17155adf4ac4f3e73",
      "transactionIndex": "0x0",
      "blockHash": "0x688e489ff8ec959ddf3203e4690e5c3e6e34ed7d4580c2c8d3139244dbf83f45",
      "blockNumber": "0x11d38e9",
      "from": "0x1351257000A92De941aEAebB758e44DD7c8B809f",
      "to": "0xf951E335afb289353dc249e82926178EaC7DEd78",
      "cumulativeGasUsed": "0x16037",
      "gasUsed": "0x16037",
      "contractAddress": null,
      "logs": [
        {
          "address": "0xf951E335afb289353dc249e82926178EaC7DEd78",
          "topics": [
            "0xddf252ad1be2c89b69c2b068fc378daa952ba7f163c4a11628f55a4df523b3ef",
            "0x0000000000000000000000000000000000000000000000000000000000000000",
            "0x0000000000000000000000001351257000a92de941aeaebb758e44dd7c8b809f"
          ],
          "data": "0x00000000000000000000000000000000000000000000000530fdb3c59f481a10",
          "blockHash": "0x688e489ff8ec959ddf3203e4690e5c3e6e34ed7d4580c2c8d3139244dbf83f45",
          "blockNumber": "0x11d38e9",
          "transactionHash": "0x2922c4eb15114a0c4a0ac6064bf26dd303e3456457ef6bd17155adf4ac4f3e73",
          "transactionIndex": "0x0",
          "logIndex": "0x0",
          "removed": false
        },
        {
          "address": "0xb3D9cf8E163bbc840195a97E81F8A34E295B8f39",
          "topics": [
            "0xbfe611b001dfcd411432f7bf0d79b82b4b2ee81511edac123a3403c357fb972a",
            "0x000000000000000000000000f951e335afb289353dc249e82926178eac7ded78"
          ],
          "data": "0x0000000000000000000000000000000000000000000000056bc75e2d63100000",
          "blockHash": "0x688e489ff8ec959ddf3203e4690e5c3e6e34ed7d4580c2c8d3139244dbf83f45",
          "blockNumber": "0x11d38e9",
          "transactionHash": "0x2922c4eb15114a0c4a0ac6064bf26dd303e3456457ef6bd17155adf4ac4f3e73",
          "transactionIndex": "0x0",
          "logIndex": "0x1",
          "removed": false
        },
        {
          "address": "0xf951E335afb289353dc249e82926178EaC7DEd78",
          "topics": [
            "0xe28a9e1df63912c0c77b586c53595df741cbbc554d6831e40f1b5453199a9630",
            "0x0000000000000000000000001351257000a92de941aeaebb758e44dd7c8b809f",
            "0x0000000000000000000000000000000000000000000000000000000000000000"
          ],
          "data": "0x0000000000000000000000000000000000000000000000056bc75e2d6310000000000000000000000000000000000000000000000000000530fdb3c59f481a10000000000000000000000000000000000000000000000a6ba31d13b0f3d817e3",
          "blockHash": "0x688e489ff8ec959ddf3203e4690e5c3e6e34ed7d4580c2c8d3139244dbf83f45",
          "blockNumber": "0x11d38e9",
          "transactionHash": "0x2922c4eb15114a0c4a0ac6064bf26dd303e3456457ef6bd17155adf4ac4f3e73",
          "transactionIndex": "0x0",
          "logIndex": "0x2",
          "removed": false
        }
      ],
      "status": "0x1",
      "logsBloom": "0x00000000000000000008000000008000000000000000000000000000000000000000000400000000400000000000000000000000000000000004000000000000000000000000000000000008000000000000100000000000400000000000000000004000120000000000000000000800000000000000000000000010000000000000000000000000000000000800000000000000000000000000000000000000000000000000000000000000000000000000000000000000000000000000000000800002000000400000000000000000000020000000000000000000000060000000000000000000000000000000000000000010100000000000000040000000",
      "type": "0x2",
      "effectiveGasPrice": "0xfd70dd559"
    },
    {
      "transactionHash": "0x1b517ddf1374fd1a778257aeb684a8473a053fea654362ca2469c95665f1ce62",
      "transactionIndex": "0x0",
      "blockHash": "0xc72c11a0c4c58e2d72c57ddb5660fb0051dc2008852d99d34a542b1a52695a02",
      "blockNumber": "0x11d38ea",
      "from": "0x1351257000A92De941aEAebB758e44DD7c8B809f",
      "to": "0xf951E335afb289353dc249e82926178EaC7DEd78",
      "cumulativeGasUsed": "0x8513",
      "gasUsed": "0x8513",
      "contractAddress": null,
      "logs": [
        {
          "address": "0xf951E335afb289353dc249e82926178EaC7DEd78",
          "topics": [
            "0x8c5be1e5ebec7d5bd14f71427d1e84f3dd0314c0f7b2291e5b200ac8c7c3b925",
            "0x0000000000000000000000001351257000a92de941aeaebb758e44dd7c8b809f",
            "0x000000000000000000000000e95462273d31d457bdb2c182869acde5c7ae49d2"
          ],
          "data": "0xffffffffffffffffffffffffffffffffffffffffffffffffffffffffffffffff",
          "blockHash": "0xc72c11a0c4c58e2d72c57ddb5660fb0051dc2008852d99d34a542b1a52695a02",
          "blockNumber": "0x11d38ea",
          "transactionHash": "0x1b517ddf1374fd1a778257aeb684a8473a053fea654362ca2469c95665f1ce62",
          "transactionIndex": "0x0",
          "logIndex": "0x0",
          "removed": false
        }
      ],
      "status": "0x1",
      "logsBloom": "0x00000000000000000000000000000000000000000000000000000000000000000000000400000004000000000000000000000000000000000004000000200000000000000000000000100000000000000000000000000000000000000000000000004000100000000000000000000000000000000000000000000000000000000000000000000000000000000000000000000000000000000000000000000000020000000000000000000000000000000000000000000000000000000000000000800000000000000000000000000000000000000000000000000000000000000010000000000000000000000000000000000000000000000000000040000000",
      "type": "0x2",
      "effectiveGasPrice": "0xfd70dd559"
    },
    {
      "transactionHash": "0x594cebfeb32c6125bc903f47c8f55432142943766004f7975496af9ee0209450",
      "transactionIndex": "0x0",
      "blockHash": "0x6cf248118f6fde7ca0a0ccf54f6a1bc0e31a2817d88c2313a0e7327be54036c2",
      "blockNumber": "0x11d38eb",
      "from": "0x1351257000A92De941aEAebB758e44DD7c8B809f",
      "to": "0xE8C1A6F98aD9a8b356283f1D9740e25D812CE566",
      "cumulativeGasUsed": "0x2925d",
      "gasUsed": "0x2925d",
      "contractAddress": null,
      "logs": [
        {
          "address": "0xC02aaA39b223FE8D0A0e5C4F27eAD9083C756Cc2",
          "topics": [
            "0xddf252ad1be2c89b69c2b068fc378daa952ba7f163c4a11628f55a4df523b3ef",
            "0x0000000000000000000000001351257000a92de941aeaebb758e44dd7c8b809f",
            "0x000000000000000000000000e8c1a6f98ad9a8b356283f1d9740e25d812ce566"
          ],
          "data": "0x00000000000000000000000000000000000000000000001b1ae4d6e2ef500000",
          "blockHash": "0x6cf248118f6fde7ca0a0ccf54f6a1bc0e31a2817d88c2313a0e7327be54036c2",
          "blockNumber": "0x11d38eb",
          "transactionHash": "0x594cebfeb32c6125bc903f47c8f55432142943766004f7975496af9ee0209450",
          "transactionIndex": "0x0",
          "logIndex": "0x0",
          "removed": false
        },
        {
          "address": "0xE8C1A6F98aD9a8b356283f1D9740e25D812CE566",
          "topics": [
            "0xddf252ad1be2c89b69c2b068fc378daa952ba7f163c4a11628f55a4df523b3ef",
            "0x0000000000000000000000000000000000000000000000000000000000000000",
            "0x0000000000000000000000005b73c5498c1e3b4dba84de0f1833c4a029d90519"
          ],
          "data": "0x00000000000000000000000000000000000000000000001b1ae4d6e2ef500000",
          "blockHash": "0x6cf248118f6fde7ca0a0ccf54f6a1bc0e31a2817d88c2313a0e7327be54036c2",
          "blockNumber": "0x11d38eb",
          "transactionHash": "0x594cebfeb32c6125bc903f47c8f55432142943766004f7975496af9ee0209450",
          "transactionIndex": "0x0",
          "logIndex": "0x1",
          "removed": false
        },
        {
          "address": "0xE8C1A6F98aD9a8b356283f1D9740e25D812CE566",
          "topics": [
            "0xeeb36d8164983f8a9f179702390cae566b9dfbea2d9df6344a56dbbccb428cf4",
            "0x0000000000000000000000005b73c5498c1e3b4dba84de0f1833c4a029d90519",
            "0x0000000000000000000000001351257000a92de941aeaebb758e44dd7c8b809f"
          ],
          "data": "0x00000000000000000000000000000000000000000000001b1ae4d6e2ef5000000000000000000000000000000000000000000000033b2e3c9fd0803ce80000000000000000000000000000000000000000000000000000000000000000000000",
          "blockHash": "0x6cf248118f6fde7ca0a0ccf54f6a1bc0e31a2817d88c2313a0e7327be54036c2",
          "blockNumber": "0x11d38eb",
          "transactionHash": "0x594cebfeb32c6125bc903f47c8f55432142943766004f7975496af9ee0209450",
          "transactionIndex": "0x0",
          "logIndex": "0x2",
          "removed": false
        }
      ],
      "status": "0x1",
      "logsBloom": "0x04004000000000000000010000000000000000000000000000200000000000000000000400000000000000000000000002000000080000000004000000000000000000000000000000001008000000000000008000000000000000000000000000000000120000000000000000000800108000000000000000000010000000000000000000000000000000000000000000000000000000000000000000000000000000000000000000000002000000000000000000000000000000000000000000000002000000000000000000800000000000000000000000400000000020000000200000000000000000000000000000000000000000000000000000000200",
      "type": "0x2",
      "effectiveGasPrice": "0xfd70dd559"
    },
    {
      "transactionHash": "0x643bab6bbf905be515d90ebd75c965d527b2862ba2c293a7c0e4026dafda6e32",
      "transactionIndex": "0x0",
      "blockHash": "0x99e12df00bc2487a4bee49388bfe214bf2aea27bf8daa1cfe4ef8ee08b6fc080",
      "blockNumber": "0x11d38ec",
      "from": "0x1351257000A92De941aEAebB758e44DD7c8B809f",
      "to": "0x7f39C581F595B53c5cb19bD0b3f8dA6c935E2Ca0",
      "cumulativeGasUsed": "0x6804",
      "gasUsed": "0x6804",
      "contractAddress": null,
      "logs": [
        {
          "address": "0x7f39C581F595B53c5cb19bD0b3f8dA6c935E2Ca0",
          "topics": [
            "0x8c5be1e5ebec7d5bd14f71427d1e84f3dd0314c0f7b2291e5b200ac8c7c3b925",
            "0x0000000000000000000000001351257000a92de941aeaebb758e44dd7c8b809f",
            "0x0000000000000000000000007ab10847e0f2225cdfd1334450be33b4f5f08c3f"
          ],
          "data": "0xffffffffffffffffffffffffffffffffffffffffffffffffffffffffffffffff",
          "blockHash": "0x99e12df00bc2487a4bee49388bfe214bf2aea27bf8daa1cfe4ef8ee08b6fc080",
          "blockNumber": "0x11d38ec",
          "transactionHash": "0x643bab6bbf905be515d90ebd75c965d527b2862ba2c293a7c0e4026dafda6e32",
          "transactionIndex": "0x0",
          "logIndex": "0x0",
          "removed": false
        }
      ],
      "status": "0x1",
      "logsBloom": "0x00000000000000000000000000000000000000000000000000000000000000000000000400000000000000000000000000000000000000000004000000200000000000000000000000000000000000000000000000000000000000000000000000000000100000004000000000000000000000000000000000000000000000000000000000000000000080000000000000000000000000000000000000000000020000000000000000200000000000000000000000000000000000000000000800000000000000100000000000000000000000000000000000000000000000000010000000000000000000008000000000000000000000000000000000000000",
      "type": "0x2",
      "effectiveGasPrice": "0xfd70dd559"
    },
    {
      "transactionHash": "0xd2d355140bcb2c8527bf817af375ca73dfa05ad3a871cd708a1a3fc97237e6c6",
      "transactionIndex": "0x0",
      "blockHash": "0xdaaf7977c37ce527d85190de4851866f78534cb046e9d4866b7e8a9804b5c114",
      "blockNumber": "0x11d38ed",
      "from": "0x1351257000A92De941aEAebB758e44DD7c8B809f",
      "to": "0xE8C1A6F98aD9a8b356283f1D9740e25D812CE566",
      "cumulativeGasUsed": "0x77df",
      "gasUsed": "0x77df",
      "contractAddress": null,
      "logs": [
        {
          "address": "0xE8C1A6F98aD9a8b356283f1D9740e25D812CE566",
          "topics": [
            "0x51778c51d58ce676f156168a160fc5e14ad3c40027f7d6bf7ce613de46dda9a0",
            "0x0000000000000000000000001351257000a92de941aeaebb758e44dd7c8b809f",
            "0x0000000000000000000000007188a614a2d1ac434c5e1e6288cb65c554fa4600"
          ],
          "data": "0x",
          "blockHash": "0xdaaf7977c37ce527d85190de4851866f78534cb046e9d4866b7e8a9804b5c114",
          "blockNumber": "0x11d38ed",
          "transactionHash": "0xd2d355140bcb2c8527bf817af375ca73dfa05ad3a871cd708a1a3fc97237e6c6",
          "transactionIndex": "0x0",
          "logIndex": "0x0",
          "removed": false
        }
      ],
      "status": "0x1",
      "logsBloom": "0x04000000000000000000000000000000000000000000000000200000000000000008000400000000000000000000000000000000000000000004000000000000000000000000000000001000000000000000000000000000000080000000000000000000100000000000000000000000000000000000000000000000000000000000000000000000000000000000000000004000000000000000000000000000000000000000004000000000000000000000000000000000000001000000000000000000000000000000000000000000000000000000000000000000000000000000000000000000000000000000000000000000000000000000000800000000",
      "type": "0x2",
      "effectiveGasPrice": "0xfd70dd559"
    },
    {
      "transactionHash": "0xf30a93aa1383af9513b7f3bf495b9a9f401fd40d9a116e0b21077c877c1cf9b4",
      "transactionIndex": "0x0",
      "blockHash": "0x68c7557ad7341936e978ca4a29468fb54e18cf3bee4e698064789eb7eb8a40c2",
      "blockNumber": "0x11d38ee",
      "from": "0x1351257000A92De941aEAebB758e44DD7c8B809f",
      "to": "0xE8C1A6F98aD9a8b356283f1D9740e25D812CE566",
      "cumulativeGasUsed": "0x77eb",
      "gasUsed": "0x77eb",
      "contractAddress": null,
      "logs": [
        {
          "address": "0xE8C1A6F98aD9a8b356283f1D9740e25D812CE566",
          "topics": [
            "0x51778c51d58ce676f156168a160fc5e14ad3c40027f7d6bf7ce613de46dda9a0",
            "0x0000000000000000000000001351257000a92de941aeaebb758e44dd7c8b809f",
            "0x000000000000000000000000e95462273d31d457bdb2c182869acde5c7ae49d2"
          ],
          "data": "0x",
          "blockHash": "0x68c7557ad7341936e978ca4a29468fb54e18cf3bee4e698064789eb7eb8a40c2",
          "blockNumber": "0x11d38ee",
          "transactionHash": "0xf30a93aa1383af9513b7f3bf495b9a9f401fd40d9a116e0b21077c877c1cf9b4",
          "transactionIndex": "0x0",
          "logIndex": "0x0",
          "removed": false
        }
      ],
      "status": "0x1",
      "logsBloom": "0x04000000000000000000000000000000000000000000000000200000000000000000000400000004000000000000000000000000000000000004000000000000000000000000000000101000000000000000000000000000000000000000000000000000100000000000000000000000000000000000000000000000000000000000000000000000000000000000000000000000000000000000000000000000000000000000004000000000000000000000000000000000000001000000000000000000000000000000000000000000000000000000000000000000000000000000000000000000000000000000000000000000000000000000000800000000",
      "type": "0x2",
      "effectiveGasPrice": "0xfd70dd559"
    },
    {
      "transactionHash": "0xcb42d1c9c7fcf992b97cb07a43d23479e4a485562733c4d6e876e29174b11abb",
      "transactionIndex": "0x0",
      "blockHash": "0x8f0f2fc7a3cdee303f09785299054536804208aaeb8836620531cedfab2a8331",
      "blockNumber": "0x11d38ef",
      "from": "0x1351257000A92De941aEAebB758e44DD7c8B809f",
      "to": "0xA35b1B31Ce002FBF2058D22F30f95D405200A15b",
      "cumulativeGasUsed": "0x8454",
      "gasUsed": "0x8454",
      "contractAddress": null,
      "logs": [
        {
          "address": "0xA35b1B31Ce002FBF2058D22F30f95D405200A15b",
          "topics": [
            "0x8c5be1e5ebec7d5bd14f71427d1e84f3dd0314c0f7b2291e5b200ac8c7c3b925",
            "0x0000000000000000000000001351257000a92de941aeaebb758e44dd7c8b809f",
            "0x0000000000000000000000007188a614a2d1ac434c5e1e6288cb65c554fa4600"
          ],
          "data": "0xffffffffffffffffffffffffffffffffffffffffffffffffffffffffffffffff",
          "blockHash": "0x8f0f2fc7a3cdee303f09785299054536804208aaeb8836620531cedfab2a8331",
          "blockNumber": "0x11d38ef",
          "transactionHash": "0xcb42d1c9c7fcf992b97cb07a43d23479e4a485562733c4d6e876e29174b11abb",
          "transactionIndex": "0x0",
          "logIndex": "0x0",
          "removed": false
        }
      ],
      "status": "0x1",
      "logsBloom": "0x00000000000000000000000000000000000000000000000000000000000000000008000400000000000000040000000000000000000000000004000000200000000000000000000000000000000000000000000000000000000080000000000000000000100000000000000000000000000000000000000000000000000000000000000000000000000000080000000000004000000000000000000000000000020000000000000000000000000000000000000000000000000000000000000000000000000000000000000000000000000000000000000000000000000000000010000001000000000000000000000000000000000000000000000000000000",
      "type": "0x2",
      "effectiveGasPrice": "0xfd70dd559"
    },
    {
      "transactionHash": "0x7000bc0023da209b283283309ae5cb6df2b8201dab8427cc95c5860f41364d23",
      "transactionIndex": "0x0",
      "blockHash": "0x6fec00ac609e0a7e87c1f246598faffb45a56b159607f6e022c192e01df5cbc5",
      "blockNumber": "0x11d38f0",
      "from": "0x1351257000A92De941aEAebB758e44DD7c8B809f",
      "to": "0x7aB10847e0F2225cDfD1334450bE33B4f5F08c3F",
      "cumulativeGasUsed": "0x783d3",
      "gasUsed": "0x783d3",
      "contractAddress": null,
      "logs": [
        {
          "address": "0x7f39C581F595B53c5cb19bD0b3f8dA6c935E2Ca0",
          "topics": [
            "0xddf252ad1be2c89b69c2b068fc378daa952ba7f163c4a11628f55a4df523b3ef",
            "0x0000000000000000000000001351257000a92de941aeaebb758e44dd7c8b809f",
            "0x0000000000000000000000007ab10847e0f2225cdfd1334450be33b4f5f08c3f"
          ],
          "data": "0x0000000000000000000000000000000000000000000000000de0b6b3a7640000",
          "blockHash": "0x6fec00ac609e0a7e87c1f246598faffb45a56b159607f6e022c192e01df5cbc5",
          "blockNumber": "0x11d38f0",
          "transactionHash": "0x7000bc0023da209b283283309ae5cb6df2b8201dab8427cc95c5860f41364d23",
          "transactionIndex": "0x0",
          "logIndex": "0x0",
          "removed": false
        },
        {
          "address": "0x7f39C581F595B53c5cb19bD0b3f8dA6c935E2Ca0",
          "topics": [
            "0x8c5be1e5ebec7d5bd14f71427d1e84f3dd0314c0f7b2291e5b200ac8c7c3b925",
            "0x0000000000000000000000001351257000a92de941aeaebb758e44dd7c8b809f",
            "0x0000000000000000000000007ab10847e0f2225cdfd1334450be33b4f5f08c3f"
          ],
          "data": "0xfffffffffffffffffffffffffffffffffffffffffffffffff21f494c589bffff",
          "blockHash": "0x6fec00ac609e0a7e87c1f246598faffb45a56b159607f6e022c192e01df5cbc5",
          "blockNumber": "0x11d38f0",
          "transactionHash": "0x7000bc0023da209b283283309ae5cb6df2b8201dab8427cc95c5860f41364d23",
          "transactionIndex": "0x0",
          "logIndex": "0x1",
          "removed": false
        },
        {
          "address": "0x7f39C581F595B53c5cb19bD0b3f8dA6c935E2Ca0",
          "topics": [
            "0xddf252ad1be2c89b69c2b068fc378daa952ba7f163c4a11628f55a4df523b3ef",
            "0x000000000000000000000000ba12222222228d8ba445958a75a0704d566bf2c8",
            "0x0000000000000000000000007ab10847e0f2225cdfd1334450be33b4f5f08c3f"
          ],
          "data": "0x0000000000000000000000000000000000000000000000001bc16d674ec80000",
          "blockHash": "0x6fec00ac609e0a7e87c1f246598faffb45a56b159607f6e022c192e01df5cbc5",
          "blockNumber": "0x11d38f0",
          "transactionHash": "0x7000bc0023da209b283283309ae5cb6df2b8201dab8427cc95c5860f41364d23",
          "transactionIndex": "0x0",
          "logIndex": "0x2",
          "removed": false
        },
        {
          "address": "0xE8C1A6F98aD9a8b356283f1D9740e25D812CE566",
          "topics": [
            "0xe728fa61c700a3632cfd3973376b45b5f0bfdb3c2ea1946fd6d4fcda49e1d42f",
            "0x0000000000000000000000000000000000000000000000000000000000000000",
            "0x0000000000000000000000007ab10847e0f2225cdfd1334450be33b4f5f08c3f"
          ],
          "data": "0x00000000000000000000000000000000000000000000000029a2241af62c0000",
          "blockHash": "0x6fec00ac609e0a7e87c1f246598faffb45a56b159607f6e022c192e01df5cbc5",
          "blockNumber": "0x11d38f0",
          "transactionHash": "0x7000bc0023da209b283283309ae5cb6df2b8201dab8427cc95c5860f41364d23",
          "transactionIndex": "0x0",
          "logIndex": "0x3",
          "removed": false
        },
        {
          "address": "0x7f39C581F595B53c5cb19bD0b3f8dA6c935E2Ca0",
          "topics": [
            "0xddf252ad1be2c89b69c2b068fc378daa952ba7f163c4a11628f55a4df523b3ef",
            "0x0000000000000000000000007ab10847e0f2225cdfd1334450be33b4f5f08c3f",
            "0x000000000000000000000000cb10d879e85d8848dbbf815fcbc54adcb83ac944"
          ],
          "data": "0x00000000000000000000000000000000000000000000000029a2241af62c0000",
          "blockHash": "0x6fec00ac609e0a7e87c1f246598faffb45a56b159607f6e022c192e01df5cbc5",
          "blockNumber": "0x11d38f0",
          "transactionHash": "0x7000bc0023da209b283283309ae5cb6df2b8201dab8427cc95c5860f41364d23",
          "transactionIndex": "0x0",
          "logIndex": "0x4",
          "removed": false
        },
        {
          "address": "0x7f39C581F595B53c5cb19bD0b3f8dA6c935E2Ca0",
          "topics": [
            "0x8c5be1e5ebec7d5bd14f71427d1e84f3dd0314c0f7b2291e5b200ac8c7c3b925",
            "0x0000000000000000000000007ab10847e0f2225cdfd1334450be33b4f5f08c3f",
            "0x000000000000000000000000cb10d879e85d8848dbbf815fcbc54adcb83ac944"
          ],
          "data": "0xffffffffffffffffffffffffffffffffffffffffffffffffd65ddbe509d3ffff",
          "blockHash": "0x6fec00ac609e0a7e87c1f246598faffb45a56b159607f6e022c192e01df5cbc5",
          "blockNumber": "0x11d38f0",
          "transactionHash": "0x7000bc0023da209b283283309ae5cb6df2b8201dab8427cc95c5860f41364d23",
          "transactionIndex": "0x0",
          "logIndex": "0x5",
          "removed": false
        },
        {
          "address": "0xE8C1A6F98aD9a8b356283f1D9740e25D812CE566",
          "topics": [
            "0xc125b447f095d22865ad610ebdc8ae9eff252e7d7011ca37e783c98a53970bc4",
            "0x0000000000000000000000000000000000000000000000000000000000000000",
            "0x0000000000000000000000001351257000a92de941aeaebb758e44dd7c8b809f",
            "0x0000000000000000000000007ab10847e0f2225cdfd1334450be33b4f5f08c3f"
          ],
          "data": "0x00000000000000000000000000000000000000000000000029a2241af62c0000",
          "blockHash": "0x6fec00ac609e0a7e87c1f246598faffb45a56b159607f6e022c192e01df5cbc5",
          "blockNumber": "0x11d38f0",
          "transactionHash": "0x7000bc0023da209b283283309ae5cb6df2b8201dab8427cc95c5860f41364d23",
          "transactionIndex": "0x0",
          "logIndex": "0x6",
          "removed": false
        },
        {
          "address": "0xC02aaA39b223FE8D0A0e5C4F27eAD9083C756Cc2",
          "topics": [
            "0xddf252ad1be2c89b69c2b068fc378daa952ba7f163c4a11628f55a4df523b3ef",
            "0x000000000000000000000000e8c1a6f98ad9a8b356283f1d9740e25d812ce566",
            "0x0000000000000000000000007ab10847e0f2225cdfd1334450be33b4f5f08c3f"
          ],
          "data": "0x0000000000000000000000000000000000000000000000001fe36ec8bd166e94",
          "blockHash": "0x6fec00ac609e0a7e87c1f246598faffb45a56b159607f6e022c192e01df5cbc5",
          "blockNumber": "0x11d38f0",
          "transactionHash": "0x7000bc0023da209b283283309ae5cb6df2b8201dab8427cc95c5860f41364d23",
          "transactionIndex": "0x0",
          "logIndex": "0x7",
          "removed": false
        },
        {
          "address": "0xE8C1A6F98aD9a8b356283f1D9740e25D812CE566",
          "topics": [
            "0xe3e92e977f830d2a0b92c58e8866694b5dc929a35e2b95846f427de0f0bb412f",
            "0x0000000000000000000000000000000000000000000000000000000000000000",
            "0x0000000000000000000000001351257000a92de941aeaebb758e44dd7c8b809f",
            "0x0000000000000000000000007ab10847e0f2225cdfd1334450be33b4f5f08c3f"
          ],
          "data": "0x0000000000000000000000000000000000000000000000001fe36ec8bd166e940000000000000000000000000000000000000000033b2e3c9fd0803ce8000000000000000000000000000000006709794d991b0f8f5f859538283ee620000000",
          "blockHash": "0x6fec00ac609e0a7e87c1f246598faffb45a56b159607f6e022c192e01df5cbc5",
          "blockNumber": "0x11d38f0",
          "transactionHash": "0x7000bc0023da209b283283309ae5cb6df2b8201dab8427cc95c5860f41364d23",
          "transactionIndex": "0x0",
          "logIndex": "0x8",
          "removed": false
        },
        {
          "address": "0xC02aaA39b223FE8D0A0e5C4F27eAD9083C756Cc2",
          "topics": [
            "0x7fcf532c15f0a6db0bd6d0e038bea71d30d808c7d98cb3bf7268a95bf5081b65",
            "0x0000000000000000000000007ab10847e0f2225cdfd1334450be33b4f5f08c3f"
          ],
          "data": "0x0000000000000000000000000000000000000000000000001fe36ec8bd166e94",
          "blockHash": "0x6fec00ac609e0a7e87c1f246598faffb45a56b159607f6e022c192e01df5cbc5",
          "blockNumber": "0x11d38f0",
          "transactionHash": "0x7000bc0023da209b283283309ae5cb6df2b8201dab8427cc95c5860f41364d23",
          "transactionIndex": "0x0",
          "logIndex": "0x9",
          "removed": false
        },
        {
          "address": "0xae7ab96520DE3A18E5e111B5EaAb095312D7fE84",
          "topics": [
            "0x96a25c8ce0baabc1fdefd93e9ed25d8e092a3332f3aa9a41722b5697231d1d1a",
            "0x0000000000000000000000007f39c581f595b53c5cb19bd0b3f8da6c935e2ca0"
          ],
          "data": "0x0000000000000000000000000000000000000000000000001fe36ec8bd166e940000000000000000000000000000000000000000000000000000000000000000",
          "blockHash": "0x6fec00ac609e0a7e87c1f246598faffb45a56b159607f6e022c192e01df5cbc5",
          "blockNumber": "0x11d38f0",
          "transactionHash": "0x7000bc0023da209b283283309ae5cb6df2b8201dab8427cc95c5860f41364d23",
          "transactionIndex": "0x0",
          "logIndex": "0xa",
          "removed": false
        },
        {
          "address": "0xae7ab96520DE3A18E5e111B5EaAb095312D7fE84",
          "topics": [
            "0xddf252ad1be2c89b69c2b068fc378daa952ba7f163c4a11628f55a4df523b3ef",
            "0x0000000000000000000000000000000000000000000000000000000000000000",
            "0x0000000000000000000000007f39c581f595b53c5cb19bd0b3f8da6c935e2ca0"
          ],
          "data": "0x0000000000000000000000000000000000000000000000001fe36ec8bd166e93",
          "blockHash": "0x6fec00ac609e0a7e87c1f246598faffb45a56b159607f6e022c192e01df5cbc5",
          "blockNumber": "0x11d38f0",
          "transactionHash": "0x7000bc0023da209b283283309ae5cb6df2b8201dab8427cc95c5860f41364d23",
          "transactionIndex": "0x0",
          "logIndex": "0xb",
          "removed": false
        },
        {
          "address": "0xae7ab96520DE3A18E5e111B5EaAb095312D7fE84",
          "topics": [
            "0x9d9c909296d9c674451c0c24f02cb64981eb3b727f99865939192f880a755dcb",
            "0x0000000000000000000000000000000000000000000000000000000000000000",
            "0x0000000000000000000000007f39c581f595b53c5cb19bd0b3f8da6c935e2ca0"
          ],
          "data": "0x0000000000000000000000000000000000000000000000001bc16d674ec80000",
          "blockHash": "0x6fec00ac609e0a7e87c1f246598faffb45a56b159607f6e022c192e01df5cbc5",
          "blockNumber": "0x11d38f0",
          "transactionHash": "0x7000bc0023da209b283283309ae5cb6df2b8201dab8427cc95c5860f41364d23",
          "transactionIndex": "0x0",
          "logIndex": "0xc",
          "removed": false
        },
        {
          "address": "0x7f39C581F595B53c5cb19bD0b3f8dA6c935E2Ca0",
          "topics": [
            "0xddf252ad1be2c89b69c2b068fc378daa952ba7f163c4a11628f55a4df523b3ef",
            "0x0000000000000000000000000000000000000000000000000000000000000000",
            "0x0000000000000000000000007ab10847e0f2225cdfd1334450be33b4f5f08c3f"
          ],
          "data": "0x0000000000000000000000000000000000000000000000001bc16d674ec80000",
          "blockHash": "0x6fec00ac609e0a7e87c1f246598faffb45a56b159607f6e022c192e01df5cbc5",
          "blockNumber": "0x11d38f0",
          "transactionHash": "0x7000bc0023da209b283283309ae5cb6df2b8201dab8427cc95c5860f41364d23",
          "transactionIndex": "0x0",
          "logIndex": "0xd",
          "removed": false
        },
        {
          "address": "0x7f39C581F595B53c5cb19bD0b3f8dA6c935E2Ca0",
          "topics": [
            "0xddf252ad1be2c89b69c2b068fc378daa952ba7f163c4a11628f55a4df523b3ef",
            "0x0000000000000000000000007ab10847e0f2225cdfd1334450be33b4f5f08c3f",
            "0x000000000000000000000000ba12222222228d8ba445958a75a0704d566bf2c8"
          ],
          "data": "0x0000000000000000000000000000000000000000000000001bc16d674ec80000",
          "blockHash": "0x6fec00ac609e0a7e87c1f246598faffb45a56b159607f6e022c192e01df5cbc5",
          "blockNumber": "0x11d38f0",
          "transactionHash": "0x7000bc0023da209b283283309ae5cb6df2b8201dab8427cc95c5860f41364d23",
          "transactionIndex": "0x0",
          "logIndex": "0xe",
          "removed": false
        },
        {
          "address": "0xBA12222222228d8Ba445958a75a0704d566BF2C8",
          "topics": [
            "0x0d7d75e01ab95780d3cd1c8ec0dd6c2ce19e3a20427eec8bf53283b6fb8e95f0",
            "0x0000000000000000000000007ab10847e0f2225cdfd1334450be33b4f5f08c3f",
            "0x0000000000000000000000007f39c581f595b53c5cb19bd0b3f8da6c935e2ca0"
          ],
          "data": "0x0000000000000000000000000000000000000000000000001bc16d674ec800000000000000000000000000000000000000000000000000000000000000000000",
          "blockHash": "0x6fec00ac609e0a7e87c1f246598faffb45a56b159607f6e022c192e01df5cbc5",
          "blockNumber": "0x11d38f0",
          "transactionHash": "0x7000bc0023da209b283283309ae5cb6df2b8201dab8427cc95c5860f41364d23",
          "transactionIndex": "0x0",
          "logIndex": "0xf",
          "removed": false
        }
      ],
      "status": "0x1",
      "logsBloom": "0x04000100000000880000030000000000000000000000400000200000000000200000004400000000000000000000000002000000080000000004000000200000000200800000000000001008000000000000008000400000000800000000002000000000120000004000108000200800100000000200040000001010000000000000008000000000000080000000000000000000000020802000000000002000020000000000000000200000000200000000004000000000000100000000000800000202000000100100000000000080002000000080000000800002001020000010200000000000000000008000000000000000024000000000000000000000",
      "type": "0x2",
      "effectiveGasPrice": "0xfd70dd559"
    },
    {
      "transactionHash": "0xea32061f96b6cf4331cf7d6889b1a66229877cc6bd725a1b87044e96076add15",
      "transactionIndex": "0x0",
      "blockHash": "0x76fca93a24f7e4efd684dd427ce04a47cb381d68f136ca67d59c61fa52776322",
      "blockNumber": "0x11d38f1",
      "from": "0x1351257000A92De941aEAebB758e44DD7c8B809f",
      "to": "0xE8C1A6F98aD9a8b356283f1D9740e25D812CE566",
      "cumulativeGasUsed": "0x77eb",
      "gasUsed": "0x77eb",
      "contractAddress": null,
      "logs": [
        {
          "address": "0xE8C1A6F98aD9a8b356283f1D9740e25D812CE566",
          "topics": [
            "0x51778c51d58ce676f156168a160fc5e14ad3c40027f7d6bf7ce613de46dda9a0",
            "0x0000000000000000000000001351257000a92de941aeaebb758e44dd7c8b809f",
            "0x0000000000000000000000007ab10847e0f2225cdfd1334450be33b4f5f08c3f"
          ],
          "data": "0x",
          "blockHash": "0x76fca93a24f7e4efd684dd427ce04a47cb381d68f136ca67d59c61fa52776322",
          "blockNumber": "0x11d38f1",
          "transactionHash": "0xea32061f96b6cf4331cf7d6889b1a66229877cc6bd725a1b87044e96076add15",
          "transactionIndex": "0x0",
          "logIndex": "0x0",
          "removed": false
        }
      ],
      "status": "0x1",
      "logsBloom": "0x04000000000000000000000000000000000000000000000000200000000000000000000400000000000000000000000000000000000000000004000000000000000000000000000000001000000000000000000000000000000000000000000000000000100000004000000000000000000000000000000000000000000000000000000000000000000000000000000000000000000000000000000000000000000000000000004000200000000000000000000000000000000001000000000800000000000000000000000000000000000000000000000000000000000000000000000000000000000000000000000000000000000000000000000800000000",
      "type": "0x2",
      "effectiveGasPrice": "0xfd70dd559"
    },
    {
      "transactionHash": "0xe808e2417de1ebfe4c197974c6b0173145385b66fee384f86ba094f1ff905bd9",
      "transactionIndex": "0x0",
      "blockHash": "0x9ec44bb3a1274e308a801eb8b382201bd3b8b56a5d81fe3171d0bc6d4d367f3e",
      "blockNumber": "0x11d38f2",
      "from": "0x1351257000A92De941aEAebB758e44DD7c8B809f",
      "to": "0x7aB10847e0F2225cDfD1334450bE33B4f5F08c3F",
      "cumulativeGasUsed": "0x59936",
      "gasUsed": "0x59936",
      "contractAddress": null,
      "logs": [
        {
          "address": "0x7f39C581F595B53c5cb19bD0b3f8dA6c935E2Ca0",
          "topics": [
            "0xddf252ad1be2c89b69c2b068fc378daa952ba7f163c4a11628f55a4df523b3ef",
            "0x0000000000000000000000001351257000a92de941aeaebb758e44dd7c8b809f",
            "0x0000000000000000000000007ab10847e0f2225cdfd1334450be33b4f5f08c3f"
          ],
          "data": "0x0000000000000000000000000000000000000000000000000de0b6b3a7640000",
          "blockHash": "0x9ec44bb3a1274e308a801eb8b382201bd3b8b56a5d81fe3171d0bc6d4d367f3e",
          "blockNumber": "0x11d38f2",
          "transactionHash": "0xe808e2417de1ebfe4c197974c6b0173145385b66fee384f86ba094f1ff905bd9",
          "transactionIndex": "0x0",
          "logIndex": "0x0",
          "removed": false
        },
        {
          "address": "0x7f39C581F595B53c5cb19bD0b3f8dA6c935E2Ca0",
          "topics": [
            "0x8c5be1e5ebec7d5bd14f71427d1e84f3dd0314c0f7b2291e5b200ac8c7c3b925",
            "0x0000000000000000000000001351257000a92de941aeaebb758e44dd7c8b809f",
            "0x0000000000000000000000007ab10847e0f2225cdfd1334450be33b4f5f08c3f"
          ],
          "data": "0xffffffffffffffffffffffffffffffffffffffffffffffffe43e9298b137ffff",
          "blockHash": "0x9ec44bb3a1274e308a801eb8b382201bd3b8b56a5d81fe3171d0bc6d4d367f3e",
          "blockNumber": "0x11d38f2",
          "transactionHash": "0xe808e2417de1ebfe4c197974c6b0173145385b66fee384f86ba094f1ff905bd9",
          "transactionIndex": "0x0",
          "logIndex": "0x1",
          "removed": false
        },
        {
          "address": "0x7f39C581F595B53c5cb19bD0b3f8dA6c935E2Ca0",
          "topics": [
            "0xddf252ad1be2c89b69c2b068fc378daa952ba7f163c4a11628f55a4df523b3ef",
            "0x000000000000000000000000109830a1aaad605bbf02a9dfa7b0b92ec2fb7daa",
            "0x0000000000000000000000007ab10847e0f2225cdfd1334450be33b4f5f08c3f"
          ],
          "data": "0x0000000000000000000000000000000000000000000000001bc16d674ec80000",
          "blockHash": "0x9ec44bb3a1274e308a801eb8b382201bd3b8b56a5d81fe3171d0bc6d4d367f3e",
          "blockNumber": "0x11d38f2",
          "transactionHash": "0xe808e2417de1ebfe4c197974c6b0173145385b66fee384f86ba094f1ff905bd9",
          "transactionIndex": "0x0",
          "logIndex": "0x2",
          "removed": false
        },
        {
          "address": "0xE8C1A6F98aD9a8b356283f1D9740e25D812CE566",
          "topics": [
            "0xe728fa61c700a3632cfd3973376b45b5f0bfdb3c2ea1946fd6d4fcda49e1d42f",
            "0x0000000000000000000000000000000000000000000000000000000000000000",
            "0x0000000000000000000000007ab10847e0f2225cdfd1334450be33b4f5f08c3f"
          ],
          "data": "0x00000000000000000000000000000000000000000000000029a2241af62c0000",
          "blockHash": "0x9ec44bb3a1274e308a801eb8b382201bd3b8b56a5d81fe3171d0bc6d4d367f3e",
          "blockNumber": "0x11d38f2",
          "transactionHash": "0xe808e2417de1ebfe4c197974c6b0173145385b66fee384f86ba094f1ff905bd9",
          "transactionIndex": "0x0",
          "logIndex": "0x3",
          "removed": false
        },
        {
          "address": "0x7f39C581F595B53c5cb19bD0b3f8dA6c935E2Ca0",
          "topics": [
            "0xddf252ad1be2c89b69c2b068fc378daa952ba7f163c4a11628f55a4df523b3ef",
            "0x0000000000000000000000007ab10847e0f2225cdfd1334450be33b4f5f08c3f",
            "0x000000000000000000000000cb10d879e85d8848dbbf815fcbc54adcb83ac944"
          ],
          "data": "0x00000000000000000000000000000000000000000000000029a2241af62c0000",
          "blockHash": "0x9ec44bb3a1274e308a801eb8b382201bd3b8b56a5d81fe3171d0bc6d4d367f3e",
          "blockNumber": "0x11d38f2",
          "transactionHash": "0xe808e2417de1ebfe4c197974c6b0173145385b66fee384f86ba094f1ff905bd9",
          "transactionIndex": "0x0",
          "logIndex": "0x4",
          "removed": false
        },
        {
          "address": "0x7f39C581F595B53c5cb19bD0b3f8dA6c935E2Ca0",
          "topics": [
            "0x8c5be1e5ebec7d5bd14f71427d1e84f3dd0314c0f7b2291e5b200ac8c7c3b925",
            "0x0000000000000000000000007ab10847e0f2225cdfd1334450be33b4f5f08c3f",
            "0x000000000000000000000000cb10d879e85d8848dbbf815fcbc54adcb83ac944"
          ],
          "data": "0xffffffffffffffffffffffffffffffffffffffffffffffffacbbb7ca13a7ffff",
          "blockHash": "0x9ec44bb3a1274e308a801eb8b382201bd3b8b56a5d81fe3171d0bc6d4d367f3e",
          "blockNumber": "0x11d38f2",
          "transactionHash": "0xe808e2417de1ebfe4c197974c6b0173145385b66fee384f86ba094f1ff905bd9",
          "transactionIndex": "0x0",
          "logIndex": "0x5",
          "removed": false
        },
        {
          "address": "0xE8C1A6F98aD9a8b356283f1D9740e25D812CE566",
          "topics": [
            "0xc125b447f095d22865ad610ebdc8ae9eff252e7d7011ca37e783c98a53970bc4",
            "0x0000000000000000000000000000000000000000000000000000000000000000",
            "0x0000000000000000000000001351257000a92de941aeaebb758e44dd7c8b809f",
            "0x0000000000000000000000007ab10847e0f2225cdfd1334450be33b4f5f08c3f"
          ],
          "data": "0x00000000000000000000000000000000000000000000000029a2241af62c0000",
          "blockHash": "0x9ec44bb3a1274e308a801eb8b382201bd3b8b56a5d81fe3171d0bc6d4d367f3e",
          "blockNumber": "0x11d38f2",
          "transactionHash": "0xe808e2417de1ebfe4c197974c6b0173145385b66fee384f86ba094f1ff905bd9",
          "transactionIndex": "0x0",
          "logIndex": "0x6",
          "removed": false
        },
        {
          "address": "0xC02aaA39b223FE8D0A0e5C4F27eAD9083C756Cc2",
          "topics": [
            "0xddf252ad1be2c89b69c2b068fc378daa952ba7f163c4a11628f55a4df523b3ef",
            "0x000000000000000000000000e8c1a6f98ad9a8b356283f1d9740e25d812ce566",
            "0x0000000000000000000000007ab10847e0f2225cdfd1334450be33b4f5f08c3f"
          ],
          "data": "0x0000000000000000000000000000000000000000000000001fe1dafda2578f8f",
          "blockHash": "0x9ec44bb3a1274e308a801eb8b382201bd3b8b56a5d81fe3171d0bc6d4d367f3e",
          "blockNumber": "0x11d38f2",
          "transactionHash": "0xe808e2417de1ebfe4c197974c6b0173145385b66fee384f86ba094f1ff905bd9",
          "transactionIndex": "0x0",
          "logIndex": "0x7",
          "removed": false
        },
        {
          "address": "0xE8C1A6F98aD9a8b356283f1D9740e25D812CE566",
          "topics": [
            "0xe3e92e977f830d2a0b92c58e8866694b5dc929a35e2b95846f427de0f0bb412f",
            "0x0000000000000000000000000000000000000000000000000000000000000000",
            "0x0000000000000000000000001351257000a92de941aeaebb758e44dd7c8b809f",
            "0x0000000000000000000000007ab10847e0f2225cdfd1334450be33b4f5f08c3f"
          ],
          "data": "0x0000000000000000000000000000000000000000000000001fe1dae6652e546b0000000000000000000000000000000000000000033b2e3efabeb01202378c2500000000000000000000000000ce0dda2c3f2ef26bfd97f6bcdb5947715ca2db",
          "blockHash": "0x9ec44bb3a1274e308a801eb8b382201bd3b8b56a5d81fe3171d0bc6d4d367f3e",
          "blockNumber": "0x11d38f2",
          "transactionHash": "0xe808e2417de1ebfe4c197974c6b0173145385b66fee384f86ba094f1ff905bd9",
          "transactionIndex": "0x0",
          "logIndex": "0x8",
          "removed": false
        },
        {
          "address": "0xC02aaA39b223FE8D0A0e5C4F27eAD9083C756Cc2",
          "topics": [
            "0xddf252ad1be2c89b69c2b068fc378daa952ba7f163c4a11628f55a4df523b3ef",
            "0x0000000000000000000000007ab10847e0f2225cdfd1334450be33b4f5f08c3f",
            "0x000000000000000000000000109830a1aaad605bbf02a9dfa7b0b92ec2fb7daa"
          ],
          "data": "0x0000000000000000000000000000000000000000000000001fe1dafda2578f8f",
          "blockHash": "0x9ec44bb3a1274e308a801eb8b382201bd3b8b56a5d81fe3171d0bc6d4d367f3e",
          "blockNumber": "0x11d38f2",
          "transactionHash": "0xe808e2417de1ebfe4c197974c6b0173145385b66fee384f86ba094f1ff905bd9",
          "transactionIndex": "0x0",
          "logIndex": "0x9",
          "removed": false
        },
        {
          "address": "0x109830a1AAaD605BbF02a9dFA7B0B92EC2FB7dAa",
          "topics": [
            "0xc42079f94a6350d7e6235f29174924f928cc2ac818eb64fed8004e115fbcca67",
            "0x0000000000000000000000007ab10847e0f2225cdfd1334450be33b4f5f08c3f",
            "0x0000000000000000000000007ab10847e0f2225cdfd1334450be33b4f5f08c3f"
          ],
          "data": "0xffffffffffffffffffffffffffffffffffffffffffffffffe43e9298b13800000000000000000000000000000000000000000000000000001fe1dafda2578f8f0000000000000000000000000000000000000001125ba4dce1b34260864c4f7f00000000000000000000000000000000000000000037ad60420e021ff7d1a3240000000000000000000000000000000000000000000000000000000000000569",
          "blockHash": "0x9ec44bb3a1274e308a801eb8b382201bd3b8b56a5d81fe3171d0bc6d4d367f3e",
          "blockNumber": "0x11d38f2",
          "transactionHash": "0xe808e2417de1ebfe4c197974c6b0173145385b66fee384f86ba094f1ff905bd9",
          "transactionIndex": "0x0",
          "logIndex": "0xa",
          "removed": false
        }
      ],
      "status": "0x1",
      "logsBloom": "0x04000000000000880000010000000000000000000000400000200000000000000000004400000000000000000000000002000000080020000004000000200000000000800000000800001008000000000000008000000000000800000000000000000000120000004000000000000800100000000200000000000010000800000000048000000200000080000000000000000000000020000000000000000000020000000000000000200000000000000000004000010000000000000000020800000202000000100000000000010000000000000000000000800000000020000010200000000000000000008040000000000000000000000000000000000000",
      "type": "0x2",
      "effectiveGasPrice": "0xfd70dd559"
    },
    {
      "transactionHash": "0xcbdb785de017abb91138d0a1ea01ee12af24d3beb49bb54d73e54225f17bae43",
      "transactionIndex": "0x0",
      "blockHash": "0x5ed99d47a06b425128c5259cf9f147f421629cc537b33876a7e7775cee66b9d5",
      "blockNumber": "0x11d38f3",
      "from": "0x1351257000A92De941aEAebB758e44DD7c8B809f",
      "to": "0x7188A614a2d1AC434c5E1E6288cB65C554FA4600",
      "cumulativeGasUsed": "0x76b7b",
      "gasUsed": "0x76b7b",
      "contractAddress": null,
      "logs": [
        {
          "address": "0xA35b1B31Ce002FBF2058D22F30f95D405200A15b",
          "topics": [
            "0xddf252ad1be2c89b69c2b068fc378daa952ba7f163c4a11628f55a4df523b3ef",
            "0x0000000000000000000000001351257000a92de941aeaebb758e44dd7c8b809f",
            "0x0000000000000000000000007188a614a2d1ac434c5e1e6288cb65c554fa4600"
          ],
          "data": "0x0000000000000000000000000000000000000000000000000de0b6b3a7640000",
          "blockHash": "0x5ed99d47a06b425128c5259cf9f147f421629cc537b33876a7e7775cee66b9d5",
          "blockNumber": "0x11d38f3",
          "transactionHash": "0xcbdb785de017abb91138d0a1ea01ee12af24d3beb49bb54d73e54225f17bae43",
          "transactionIndex": "0x0",
          "logIndex": "0x0",
          "removed": false
        },
        {
          "address": "0xA35b1B31Ce002FBF2058D22F30f95D405200A15b",
          "topics": [
            "0xddf252ad1be2c89b69c2b068fc378daa952ba7f163c4a11628f55a4df523b3ef",
            "0x000000000000000000000000ba12222222228d8ba445958a75a0704d566bf2c8",
            "0x0000000000000000000000007188a614a2d1ac434c5e1e6288cb65c554fa4600"
          ],
          "data": "0x0000000000000000000000000000000000000000000000001bc16d674ec80000",
          "blockHash": "0x5ed99d47a06b425128c5259cf9f147f421629cc537b33876a7e7775cee66b9d5",
          "blockNumber": "0x11d38f3",
          "transactionHash": "0xcbdb785de017abb91138d0a1ea01ee12af24d3beb49bb54d73e54225f17bae43",
          "transactionIndex": "0x0",
          "logIndex": "0x1",
          "removed": false
        },
        {
          "address": "0xE8C1A6F98aD9a8b356283f1D9740e25D812CE566",
          "topics": [
            "0xe728fa61c700a3632cfd3973376b45b5f0bfdb3c2ea1946fd6d4fcda49e1d42f",
            "0x0000000000000000000000000000000000000000000000000000000000000001",
            "0x0000000000000000000000007188a614a2d1ac434c5e1e6288cb65c554fa4600"
          ],
          "data": "0x00000000000000000000000000000000000000000000000029a2241af62c0000",
          "blockHash": "0x5ed99d47a06b425128c5259cf9f147f421629cc537b33876a7e7775cee66b9d5",
          "blockNumber": "0x11d38f3",
          "transactionHash": "0xcbdb785de017abb91138d0a1ea01ee12af24d3beb49bb54d73e54225f17bae43",
          "transactionIndex": "0x0",
          "logIndex": "0x2",
          "removed": false
        },
        {
          "address": "0xA35b1B31Ce002FBF2058D22F30f95D405200A15b",
          "topics": [
            "0xddf252ad1be2c89b69c2b068fc378daa952ba7f163c4a11628f55a4df523b3ef",
            "0x0000000000000000000000007188a614a2d1ac434c5e1e6288cb65c554fa4600",
            "0x000000000000000000000000703ab4d4a369fa6909cf236a61f63c432bf2e68e"
          ],
          "data": "0x00000000000000000000000000000000000000000000000029a2241af62c0000",
          "blockHash": "0x5ed99d47a06b425128c5259cf9f147f421629cc537b33876a7e7775cee66b9d5",
          "blockNumber": "0x11d38f3",
          "transactionHash": "0xcbdb785de017abb91138d0a1ea01ee12af24d3beb49bb54d73e54225f17bae43",
          "transactionIndex": "0x0",
          "logIndex": "0x3",
          "removed": false
        },
        {
          "address": "0xE8C1A6F98aD9a8b356283f1D9740e25D812CE566",
          "topics": [
            "0xc125b447f095d22865ad610ebdc8ae9eff252e7d7011ca37e783c98a53970bc4",
            "0x0000000000000000000000000000000000000000000000000000000000000001",
            "0x0000000000000000000000001351257000a92de941aeaebb758e44dd7c8b809f",
            "0x0000000000000000000000007188a614a2d1ac434c5e1e6288cb65c554fa4600"
          ],
          "data": "0x00000000000000000000000000000000000000000000000029a2241af62c0000",
          "blockHash": "0x5ed99d47a06b425128c5259cf9f147f421629cc537b33876a7e7775cee66b9d5",
          "blockNumber": "0x11d38f3",
          "transactionHash": "0xcbdb785de017abb91138d0a1ea01ee12af24d3beb49bb54d73e54225f17bae43",
          "transactionIndex": "0x0",
          "logIndex": "0x4",
          "removed": false
        },
        {
          "address": "0xC02aaA39b223FE8D0A0e5C4F27eAD9083C756Cc2",
          "topics": [
            "0xddf252ad1be2c89b69c2b068fc378daa952ba7f163c4a11628f55a4df523b3ef",
            "0x000000000000000000000000e8c1a6f98ad9a8b356283f1d9740e25d812ce566",
            "0x0000000000000000000000007188a614a2d1ac434c5e1e6288cb65c554fa4600"
          ],
          "data": "0x0000000000000000000000000000000000000000000000001c2d15c49b62459e",
          "blockHash": "0x5ed99d47a06b425128c5259cf9f147f421629cc537b33876a7e7775cee66b9d5",
          "blockNumber": "0x11d38f3",
          "transactionHash": "0xcbdb785de017abb91138d0a1ea01ee12af24d3beb49bb54d73e54225f17bae43",
          "transactionIndex": "0x0",
          "logIndex": "0x5",
          "removed": false
        },
        {
          "address": "0xE8C1A6F98aD9a8b356283f1D9740e25D812CE566",
          "topics": [
            "0xe3e92e977f830d2a0b92c58e8866694b5dc929a35e2b95846f427de0f0bb412f",
            "0x0000000000000000000000000000000000000000000000000000000000000001",
            "0x0000000000000000000000001351257000a92de941aeaebb758e44dd7c8b809f",
            "0x0000000000000000000000007188a614a2d1ac434c5e1e6288cb65c554fa4600"
          ],
          "data": "0x0000000000000000000000000000000000000000000000001c2d15c49b62459e0000000000000000000000000000000000000000033b2e3c9fd0803ce800000000000000000000000000000001291896447286ad702ed99429e3b966a15ca2db",
          "blockHash": "0x5ed99d47a06b425128c5259cf9f147f421629cc537b33876a7e7775cee66b9d5",
          "blockNumber": "0x11d38f3",
          "transactionHash": "0xcbdb785de017abb91138d0a1ea01ee12af24d3beb49bb54d73e54225f17bae43",
          "transactionIndex": "0x0",
          "logIndex": "0x6",
          "removed": false
        },
        {
          "address": "0xC02aaA39b223FE8D0A0e5C4F27eAD9083C756Cc2",
          "topics": [
            "0x7fcf532c15f0a6db0bd6d0e038bea71d30d808c7d98cb3bf7268a95bf5081b65",
            "0x0000000000000000000000007188a614a2d1ac434c5e1e6288cb65c554fa4600"
          ],
          "data": "0x0000000000000000000000000000000000000000000000001c2d15c49b62459e",
          "blockHash": "0x5ed99d47a06b425128c5259cf9f147f421629cc537b33876a7e7775cee66b9d5",
          "blockNumber": "0x11d38f3",
          "transactionHash": "0xcbdb785de017abb91138d0a1ea01ee12af24d3beb49bb54d73e54225f17bae43",
          "transactionIndex": "0x0",
          "logIndex": "0x7",
          "removed": false
        },
        {
          "address": "0xA35b1B31Ce002FBF2058D22F30f95D405200A15b",
          "topics": [
            "0xddf252ad1be2c89b69c2b068fc378daa952ba7f163c4a11628f55a4df523b3ef",
            "0x0000000000000000000000000000000000000000000000000000000000000000",
            "0x0000000000000000000000007188a614a2d1ac434c5e1e6288cb65c554fa4600"
          ],
          "data": "0x0000000000000000000000000000000000000000000000001bc16d674ec80000",
          "blockHash": "0x5ed99d47a06b425128c5259cf9f147f421629cc537b33876a7e7775cee66b9d5",
          "blockNumber": "0x11d38f3",
          "transactionHash": "0xcbdb785de017abb91138d0a1ea01ee12af24d3beb49bb54d73e54225f17bae43",
          "transactionIndex": "0x0",
          "logIndex": "0x8",
          "removed": false
        },
        {
          "address": "0xcf5EA1b38380f6aF39068375516Daf40Ed70D299",
          "topics": [
            "0xf5681f9d0db1b911ac18ee83d515a1cf1051853a9eae418316a2fdf7dea427c5",
            "0x0000000000000000000000007188a614a2d1ac434c5e1e6288cb65c554fa4600",
            "0x0000000000000000000000007188a614a2d1ac434c5e1e6288cb65c554fa4600"
          ],
          "data": "0x0000000000000000000000000000000000000000000000001c2d15c49b62459e0000000000000000000000000000000000000000000000001bc16d674ec80000",
          "blockHash": "0x5ed99d47a06b425128c5259cf9f147f421629cc537b33876a7e7775cee66b9d5",
          "blockNumber": "0x11d38f3",
          "transactionHash": "0xcbdb785de017abb91138d0a1ea01ee12af24d3beb49bb54d73e54225f17bae43",
          "transactionIndex": "0x0",
          "logIndex": "0x9",
          "removed": false
        },
        {
          "address": "0xA35b1B31Ce002FBF2058D22F30f95D405200A15b",
          "topics": [
            "0xddf252ad1be2c89b69c2b068fc378daa952ba7f163c4a11628f55a4df523b3ef",
            "0x0000000000000000000000007188a614a2d1ac434c5e1e6288cb65c554fa4600",
            "0x000000000000000000000000ba12222222228d8ba445958a75a0704d566bf2c8"
          ],
          "data": "0x0000000000000000000000000000000000000000000000001bc16d674ec80000",
          "blockHash": "0x5ed99d47a06b425128c5259cf9f147f421629cc537b33876a7e7775cee66b9d5",
          "blockNumber": "0x11d38f3",
          "transactionHash": "0xcbdb785de017abb91138d0a1ea01ee12af24d3beb49bb54d73e54225f17bae43",
          "transactionIndex": "0x0",
          "logIndex": "0xa",
          "removed": false
        },
        {
          "address": "0xBA12222222228d8Ba445958a75a0704d566BF2C8",
          "topics": [
            "0x0d7d75e01ab95780d3cd1c8ec0dd6c2ce19e3a20427eec8bf53283b6fb8e95f0",
            "0x0000000000000000000000007188a614a2d1ac434c5e1e6288cb65c554fa4600",
            "0x000000000000000000000000a35b1b31ce002fbf2058d22f30f95d405200a15b"
          ],
          "data": "0x0000000000000000000000000000000000000000000000001bc16d674ec800000000000000000000000000000000000000000000000000000000000000000000",
          "blockHash": "0x5ed99d47a06b425128c5259cf9f147f421629cc537b33876a7e7775cee66b9d5",
          "blockNumber": "0x11d38f3",
          "transactionHash": "0xcbdb785de017abb91138d0a1ea01ee12af24d3beb49bb54d73e54225f17bae43",
          "transactionIndex": "0x0",
          "logIndex": "0xb",
          "removed": false
        }
      ],
      "status": "0x1",
      "logsBloom": "0x04000000000000880000030000000000000000000000400000220000000000200008004400000000000000040000000002000000080000000004000000840000000000800000000000003008000000000000008000440000000880000000000000000000120000000000100000000880100000000000140000001010000000000000000000000000000000080000000000004000000000002000000000000000000000000100020000000000000000000000004000000000000100000000000000002202000000000100000000000010002040000000000002800002001060000000200001000000000000000000000000000000000000000000000000000000",
      "type": "0x2",
      "effectiveGasPrice": "0xfd70dd559"
    },
    {
      "transactionHash": "0x1f6cc57aca2957c2db2720bea262feb2031a5fd0c0f4c8108a83ac86aeee4338",
      "transactionIndex": "0x0",
      "blockHash": "0x2392d0b6d0c42f5114d5179b17941bc8853a4ec43412d76b6fcc0b9f313a9f68",
      "blockNumber": "0x11d38f4",
      "from": "0x1351257000A92De941aEAebB758e44DD7c8B809f",
      "to": "0x7188A614a2d1AC434c5E1E6288cB65C554FA4600",
      "cumulativeGasUsed": "0x9aeb5",
      "gasUsed": "0x9aeb5",
      "contractAddress": null,
      "logs": [
        {
          "address": "0xA35b1B31Ce002FBF2058D22F30f95D405200A15b",
          "topics": [
            "0xddf252ad1be2c89b69c2b068fc378daa952ba7f163c4a11628f55a4df523b3ef",
            "0x0000000000000000000000001351257000a92de941aeaebb758e44dd7c8b809f",
            "0x0000000000000000000000007188a614a2d1ac434c5e1e6288cb65c554fa4600"
          ],
          "data": "0x0000000000000000000000000000000000000000000000000de0b6b3a7640000",
          "blockHash": "0x2392d0b6d0c42f5114d5179b17941bc8853a4ec43412d76b6fcc0b9f313a9f68",
          "blockNumber": "0x11d38f4",
          "transactionHash": "0x1f6cc57aca2957c2db2720bea262feb2031a5fd0c0f4c8108a83ac86aeee4338",
          "transactionIndex": "0x0",
          "logIndex": "0x0",
          "removed": false
        },
        {
          "address": "0xC02aaA39b223FE8D0A0e5C4F27eAD9083C756Cc2",
          "topics": [
            "0xddf252ad1be2c89b69c2b068fc378daa952ba7f163c4a11628f55a4df523b3ef",
            "0x000000000000000000000000109830a1aaad605bbf02a9dfa7b0b92ec2fb7daa",
            "0x0000000000000000000000007188a614a2d1ac434c5e1e6288cb65c554fa4600"
          ],
          "data": "0x0000000000000000000000000000000000000000000000001c3061f5eb47f4c1",
          "blockHash": "0x2392d0b6d0c42f5114d5179b17941bc8853a4ec43412d76b6fcc0b9f313a9f68",
          "blockNumber": "0x11d38f4",
          "transactionHash": "0x1f6cc57aca2957c2db2720bea262feb2031a5fd0c0f4c8108a83ac86aeee4338",
          "transactionIndex": "0x0",
          "logIndex": "0x1",
          "removed": false
        },
        {
          "address": "0x37b18B10ce5635a84834b26095A0AE5639dCB752",
          "topics": [
            "0xb77a83204ca282e08dc3a65b0a1ca32ea4e6875c38ef0bf5bf75e52a67354fac",
            "0x0000000000000000000000000000000000000000000000000000000000000001"
          ],
          "data": "0x0000000000000000000000000000000000000000000000000e168ae24db122ce",
          "blockHash": "0x2392d0b6d0c42f5114d5179b17941bc8853a4ec43412d76b6fcc0b9f313a9f68",
          "blockNumber": "0x11d38f4",
          "transactionHash": "0x1f6cc57aca2957c2db2720bea262feb2031a5fd0c0f4c8108a83ac86aeee4338",
          "transactionIndex": "0x0",
          "logIndex": "0x2",
          "removed": false
        },
        {
          "address": "0xBA12222222228d8Ba445958a75a0704d566BF2C8",
          "topics": [
            "0x2170c741c41531aec20e7c107c24eecfdd15e69c9bb0a8dd37b1840b9e0b207b",
            "0x37b18b10ce5635a84834b26095a0ae5639dcb7520000000000000000000005cb",
            "0x000000000000000000000000c02aaa39b223fe8d0a0e5c4f27ead9083c756cc2",
            "0x000000000000000000000000a35b1b31ce002fbf2058d22f30f95d405200a15b"
          ],
          "data": "0x0000000000000000000000000000000000000000000000001c3061f5eb47f4c10000000000000000000000000000000000000000000000001bc16d674ec80000",
          "blockHash": "0x2392d0b6d0c42f5114d5179b17941bc8853a4ec43412d76b6fcc0b9f313a9f68",
          "blockNumber": "0x11d38f4",
          "transactionHash": "0x1f6cc57aca2957c2db2720bea262feb2031a5fd0c0f4c8108a83ac86aeee4338",
          "transactionIndex": "0x0",
          "logIndex": "0x3",
          "removed": false
        },
        {
          "address": "0xC02aaA39b223FE8D0A0e5C4F27eAD9083C756Cc2",
          "topics": [
            "0xddf252ad1be2c89b69c2b068fc378daa952ba7f163c4a11628f55a4df523b3ef",
            "0x0000000000000000000000007188a614a2d1ac434c5e1e6288cb65c554fa4600",
            "0x000000000000000000000000ba12222222228d8ba445958a75a0704d566bf2c8"
          ],
          "data": "0x0000000000000000000000000000000000000000000000001c3061f5eb47f4c1",
          "blockHash": "0x2392d0b6d0c42f5114d5179b17941bc8853a4ec43412d76b6fcc0b9f313a9f68",
          "blockNumber": "0x11d38f4",
          "transactionHash": "0x1f6cc57aca2957c2db2720bea262feb2031a5fd0c0f4c8108a83ac86aeee4338",
          "transactionIndex": "0x0",
          "logIndex": "0x4",
          "removed": false
        },
        {
          "address": "0xA35b1B31Ce002FBF2058D22F30f95D405200A15b",
          "topics": [
            "0xddf252ad1be2c89b69c2b068fc378daa952ba7f163c4a11628f55a4df523b3ef",
            "0x000000000000000000000000ba12222222228d8ba445958a75a0704d566bf2c8",
            "0x0000000000000000000000007188a614a2d1ac434c5e1e6288cb65c554fa4600"
          ],
          "data": "0x0000000000000000000000000000000000000000000000001bc16d674ec80000",
          "blockHash": "0x2392d0b6d0c42f5114d5179b17941bc8853a4ec43412d76b6fcc0b9f313a9f68",
          "blockNumber": "0x11d38f4",
          "transactionHash": "0x1f6cc57aca2957c2db2720bea262feb2031a5fd0c0f4c8108a83ac86aeee4338",
          "transactionIndex": "0x0",
          "logIndex": "0x5",
          "removed": false
        },
        {
          "address": "0xE8C1A6F98aD9a8b356283f1D9740e25D812CE566",
          "topics": [
            "0xe728fa61c700a3632cfd3973376b45b5f0bfdb3c2ea1946fd6d4fcda49e1d42f",
            "0x0000000000000000000000000000000000000000000000000000000000000001",
            "0x0000000000000000000000007188a614a2d1ac434c5e1e6288cb65c554fa4600"
          ],
          "data": "0x00000000000000000000000000000000000000000000000029a2241af62c0000",
          "blockHash": "0x2392d0b6d0c42f5114d5179b17941bc8853a4ec43412d76b6fcc0b9f313a9f68",
          "blockNumber": "0x11d38f4",
          "transactionHash": "0x1f6cc57aca2957c2db2720bea262feb2031a5fd0c0f4c8108a83ac86aeee4338",
          "transactionIndex": "0x0",
          "logIndex": "0x6",
          "removed": false
        },
        {
          "address": "0xA35b1B31Ce002FBF2058D22F30f95D405200A15b",
          "topics": [
            "0xddf252ad1be2c89b69c2b068fc378daa952ba7f163c4a11628f55a4df523b3ef",
            "0x0000000000000000000000007188a614a2d1ac434c5e1e6288cb65c554fa4600",
            "0x000000000000000000000000703ab4d4a369fa6909cf236a61f63c432bf2e68e"
          ],
          "data": "0x00000000000000000000000000000000000000000000000029a2241af62c0000",
          "blockHash": "0x2392d0b6d0c42f5114d5179b17941bc8853a4ec43412d76b6fcc0b9f313a9f68",
          "blockNumber": "0x11d38f4",
          "transactionHash": "0x1f6cc57aca2957c2db2720bea262feb2031a5fd0c0f4c8108a83ac86aeee4338",
          "transactionIndex": "0x0",
          "logIndex": "0x7",
          "removed": false
        },
        {
          "address": "0xE8C1A6F98aD9a8b356283f1D9740e25D812CE566",
          "topics": [
            "0xc125b447f095d22865ad610ebdc8ae9eff252e7d7011ca37e783c98a53970bc4",
            "0x0000000000000000000000000000000000000000000000000000000000000001",
            "0x0000000000000000000000001351257000a92de941aeaebb758e44dd7c8b809f",
            "0x0000000000000000000000007188a614a2d1ac434c5e1e6288cb65c554fa4600"
          ],
          "data": "0x00000000000000000000000000000000000000000000000029a2241af62c0000",
          "blockHash": "0x2392d0b6d0c42f5114d5179b17941bc8853a4ec43412d76b6fcc0b9f313a9f68",
          "blockNumber": "0x11d38f4",
          "transactionHash": "0x1f6cc57aca2957c2db2720bea262feb2031a5fd0c0f4c8108a83ac86aeee4338",
          "transactionIndex": "0x0",
          "logIndex": "0x8",
          "removed": false
        },
        {
          "address": "0xC02aaA39b223FE8D0A0e5C4F27eAD9083C756Cc2",
          "topics": [
            "0xddf252ad1be2c89b69c2b068fc378daa952ba7f163c4a11628f55a4df523b3ef",
            "0x000000000000000000000000e8c1a6f98ad9a8b356283f1d9740e25d812ce566",
            "0x0000000000000000000000007188a614a2d1ac434c5e1e6288cb65c554fa4600"
          ],
          "data": "0x0000000000000000000000000000000000000000000000001c311ab33457666b",
          "blockHash": "0x2392d0b6d0c42f5114d5179b17941bc8853a4ec43412d76b6fcc0b9f313a9f68",
          "blockNumber": "0x11d38f4",
          "transactionHash": "0x1f6cc57aca2957c2db2720bea262feb2031a5fd0c0f4c8108a83ac86aeee4338",
          "transactionIndex": "0x0",
          "logIndex": "0x9",
          "removed": false
        },
        {
          "address": "0xE8C1A6F98aD9a8b356283f1D9740e25D812CE566",
          "topics": [
            "0xe3e92e977f830d2a0b92c58e8866694b5dc929a35e2b95846f427de0f0bb412f",
            "0x0000000000000000000000000000000000000000000000000000000000000001",
            "0x0000000000000000000000001351257000a92de941aeaebb758e44dd7c8b809f",
            "0x0000000000000000000000007188a614a2d1ac434c5e1e6288cb65c554fa4600"
          ],
          "data": "0x0000000000000000000000000000000000000000000000001c311a590ac933790000000000000000000000000000000000000000033b2e46f5485254ed7663e900000000000000000000000001843050286f8a049fe8ba479c368c369a5bbdca",
          "blockHash": "0x2392d0b6d0c42f5114d5179b17941bc8853a4ec43412d76b6fcc0b9f313a9f68",
          "blockNumber": "0x11d38f4",
          "transactionHash": "0x1f6cc57aca2957c2db2720bea262feb2031a5fd0c0f4c8108a83ac86aeee4338",
          "transactionIndex": "0x0",
          "logIndex": "0xa",
          "removed": false
        },
        {
          "address": "0xC02aaA39b223FE8D0A0e5C4F27eAD9083C756Cc2",
          "topics": [
            "0xddf252ad1be2c89b69c2b068fc378daa952ba7f163c4a11628f55a4df523b3ef",
            "0x0000000000000000000000007188a614a2d1ac434c5e1e6288cb65c554fa4600",
            "0x000000000000000000000000109830a1aaad605bbf02a9dfa7b0b92ec2fb7daa"
          ],
          "data": "0x0000000000000000000000000000000000000000000000001c311ab33457666b",
          "blockHash": "0x2392d0b6d0c42f5114d5179b17941bc8853a4ec43412d76b6fcc0b9f313a9f68",
          "blockNumber": "0x11d38f4",
          "transactionHash": "0x1f6cc57aca2957c2db2720bea262feb2031a5fd0c0f4c8108a83ac86aeee4338",
          "transactionIndex": "0x0",
          "logIndex": "0xb",
          "removed": false
        },
        {
          "address": "0x109830a1AAaD605BbF02a9dFA7B0B92EC2FB7dAa",
          "topics": [
            "0xbdbdb71d7860376ba52b25a5028beea23581364a40522f6bcfb86bb1f2dca633",
            "0x0000000000000000000000007188a614a2d1ac434c5e1e6288cb65c554fa4600",
            "0x0000000000000000000000007188a614a2d1ac434c5e1e6288cb65c554fa4600"
          ],
          "data": "0x00000000000000000000000000000000000000000000000000000000000000000000000000000000000000000000000000000000000000001c3061f5eb47f4c100000000000000000000000000000000000000000000000000000000000000000000000000000000000000000000000000000000000000000000b8bd490f71aa",
          "blockHash": "0x2392d0b6d0c42f5114d5179b17941bc8853a4ec43412d76b6fcc0b9f313a9f68",
          "blockNumber": "0x11d38f4",
          "transactionHash": "0x1f6cc57aca2957c2db2720bea262feb2031a5fd0c0f4c8108a83ac86aeee4338",
          "transactionIndex": "0x0",
          "logIndex": "0xc",
          "removed": false
        }
      ],
      "status": "0x1",
      "logsBloom": "0x0400000000000088000001000000400000000000000040000022000000000000000a004400000000000000040000000002000000080000000004000000040000000000800000000000003008000020800000008000040000000880800000000000000000100000000000100000002080100000440000000000000010000000000000048000000200000000480000000000004000000000002000000000000000000000000000020000000000000000004000004400010000000100000000020000002202000000002100000000098000002040000000000000800000001040000000200001000000000000000040000000000000000001000000000000000000",
      "type": "0x2",
      "effectiveGasPrice": "0xfd70dd559"
    },
    {
      "transactionHash": "0x5a488417e70052d17b70c85ce1e7b6e0d78469100f37bab6c0602e3ebc629956",
      "transactionIndex": "0x0",
      "blockHash": "0x7b24e834889e99571b681763c878ad2324f4fc03c4f44311b7fcc77ac64c34e3",
      "blockNumber": "0x11d38f5",
      "from": "0x1351257000A92De941aEAebB758e44DD7c8B809f",
      "to": "0x7188A614a2d1AC434c5E1E6288cB65C554FA4600",
      "cumulativeGasUsed": "0x6b33a",
      "gasUsed": "0x6b33a",
      "contractAddress": null,
      "logs": [
        {
          "address": "0xA35b1B31Ce002FBF2058D22F30f95D405200A15b",
          "topics": [
            "0xddf252ad1be2c89b69c2b068fc378daa952ba7f163c4a11628f55a4df523b3ef",
            "0x0000000000000000000000001351257000a92de941aeaebb758e44dd7c8b809f",
            "0x0000000000000000000000007188a614a2d1ac434c5e1e6288cb65c554fa4600"
          ],
          "data": "0x0000000000000000000000000000000000000000000000000de0b6b3a7640000",
          "blockHash": "0x7b24e834889e99571b681763c878ad2324f4fc03c4f44311b7fcc77ac64c34e3",
          "blockNumber": "0x11d38f5",
          "transactionHash": "0x5a488417e70052d17b70c85ce1e7b6e0d78469100f37bab6c0602e3ebc629956",
          "transactionIndex": "0x0",
          "logIndex": "0x0",
          "removed": false
        },
        {
          "address": "0xC02aaA39b223FE8D0A0e5C4F27eAD9083C756Cc2",
          "topics": [
            "0xddf252ad1be2c89b69c2b068fc378daa952ba7f163c4a11628f55a4df523b3ef",
            "0x000000000000000000000000ba12222222228d8ba445958a75a0704d566bf2c8",
            "0x0000000000000000000000007188a614a2d1ac434c5e1e6288cb65c554fa4600"
          ],
          "data": "0x0000000000000000000000000000000000000000000000001c2d15c49b62459e",
          "blockHash": "0x7b24e834889e99571b681763c878ad2324f4fc03c4f44311b7fcc77ac64c34e3",
          "blockNumber": "0x11d38f5",
          "transactionHash": "0x5a488417e70052d17b70c85ce1e7b6e0d78469100f37bab6c0602e3ebc629956",
          "transactionIndex": "0x0",
          "logIndex": "0x1",
          "removed": false
        },
        {
          "address": "0xC02aaA39b223FE8D0A0e5C4F27eAD9083C756Cc2",
          "topics": [
            "0x7fcf532c15f0a6db0bd6d0e038bea71d30d808c7d98cb3bf7268a95bf5081b65",
            "0x0000000000000000000000007188a614a2d1ac434c5e1e6288cb65c554fa4600"
          ],
          "data": "0x0000000000000000000000000000000000000000000000001c2d15c49b62459e",
          "blockHash": "0x7b24e834889e99571b681763c878ad2324f4fc03c4f44311b7fcc77ac64c34e3",
          "blockNumber": "0x11d38f5",
          "transactionHash": "0x5a488417e70052d17b70c85ce1e7b6e0d78469100f37bab6c0602e3ebc629956",
          "transactionIndex": "0x0",
          "logIndex": "0x2",
          "removed": false
        },
        {
          "address": "0xA35b1B31Ce002FBF2058D22F30f95D405200A15b",
          "topics": [
            "0xddf252ad1be2c89b69c2b068fc378daa952ba7f163c4a11628f55a4df523b3ef",
            "0x0000000000000000000000000000000000000000000000000000000000000000",
            "0x0000000000000000000000007188a614a2d1ac434c5e1e6288cb65c554fa4600"
          ],
          "data": "0x0000000000000000000000000000000000000000000000001bc16d674ec80000",
          "blockHash": "0x7b24e834889e99571b681763c878ad2324f4fc03c4f44311b7fcc77ac64c34e3",
          "blockNumber": "0x11d38f5",
          "transactionHash": "0x5a488417e70052d17b70c85ce1e7b6e0d78469100f37bab6c0602e3ebc629956",
          "transactionIndex": "0x0",
          "logIndex": "0x3",
          "removed": false
        },
        {
          "address": "0xcf5EA1b38380f6aF39068375516Daf40Ed70D299",
          "topics": [
            "0xf5681f9d0db1b911ac18ee83d515a1cf1051853a9eae418316a2fdf7dea427c5",
            "0x0000000000000000000000007188a614a2d1ac434c5e1e6288cb65c554fa4600",
            "0x0000000000000000000000007188a614a2d1ac434c5e1e6288cb65c554fa4600"
          ],
          "data": "0x0000000000000000000000000000000000000000000000001c2d15c49b62459e0000000000000000000000000000000000000000000000001bc16d674ec80000",
          "blockHash": "0x7b24e834889e99571b681763c878ad2324f4fc03c4f44311b7fcc77ac64c34e3",
          "blockNumber": "0x11d38f5",
          "transactionHash": "0x5a488417e70052d17b70c85ce1e7b6e0d78469100f37bab6c0602e3ebc629956",
          "transactionIndex": "0x0",
          "logIndex": "0x4",
          "removed": false
        },
        {
          "address": "0xE8C1A6F98aD9a8b356283f1D9740e25D812CE566",
          "topics": [
            "0xe728fa61c700a3632cfd3973376b45b5f0bfdb3c2ea1946fd6d4fcda49e1d42f",
            "0x0000000000000000000000000000000000000000000000000000000000000001",
            "0x0000000000000000000000007188a614a2d1ac434c5e1e6288cb65c554fa4600"
          ],
          "data": "0x00000000000000000000000000000000000000000000000029a2241af62c0000",
          "blockHash": "0x7b24e834889e99571b681763c878ad2324f4fc03c4f44311b7fcc77ac64c34e3",
          "blockNumber": "0x11d38f5",
          "transactionHash": "0x5a488417e70052d17b70c85ce1e7b6e0d78469100f37bab6c0602e3ebc629956",
          "transactionIndex": "0x0",
          "logIndex": "0x5",
          "removed": false
        },
        {
          "address": "0xA35b1B31Ce002FBF2058D22F30f95D405200A15b",
          "topics": [
            "0xddf252ad1be2c89b69c2b068fc378daa952ba7f163c4a11628f55a4df523b3ef",
            "0x0000000000000000000000007188a614a2d1ac434c5e1e6288cb65c554fa4600",
            "0x000000000000000000000000703ab4d4a369fa6909cf236a61f63c432bf2e68e"
          ],
          "data": "0x00000000000000000000000000000000000000000000000029a2241af62c0000",
          "blockHash": "0x7b24e834889e99571b681763c878ad2324f4fc03c4f44311b7fcc77ac64c34e3",
          "blockNumber": "0x11d38f5",
          "transactionHash": "0x5a488417e70052d17b70c85ce1e7b6e0d78469100f37bab6c0602e3ebc629956",
          "transactionIndex": "0x0",
          "logIndex": "0x6",
          "removed": false
        },
        {
          "address": "0xE8C1A6F98aD9a8b356283f1D9740e25D812CE566",
          "topics": [
            "0xc125b447f095d22865ad610ebdc8ae9eff252e7d7011ca37e783c98a53970bc4",
            "0x0000000000000000000000000000000000000000000000000000000000000001",
            "0x0000000000000000000000001351257000a92de941aeaebb758e44dd7c8b809f",
            "0x0000000000000000000000007188a614a2d1ac434c5e1e6288cb65c554fa4600"
          ],
          "data": "0x00000000000000000000000000000000000000000000000029a2241af62c0000",
          "blockHash": "0x7b24e834889e99571b681763c878ad2324f4fc03c4f44311b7fcc77ac64c34e3",
          "blockNumber": "0x11d38f5",
          "transactionHash": "0x5a488417e70052d17b70c85ce1e7b6e0d78469100f37bab6c0602e3ebc629956",
          "transactionIndex": "0x0",
          "logIndex": "0x7",
          "removed": false
        },
        {
          "address": "0xC02aaA39b223FE8D0A0e5C4F27eAD9083C756Cc2",
          "topics": [
            "0xddf252ad1be2c89b69c2b068fc378daa952ba7f163c4a11628f55a4df523b3ef",
            "0x000000000000000000000000e8c1a6f98ad9a8b356283f1d9740e25d812ce566",
            "0x0000000000000000000000007188a614a2d1ac434c5e1e6288cb65c554fa4600"
          ],
          "data": "0x0000000000000000000000000000000000000000000000001c2d15c49b62459e",
          "blockHash": "0x7b24e834889e99571b681763c878ad2324f4fc03c4f44311b7fcc77ac64c34e3",
          "blockNumber": "0x11d38f5",
          "transactionHash": "0x5a488417e70052d17b70c85ce1e7b6e0d78469100f37bab6c0602e3ebc629956",
          "transactionIndex": "0x0",
          "logIndex": "0x8",
          "removed": false
        },
        {
          "address": "0xE8C1A6F98aD9a8b356283f1D9740e25D812CE566",
          "topics": [
            "0xe3e92e977f830d2a0b92c58e8866694b5dc929a35e2b95846f427de0f0bb412f",
            "0x0000000000000000000000000000000000000000000000000000000000000001",
            "0x0000000000000000000000001351257000a92de941aeaebb758e44dd7c8b809f",
            "0x0000000000000000000000007188a614a2d1ac434c5e1e6288cb65c554fa4600"
          ],
          "data": "0x0000000000000000000000000000000000000000000000001c2d156a2336108b0000000000000000000000000000000000000000033b2e46ffc5b304b27c779300000000000000000000000001df3b0c42f22ae8538d6fa3be5e2e55b9d0f8e1",
          "blockHash": "0x7b24e834889e99571b681763c878ad2324f4fc03c4f44311b7fcc77ac64c34e3",
          "blockNumber": "0x11d38f5",
          "transactionHash": "0x5a488417e70052d17b70c85ce1e7b6e0d78469100f37bab6c0602e3ebc629956",
          "transactionIndex": "0x0",
          "logIndex": "0x9",
          "removed": false
        },
        {
          "address": "0xC02aaA39b223FE8D0A0e5C4F27eAD9083C756Cc2",
          "topics": [
            "0xddf252ad1be2c89b69c2b068fc378daa952ba7f163c4a11628f55a4df523b3ef",
            "0x0000000000000000000000007188a614a2d1ac434c5e1e6288cb65c554fa4600",
            "0x000000000000000000000000ba12222222228d8ba445958a75a0704d566bf2c8"
          ],
          "data": "0x0000000000000000000000000000000000000000000000001c2d15c49b62459e",
          "blockHash": "0x7b24e834889e99571b681763c878ad2324f4fc03c4f44311b7fcc77ac64c34e3",
          "blockNumber": "0x11d38f5",
          "transactionHash": "0x5a488417e70052d17b70c85ce1e7b6e0d78469100f37bab6c0602e3ebc629956",
          "transactionIndex": "0x0",
          "logIndex": "0xa",
          "removed": false
        },
        {
          "address": "0xBA12222222228d8Ba445958a75a0704d566BF2C8",
          "topics": [
            "0x0d7d75e01ab95780d3cd1c8ec0dd6c2ce19e3a20427eec8bf53283b6fb8e95f0",
            "0x0000000000000000000000007188a614a2d1ac434c5e1e6288cb65c554fa4600",
            "0x000000000000000000000000c02aaa39b223fe8d0a0e5c4f27ead9083c756cc2"
          ],
          "data": "0x0000000000000000000000000000000000000000000000001c2d15c49b62459e0000000000000000000000000000000000000000000000000000000000000000",
          "blockHash": "0x7b24e834889e99571b681763c878ad2324f4fc03c4f44311b7fcc77ac64c34e3",
          "blockNumber": "0x11d38f5",
          "transactionHash": "0x5a488417e70052d17b70c85ce1e7b6e0d78469100f37bab6c0602e3ebc629956",
          "transactionIndex": "0x0",
          "logIndex": "0xb",
          "removed": false
        }
      ],
      "status": "0x1",
      "logsBloom": "0x04000000000000880000030000000000000000000000400000200000000000200008004400000000000000040000000002000000080000000004000000840000000000800000000000003008000000800000008000440000000880000000000000000000120000000000100000000800100000000000140000001010000000000000000000000000000000480000000000004000000000002000000000000000000000000100020000000000000000000000004000000000000100000000000000002202000000000100000000080010002000000000000002800002001060000000200001000000000000000000000000000000000000000000000000000000",
      "type": "0x2",
      "effectiveGasPrice": "0xfd70dd559"
    },
    {
      "transactionHash": "0xf9d93cdee30a1662e52983364e98966d787f40443d6e8acf617faf600abfa44b",
      "transactionIndex": "0x0",
      "blockHash": "0x98a6728974ead435139bace09a4e5483a0e7fbe78183771cca1d54a564bae262",
      "blockNumber": "0x11d38f6",
      "from": "0x1351257000A92De941aEAebB758e44DD7c8B809f",
      "to": "0xE95462273d31D457Bdb2C182869aCdE5c7aE49d2",
      "cumulativeGasUsed": "0x65d3e",
      "gasUsed": "0x65d3e",
      "contractAddress": null,
      "logs": [
        {
          "address": "0xf951E335afb289353dc249e82926178EaC7DEd78",
          "topics": [
            "0xddf252ad1be2c89b69c2b068fc378daa952ba7f163c4a11628f55a4df523b3ef",
            "0x0000000000000000000000001351257000a92de941aeaebb758e44dd7c8b809f",
            "0x000000000000000000000000e95462273d31d457bdb2c182869acde5c7ae49d2"
          ],
          "data": "0x0000000000000000000000000000000000000000000000000de0b6b3a7640000",
          "blockHash": "0x98a6728974ead435139bace09a4e5483a0e7fbe78183771cca1d54a564bae262",
          "blockNumber": "0x11d38f6",
          "transactionHash": "0xf9d93cdee30a1662e52983364e98966d787f40443d6e8acf617faf600abfa44b",
          "transactionIndex": "0x0",
          "logIndex": "0x0",
          "removed": false
        },
        {
          "address": "0xC02aaA39b223FE8D0A0e5C4F27eAD9083C756Cc2",
          "topics": [
            "0xddf252ad1be2c89b69c2b068fc378daa952ba7f163c4a11628f55a4df523b3ef",
            "0x000000000000000000000000ba12222222228d8ba445958a75a0704d566bf2c8",
            "0x000000000000000000000000e95462273d31d457bdb2c182869acde5c7ae49d2"
          ],
          "data": "0x0000000000000000000000000000000000000000000000001cfbbc2dc0ad11ff",
          "blockHash": "0x98a6728974ead435139bace09a4e5483a0e7fbe78183771cca1d54a564bae262",
          "blockNumber": "0x11d38f6",
          "transactionHash": "0xf9d93cdee30a1662e52983364e98966d787f40443d6e8acf617faf600abfa44b",
          "transactionIndex": "0x0",
          "logIndex": "0x1",
          "removed": false
        },
        {
          "address": "0xC02aaA39b223FE8D0A0e5C4F27eAD9083C756Cc2",
          "topics": [
            "0x7fcf532c15f0a6db0bd6d0e038bea71d30d808c7d98cb3bf7268a95bf5081b65",
            "0x000000000000000000000000e95462273d31d457bdb2c182869acde5c7ae49d2"
          ],
          "data": "0x0000000000000000000000000000000000000000000000001cfbbc2dc0ad11ff",
          "blockHash": "0x98a6728974ead435139bace09a4e5483a0e7fbe78183771cca1d54a564bae262",
          "blockNumber": "0x11d38f6",
          "transactionHash": "0xf9d93cdee30a1662e52983364e98966d787f40443d6e8acf617faf600abfa44b",
          "transactionIndex": "0x0",
          "logIndex": "0x2",
          "removed": false
        },
        {
          "address": "0xf951E335afb289353dc249e82926178EaC7DEd78",
          "topics": [
            "0xddf252ad1be2c89b69c2b068fc378daa952ba7f163c4a11628f55a4df523b3ef",
            "0x0000000000000000000000000000000000000000000000000000000000000000",
            "0x000000000000000000000000e95462273d31d457bdb2c182869acde5c7ae49d2"
          ],
          "data": "0x0000000000000000000000000000000000000000000000001bc16d674ec80000",
          "blockHash": "0x98a6728974ead435139bace09a4e5483a0e7fbe78183771cca1d54a564bae262",
          "blockNumber": "0x11d38f6",
          "transactionHash": "0xf9d93cdee30a1662e52983364e98966d787f40443d6e8acf617faf600abfa44b",
          "transactionIndex": "0x0",
          "logIndex": "0x3",
          "removed": false
        },
        {
          "address": "0xb3D9cf8E163bbc840195a97E81F8A34E295B8f39",
          "topics": [
            "0xbfe611b001dfcd411432f7bf0d79b82b4b2ee81511edac123a3403c357fb972a",
            "0x000000000000000000000000f951e335afb289353dc249e82926178eac7ded78"
          ],
          "data": "0x0000000000000000000000000000000000000000000000001cfbbc2dc0ad11ff",
          "blockHash": "0x98a6728974ead435139bace09a4e5483a0e7fbe78183771cca1d54a564bae262",
          "blockNumber": "0x11d38f6",
          "transactionHash": "0xf9d93cdee30a1662e52983364e98966d787f40443d6e8acf617faf600abfa44b",
          "transactionIndex": "0x0",
          "logIndex": "0x4",
          "removed": false
        },
        {
          "address": "0xf951E335afb289353dc249e82926178EaC7DEd78",
          "topics": [
            "0xe28a9e1df63912c0c77b586c53595df741cbbc554d6831e40f1b5453199a9630",
            "0x000000000000000000000000e95462273d31d457bdb2c182869acde5c7ae49d2",
            "0x0000000000000000000000000000000000000000000000000000000000000000"
          ],
          "data": "0x0000000000000000000000000000000000000000000000001cfbbc2dc0ad11ff0000000000000000000000000000000000000000000000001bc16d674ec80000000000000000000000000000000000000000000000000a6bc018cfdeb48529e2",
          "blockHash": "0x98a6728974ead435139bace09a4e5483a0e7fbe78183771cca1d54a564bae262",
          "blockNumber": "0x11d38f6",
          "transactionHash": "0xf9d93cdee30a1662e52983364e98966d787f40443d6e8acf617faf600abfa44b",
          "transactionIndex": "0x0",
          "logIndex": "0x5",
          "removed": false
        },
        {
          "address": "0xE8C1A6F98aD9a8b356283f1D9740e25D812CE566",
          "topics": [
            "0xe728fa61c700a3632cfd3973376b45b5f0bfdb3c2ea1946fd6d4fcda49e1d42f",
            "0x0000000000000000000000000000000000000000000000000000000000000002",
            "0x000000000000000000000000e95462273d31d457bdb2c182869acde5c7ae49d2"
          ],
          "data": "0x00000000000000000000000000000000000000000000000029a2241af62c0000",
          "blockHash": "0x98a6728974ead435139bace09a4e5483a0e7fbe78183771cca1d54a564bae262",
          "blockNumber": "0x11d38f6",
          "transactionHash": "0xf9d93cdee30a1662e52983364e98966d787f40443d6e8acf617faf600abfa44b",
          "transactionIndex": "0x0",
          "logIndex": "0x6",
          "removed": false
        },
        {
          "address": "0xf951E335afb289353dc249e82926178EaC7DEd78",
          "topics": [
            "0xddf252ad1be2c89b69c2b068fc378daa952ba7f163c4a11628f55a4df523b3ef",
            "0x000000000000000000000000e95462273d31d457bdb2c182869acde5c7ae49d2",
            "0x0000000000000000000000006913437d7274e11eda6b41a693b55b6c63080478"
          ],
          "data": "0x00000000000000000000000000000000000000000000000029a2241af62c0000",
          "blockHash": "0x98a6728974ead435139bace09a4e5483a0e7fbe78183771cca1d54a564bae262",
          "blockNumber": "0x11d38f6",
          "transactionHash": "0xf9d93cdee30a1662e52983364e98966d787f40443d6e8acf617faf600abfa44b",
          "transactionIndex": "0x0",
          "logIndex": "0x7",
          "removed": false
        },
        {
          "address": "0xE8C1A6F98aD9a8b356283f1D9740e25D812CE566",
          "topics": [
            "0xc125b447f095d22865ad610ebdc8ae9eff252e7d7011ca37e783c98a53970bc4",
            "0x0000000000000000000000000000000000000000000000000000000000000002",
            "0x0000000000000000000000001351257000a92de941aeaebb758e44dd7c8b809f",
            "0x000000000000000000000000e95462273d31d457bdb2c182869acde5c7ae49d2"
          ],
          "data": "0x00000000000000000000000000000000000000000000000029a2241af62c0000",
          "blockHash": "0x98a6728974ead435139bace09a4e5483a0e7fbe78183771cca1d54a564bae262",
          "blockNumber": "0x11d38f6",
          "transactionHash": "0xf9d93cdee30a1662e52983364e98966d787f40443d6e8acf617faf600abfa44b",
          "transactionIndex": "0x0",
          "logIndex": "0x8",
          "removed": false
        },
        {
          "address": "0xC02aaA39b223FE8D0A0e5C4F27eAD9083C756Cc2",
          "topics": [
            "0xddf252ad1be2c89b69c2b068fc378daa952ba7f163c4a11628f55a4df523b3ef",
            "0x000000000000000000000000e8c1a6f98ad9a8b356283f1d9740e25d812ce566",
            "0x000000000000000000000000e95462273d31d457bdb2c182869acde5c7ae49d2"
          ],
          "data": "0x0000000000000000000000000000000000000000000000001cfbbc2dc0ad11ff",
          "blockHash": "0x98a6728974ead435139bace09a4e5483a0e7fbe78183771cca1d54a564bae262",
          "blockNumber": "0x11d38f6",
          "transactionHash": "0xf9d93cdee30a1662e52983364e98966d787f40443d6e8acf617faf600abfa44b",
          "transactionIndex": "0x0",
          "logIndex": "0x9",
          "removed": false
        },
        {
          "address": "0xE8C1A6F98aD9a8b356283f1D9740e25D812CE566",
          "topics": [
            "0xe3e92e977f830d2a0b92c58e8866694b5dc929a35e2b95846f427de0f0bb412f",
            "0x0000000000000000000000000000000000000000000000000000000000000002",
            "0x0000000000000000000000001351257000a92de941aeaebb758e44dd7c8b809f",
            "0x000000000000000000000000e95462273d31d457bdb2c182869acde5c7ae49d2"
          ],
          "data": "0x0000000000000000000000000000000000000000000000001cfbbc2dc0ad11ff0000000000000000000000000000000000000000033b2e3c9fd0803ce8000000000000000000000000000000023ce18143a7e247cb51a1cce6babe68d1d0f8e1",
          "blockHash": "0x98a6728974ead435139bace09a4e5483a0e7fbe78183771cca1d54a564bae262",
          "blockNumber": "0x11d38f6",
          "transactionHash": "0xf9d93cdee30a1662e52983364e98966d787f40443d6e8acf617faf600abfa44b",
          "transactionIndex": "0x0",
          "logIndex": "0xa",
          "removed": false
        },
        {
          "address": "0xC02aaA39b223FE8D0A0e5C4F27eAD9083C756Cc2",
          "topics": [
            "0xddf252ad1be2c89b69c2b068fc378daa952ba7f163c4a11628f55a4df523b3ef",
            "0x000000000000000000000000e95462273d31d457bdb2c182869acde5c7ae49d2",
            "0x000000000000000000000000ba12222222228d8ba445958a75a0704d566bf2c8"
          ],
          "data": "0x0000000000000000000000000000000000000000000000001cfbbc2dc0ad11ff",
          "blockHash": "0x98a6728974ead435139bace09a4e5483a0e7fbe78183771cca1d54a564bae262",
          "blockNumber": "0x11d38f6",
          "transactionHash": "0xf9d93cdee30a1662e52983364e98966d787f40443d6e8acf617faf600abfa44b",
          "transactionIndex": "0x0",
          "logIndex": "0xb",
          "removed": false
        },
        {
          "address": "0xBA12222222228d8Ba445958a75a0704d566BF2C8",
          "topics": [
            "0x0d7d75e01ab95780d3cd1c8ec0dd6c2ce19e3a20427eec8bf53283b6fb8e95f0",
            "0x000000000000000000000000e95462273d31d457bdb2c182869acde5c7ae49d2",
            "0x000000000000000000000000c02aaa39b223fe8d0a0e5c4f27ead9083c756cc2"
          ],
          "data": "0x0000000000000000000000000000000000000000000000001cfbbc2dc0ad11ff0000000000000000000000000000000000000000000000000000000000000000",
          "blockHash": "0x98a6728974ead435139bace09a4e5483a0e7fbe78183771cca1d54a564bae262",
          "blockNumber": "0x11d38f6",
          "transactionHash": "0xf9d93cdee30a1662e52983364e98966d787f40443d6e8acf617faf600abfa44b",
          "transactionIndex": "0x0",
          "logIndex": "0xc",
          "removed": false
        }
      ],
      "status": "0x1",
      "logsBloom": "0x04000000000000880008030000008000200000000000400000200000000000200000004400000004400000000000000002000000080000000004040000000000000000800000000000101008000000800000108000400000400800000000000000004000120000000000100000000800100000000000040000001010000000000000000000000000000000400800000000000000000000002000000000000000000000000000000000000100000000000000004000000000000100000000000000800202000000400100000000080000002020000000000000800002001060000000200000004000000000000000000000000010108000000000000040000000",
      "type": "0x2",
      "effectiveGasPrice": "0xfd70dd559"
    },
    {
      "transactionHash": "0x6b2f9d1f6dd3d09ecfa4c5ad83d19bad43a44b215b1736f5fddb120f46f1691f",
      "transactionIndex": "0x0",
      "blockHash": "0xad02e2705bb0cae83b3b257644432e08d7953890bab8dc44df89514b904bb122",
      "blockNumber": "0x11d38f7",
      "from": "0x1351257000A92De941aEAebB758e44DD7c8B809f",
      "to": "0xE95462273d31D457Bdb2C182869aCdE5c7aE49d2",
      "cumulativeGasUsed": "0x60531",
      "gasUsed": "0x60531",
      "contractAddress": null,
      "logs": [
        {
          "address": "0xf951E335afb289353dc249e82926178EaC7DEd78",
          "topics": [
            "0xddf252ad1be2c89b69c2b068fc378daa952ba7f163c4a11628f55a4df523b3ef",
            "0x0000000000000000000000001351257000a92de941aeaebb758e44dd7c8b809f",
            "0x000000000000000000000000e95462273d31d457bdb2c182869acde5c7ae49d2"
          ],
          "data": "0x0000000000000000000000000000000000000000000000000de0b6b3a7640000",
          "blockHash": "0xad02e2705bb0cae83b3b257644432e08d7953890bab8dc44df89514b904bb122",
          "blockNumber": "0x11d38f7",
          "transactionHash": "0x6b2f9d1f6dd3d09ecfa4c5ad83d19bad43a44b215b1736f5fddb120f46f1691f",
          "transactionIndex": "0x0",
          "logIndex": "0x0",
          "removed": false
        },
        {
          "address": "0xf951E335afb289353dc249e82926178EaC7DEd78",
          "topics": [
            "0xddf252ad1be2c89b69c2b068fc378daa952ba7f163c4a11628f55a4df523b3ef",
            "0x000000000000000000000000ba12222222228d8ba445958a75a0704d566bf2c8",
            "0x000000000000000000000000e95462273d31d457bdb2c182869acde5c7ae49d2"
          ],
          "data": "0x0000000000000000000000000000000000000000000000001bc16d674ec80000",
          "blockHash": "0xad02e2705bb0cae83b3b257644432e08d7953890bab8dc44df89514b904bb122",
          "blockNumber": "0x11d38f7",
          "transactionHash": "0x6b2f9d1f6dd3d09ecfa4c5ad83d19bad43a44b215b1736f5fddb120f46f1691f",
          "transactionIndex": "0x0",
          "logIndex": "0x1",
          "removed": false
        },
        {
          "address": "0xE8C1A6F98aD9a8b356283f1D9740e25D812CE566",
          "topics": [
            "0xe728fa61c700a3632cfd3973376b45b5f0bfdb3c2ea1946fd6d4fcda49e1d42f",
            "0x0000000000000000000000000000000000000000000000000000000000000002",
            "0x000000000000000000000000e95462273d31d457bdb2c182869acde5c7ae49d2"
          ],
          "data": "0x00000000000000000000000000000000000000000000000029a2241af62c0000",
          "blockHash": "0xad02e2705bb0cae83b3b257644432e08d7953890bab8dc44df89514b904bb122",
          "blockNumber": "0x11d38f7",
          "transactionHash": "0x6b2f9d1f6dd3d09ecfa4c5ad83d19bad43a44b215b1736f5fddb120f46f1691f",
          "transactionIndex": "0x0",
          "logIndex": "0x2",
          "removed": false
        },
        {
          "address": "0xf951E335afb289353dc249e82926178EaC7DEd78",
          "topics": [
            "0xddf252ad1be2c89b69c2b068fc378daa952ba7f163c4a11628f55a4df523b3ef",
            "0x000000000000000000000000e95462273d31d457bdb2c182869acde5c7ae49d2",
            "0x0000000000000000000000006913437d7274e11eda6b41a693b55b6c63080478"
          ],
          "data": "0x00000000000000000000000000000000000000000000000029a2241af62c0000",
          "blockHash": "0xad02e2705bb0cae83b3b257644432e08d7953890bab8dc44df89514b904bb122",
          "blockNumber": "0x11d38f7",
          "transactionHash": "0x6b2f9d1f6dd3d09ecfa4c5ad83d19bad43a44b215b1736f5fddb120f46f1691f",
          "transactionIndex": "0x0",
          "logIndex": "0x3",
          "removed": false
        },
        {
          "address": "0xE8C1A6F98aD9a8b356283f1D9740e25D812CE566",
          "topics": [
            "0xc125b447f095d22865ad610ebdc8ae9eff252e7d7011ca37e783c98a53970bc4",
            "0x0000000000000000000000000000000000000000000000000000000000000002",
            "0x0000000000000000000000001351257000a92de941aeaebb758e44dd7c8b809f",
            "0x000000000000000000000000e95462273d31d457bdb2c182869acde5c7ae49d2"
          ],
          "data": "0x00000000000000000000000000000000000000000000000029a2241af62c0000",
          "blockHash": "0xad02e2705bb0cae83b3b257644432e08d7953890bab8dc44df89514b904bb122",
          "blockNumber": "0x11d38f7",
          "transactionHash": "0x6b2f9d1f6dd3d09ecfa4c5ad83d19bad43a44b215b1736f5fddb120f46f1691f",
          "transactionIndex": "0x0",
          "logIndex": "0x4",
          "removed": false
        },
        {
          "address": "0xC02aaA39b223FE8D0A0e5C4F27eAD9083C756Cc2",
          "topics": [
            "0xddf252ad1be2c89b69c2b068fc378daa952ba7f163c4a11628f55a4df523b3ef",
            "0x000000000000000000000000e8c1a6f98ad9a8b356283f1d9740e25d812ce566",
            "0x000000000000000000000000e95462273d31d457bdb2c182869acde5c7ae49d2"
          ],
          "data": "0x0000000000000000000000000000000000000000000000001cfbbc2dc0ad11ff",
          "blockHash": "0xad02e2705bb0cae83b3b257644432e08d7953890bab8dc44df89514b904bb122",
          "blockNumber": "0x11d38f7",
          "transactionHash": "0x6b2f9d1f6dd3d09ecfa4c5ad83d19bad43a44b215b1736f5fddb120f46f1691f",
          "transactionIndex": "0x0",
          "logIndex": "0x5",
          "removed": false
        },
        {
          "address": "0xE8C1A6F98aD9a8b356283f1D9740e25D812CE566",
          "topics": [
            "0xe3e92e977f830d2a0b92c58e8866694b5dc929a35e2b95846f427de0f0bb412f",
            "0x0000000000000000000000000000000000000000000000000000000000000002",
            "0x0000000000000000000000001351257000a92de941aeaebb758e44dd7c8b809f",
            "0x000000000000000000000000e95462273d31d457bdb2c182869acde5c7ae49d2"
          ],
          "data": "0x0000000000000000000000000000000000000000000000001cfbbc0de2022dcf0000000000000000000000000000000000000000033b2e402d5fc93292ac2070000000000000000000000000029a87f6ab57adb675fafef41748b12128dea301",
          "blockHash": "0xad02e2705bb0cae83b3b257644432e08d7953890bab8dc44df89514b904bb122",
          "blockNumber": "0x11d38f7",
          "transactionHash": "0x6b2f9d1f6dd3d09ecfa4c5ad83d19bad43a44b215b1736f5fddb120f46f1691f",
          "transactionIndex": "0x0",
          "logIndex": "0x6",
          "removed": false
        },
        {
          "address": "0xC02aaA39b223FE8D0A0e5C4F27eAD9083C756Cc2",
          "topics": [
            "0x7fcf532c15f0a6db0bd6d0e038bea71d30d808c7d98cb3bf7268a95bf5081b65",
            "0x000000000000000000000000e95462273d31d457bdb2c182869acde5c7ae49d2"
          ],
          "data": "0x0000000000000000000000000000000000000000000000001cfbbc2dc0ad11ff",
          "blockHash": "0xad02e2705bb0cae83b3b257644432e08d7953890bab8dc44df89514b904bb122",
          "blockNumber": "0x11d38f7",
          "transactionHash": "0x6b2f9d1f6dd3d09ecfa4c5ad83d19bad43a44b215b1736f5fddb120f46f1691f",
          "transactionIndex": "0x0",
          "logIndex": "0x7",
          "removed": false
        },
        {
          "address": "0xf951E335afb289353dc249e82926178EaC7DEd78",
          "topics": [
            "0xddf252ad1be2c89b69c2b068fc378daa952ba7f163c4a11628f55a4df523b3ef",
            "0x0000000000000000000000000000000000000000000000000000000000000000",
            "0x000000000000000000000000e95462273d31d457bdb2c182869acde5c7ae49d2"
          ],
          "data": "0x0000000000000000000000000000000000000000000000001bc16d674ec80000",
          "blockHash": "0xad02e2705bb0cae83b3b257644432e08d7953890bab8dc44df89514b904bb122",
          "blockNumber": "0x11d38f7",
          "transactionHash": "0x6b2f9d1f6dd3d09ecfa4c5ad83d19bad43a44b215b1736f5fddb120f46f1691f",
          "transactionIndex": "0x0",
          "logIndex": "0x8",
          "removed": false
        },
        {
          "address": "0xb3D9cf8E163bbc840195a97E81F8A34E295B8f39",
          "topics": [
            "0xbfe611b001dfcd411432f7bf0d79b82b4b2ee81511edac123a3403c357fb972a",
            "0x000000000000000000000000f951e335afb289353dc249e82926178eac7ded78"
          ],
          "data": "0x0000000000000000000000000000000000000000000000001cfbbc2dc0ad11ff",
          "blockHash": "0xad02e2705bb0cae83b3b257644432e08d7953890bab8dc44df89514b904bb122",
          "blockNumber": "0x11d38f7",
          "transactionHash": "0x6b2f9d1f6dd3d09ecfa4c5ad83d19bad43a44b215b1736f5fddb120f46f1691f",
          "transactionIndex": "0x0",
          "logIndex": "0x9",
          "removed": false
        },
        {
          "address": "0xf951E335afb289353dc249e82926178EaC7DEd78",
          "topics": [
            "0xe28a9e1df63912c0c77b586c53595df741cbbc554d6831e40f1b5453199a9630",
            "0x000000000000000000000000e95462273d31d457bdb2c182869acde5c7ae49d2",
            "0x0000000000000000000000000000000000000000000000000000000000000000"
          ],
          "data": "0x0000000000000000000000000000000000000000000000001cfbbc2dc0ad11ff0000000000000000000000000000000000000000000000001bc16d674ec80000000000000000000000000000000000000000000000000a6bdd148c0c75323be1",
          "blockHash": "0xad02e2705bb0cae83b3b257644432e08d7953890bab8dc44df89514b904bb122",
          "blockNumber": "0x11d38f7",
          "transactionHash": "0x6b2f9d1f6dd3d09ecfa4c5ad83d19bad43a44b215b1736f5fddb120f46f1691f",
          "transactionIndex": "0x0",
          "logIndex": "0xa",
          "removed": false
        },
        {
          "address": "0xf951E335afb289353dc249e82926178EaC7DEd78",
          "topics": [
            "0xddf252ad1be2c89b69c2b068fc378daa952ba7f163c4a11628f55a4df523b3ef",
            "0x000000000000000000000000e95462273d31d457bdb2c182869acde5c7ae49d2",
            "0x000000000000000000000000ba12222222228d8ba445958a75a0704d566bf2c8"
          ],
          "data": "0x0000000000000000000000000000000000000000000000001bc16d674ec80000",
          "blockHash": "0xad02e2705bb0cae83b3b257644432e08d7953890bab8dc44df89514b904bb122",
          "blockNumber": "0x11d38f7",
          "transactionHash": "0x6b2f9d1f6dd3d09ecfa4c5ad83d19bad43a44b215b1736f5fddb120f46f1691f",
          "transactionIndex": "0x0",
          "logIndex": "0xb",
          "removed": false
        },
        {
          "address": "0xBA12222222228d8Ba445958a75a0704d566BF2C8",
          "topics": [
            "0x0d7d75e01ab95780d3cd1c8ec0dd6c2ce19e3a20427eec8bf53283b6fb8e95f0",
            "0x000000000000000000000000e95462273d31d457bdb2c182869acde5c7ae49d2",
            "0x000000000000000000000000f951e335afb289353dc249e82926178eac7ded78"
          ],
          "data": "0x0000000000000000000000000000000000000000000000001bc16d674ec800000000000000000000000000000000000000000000000000000000000000000000",
          "blockHash": "0xad02e2705bb0cae83b3b257644432e08d7953890bab8dc44df89514b904bb122",
          "blockNumber": "0x11d38f7",
          "transactionHash": "0x6b2f9d1f6dd3d09ecfa4c5ad83d19bad43a44b215b1736f5fddb120f46f1691f",
          "transactionIndex": "0x0",
          "logIndex": "0xc",
          "removed": false
        }
      ],
      "status": "0x1",
      "logsBloom": "0x04000000000000880008030000008000200000000000400000200000000000200000004400000004400000000000000002000000080000000004040000000000000000800000000000101008000000000000108000400000400800000000000000004000120000000000100000000800100000000000040000001010000000000000000000000000000000000800000000000000000000002000000000000000000000000000000000000100000000000000004000000000000100000000000000800202000000400100000000000000002020000000000000800002001060000000200000004000000000000000000000000010108000000000000040000000",
      "type": "0x2",
      "effectiveGasPrice": "0xfd70dd559"
    },
    {
      "transactionHash": "0x8f3a92b9e63e38806bbabdb4574b2874fc5c6c70876b1355efa52972f6f193c3",
      "transactionIndex": "0x0",
      "blockHash": "0x5fd4cc843e22aa02a4f3f6e0f208fb6c9349b0bf6368b448dab2327b2539ce75",
      "blockNumber": "0x11d38f8",
      "from": "0x1351257000A92De941aEAebB758e44DD7c8B809f",
      "to": "0x7aB10847e0F2225cDfD1334450bE33B4f5F08c3F",
      "cumulativeGasUsed": "0x68d9e",
      "gasUsed": "0x68d9e",
      "contractAddress": null,
      "logs": [
        {
          "address": "0x7f39C581F595B53c5cb19bD0b3f8dA6c935E2Ca0",
          "topics": [
            "0xddf252ad1be2c89b69c2b068fc378daa952ba7f163c4a11628f55a4df523b3ef",
            "0x0000000000000000000000001351257000a92de941aeaebb758e44dd7c8b809f",
            "0x0000000000000000000000007ab10847e0f2225cdfd1334450be33b4f5f08c3f"
          ],
          "data": "0x0000000000000000000000000000000000000000000000000de0b6b3a7640000",
          "blockHash": "0x5fd4cc843e22aa02a4f3f6e0f208fb6c9349b0bf6368b448dab2327b2539ce75",
          "blockNumber": "0x11d38f8",
          "transactionHash": "0x8f3a92b9e63e38806bbabdb4574b2874fc5c6c70876b1355efa52972f6f193c3",
          "transactionIndex": "0x0",
          "logIndex": "0x0",
          "removed": false
        },
        {
          "address": "0x7f39C581F595B53c5cb19bD0b3f8dA6c935E2Ca0",
          "topics": [
            "0x8c5be1e5ebec7d5bd14f71427d1e84f3dd0314c0f7b2291e5b200ac8c7c3b925",
            "0x0000000000000000000000001351257000a92de941aeaebb758e44dd7c8b809f",
            "0x0000000000000000000000007ab10847e0f2225cdfd1334450be33b4f5f08c3f"
          ],
          "data": "0xffffffffffffffffffffffffffffffffffffffffffffffffd65ddbe509d3ffff",
          "blockHash": "0x5fd4cc843e22aa02a4f3f6e0f208fb6c9349b0bf6368b448dab2327b2539ce75",
          "blockNumber": "0x11d38f8",
          "transactionHash": "0x8f3a92b9e63e38806bbabdb4574b2874fc5c6c70876b1355efa52972f6f193c3",
          "transactionIndex": "0x0",
          "logIndex": "0x1",
          "removed": false
        },
        {
          "address": "0xC02aaA39b223FE8D0A0e5C4F27eAD9083C756Cc2",
          "topics": [
            "0xddf252ad1be2c89b69c2b068fc378daa952ba7f163c4a11628f55a4df523b3ef",
            "0x000000000000000000000000ba12222222228d8ba445958a75a0704d566bf2c8",
            "0x0000000000000000000000007ab10847e0f2225cdfd1334450be33b4f5f08c3f"
          ],
          "data": "0x0000000000000000000000000000000000000000000000001fe36ec8bd166e94",
          "blockHash": "0x5fd4cc843e22aa02a4f3f6e0f208fb6c9349b0bf6368b448dab2327b2539ce75",
          "blockNumber": "0x11d38f8",
          "transactionHash": "0x8f3a92b9e63e38806bbabdb4574b2874fc5c6c70876b1355efa52972f6f193c3",
          "transactionIndex": "0x0",
          "logIndex": "0x2",
          "removed": false
        },
        {
          "address": "0xC02aaA39b223FE8D0A0e5C4F27eAD9083C756Cc2",
          "topics": [
            "0x7fcf532c15f0a6db0bd6d0e038bea71d30d808c7d98cb3bf7268a95bf5081b65",
            "0x0000000000000000000000007ab10847e0f2225cdfd1334450be33b4f5f08c3f"
          ],
          "data": "0x0000000000000000000000000000000000000000000000001fe36ec8bd166e94",
          "blockHash": "0x5fd4cc843e22aa02a4f3f6e0f208fb6c9349b0bf6368b448dab2327b2539ce75",
          "blockNumber": "0x11d38f8",
          "transactionHash": "0x8f3a92b9e63e38806bbabdb4574b2874fc5c6c70876b1355efa52972f6f193c3",
          "transactionIndex": "0x0",
          "logIndex": "0x3",
          "removed": false
        },
        {
          "address": "0xae7ab96520DE3A18E5e111B5EaAb095312D7fE84",
          "topics": [
            "0x96a25c8ce0baabc1fdefd93e9ed25d8e092a3332f3aa9a41722b5697231d1d1a",
            "0x0000000000000000000000007f39c581f595b53c5cb19bd0b3f8da6c935e2ca0"
          ],
          "data": "0x0000000000000000000000000000000000000000000000001fe36ec8bd166e940000000000000000000000000000000000000000000000000000000000000000",
          "blockHash": "0x5fd4cc843e22aa02a4f3f6e0f208fb6c9349b0bf6368b448dab2327b2539ce75",
          "blockNumber": "0x11d38f8",
          "transactionHash": "0x8f3a92b9e63e38806bbabdb4574b2874fc5c6c70876b1355efa52972f6f193c3",
          "transactionIndex": "0x0",
          "logIndex": "0x4",
          "removed": false
        },
        {
          "address": "0xae7ab96520DE3A18E5e111B5EaAb095312D7fE84",
          "topics": [
            "0xddf252ad1be2c89b69c2b068fc378daa952ba7f163c4a11628f55a4df523b3ef",
            "0x0000000000000000000000000000000000000000000000000000000000000000",
            "0x0000000000000000000000007f39c581f595b53c5cb19bd0b3f8da6c935e2ca0"
          ],
          "data": "0x0000000000000000000000000000000000000000000000001fe36ec8bd166e93",
          "blockHash": "0x5fd4cc843e22aa02a4f3f6e0f208fb6c9349b0bf6368b448dab2327b2539ce75",
          "blockNumber": "0x11d38f8",
          "transactionHash": "0x8f3a92b9e63e38806bbabdb4574b2874fc5c6c70876b1355efa52972f6f193c3",
          "transactionIndex": "0x0",
          "logIndex": "0x5",
          "removed": false
        },
        {
          "address": "0xae7ab96520DE3A18E5e111B5EaAb095312D7fE84",
          "topics": [
            "0x9d9c909296d9c674451c0c24f02cb64981eb3b727f99865939192f880a755dcb",
            "0x0000000000000000000000000000000000000000000000000000000000000000",
            "0x0000000000000000000000007f39c581f595b53c5cb19bd0b3f8da6c935e2ca0"
          ],
          "data": "0x0000000000000000000000000000000000000000000000001bc16d674ec80000",
          "blockHash": "0x5fd4cc843e22aa02a4f3f6e0f208fb6c9349b0bf6368b448dab2327b2539ce75",
          "blockNumber": "0x11d38f8",
          "transactionHash": "0x8f3a92b9e63e38806bbabdb4574b2874fc5c6c70876b1355efa52972f6f193c3",
          "transactionIndex": "0x0",
          "logIndex": "0x6",
          "removed": false
        },
        {
          "address": "0x7f39C581F595B53c5cb19bD0b3f8dA6c935E2Ca0",
          "topics": [
            "0xddf252ad1be2c89b69c2b068fc378daa952ba7f163c4a11628f55a4df523b3ef",
            "0x0000000000000000000000000000000000000000000000000000000000000000",
            "0x0000000000000000000000007ab10847e0f2225cdfd1334450be33b4f5f08c3f"
          ],
          "data": "0x0000000000000000000000000000000000000000000000001bc16d674ec80000",
          "blockHash": "0x5fd4cc843e22aa02a4f3f6e0f208fb6c9349b0bf6368b448dab2327b2539ce75",
          "blockNumber": "0x11d38f8",
          "transactionHash": "0x8f3a92b9e63e38806bbabdb4574b2874fc5c6c70876b1355efa52972f6f193c3",
          "transactionIndex": "0x0",
          "logIndex": "0x7",
          "removed": false
        },
        {
          "address": "0xE8C1A6F98aD9a8b356283f1D9740e25D812CE566",
          "topics": [
            "0xe728fa61c700a3632cfd3973376b45b5f0bfdb3c2ea1946fd6d4fcda49e1d42f",
            "0x0000000000000000000000000000000000000000000000000000000000000000",
            "0x0000000000000000000000007ab10847e0f2225cdfd1334450be33b4f5f08c3f"
          ],
          "data": "0x00000000000000000000000000000000000000000000000029a2241af62c0000",
          "blockHash": "0x5fd4cc843e22aa02a4f3f6e0f208fb6c9349b0bf6368b448dab2327b2539ce75",
          "blockNumber": "0x11d38f8",
          "transactionHash": "0x8f3a92b9e63e38806bbabdb4574b2874fc5c6c70876b1355efa52972f6f193c3",
          "transactionIndex": "0x0",
          "logIndex": "0x8",
          "removed": false
        },
        {
          "address": "0x7f39C581F595B53c5cb19bD0b3f8dA6c935E2Ca0",
          "topics": [
            "0xddf252ad1be2c89b69c2b068fc378daa952ba7f163c4a11628f55a4df523b3ef",
            "0x0000000000000000000000007ab10847e0f2225cdfd1334450be33b4f5f08c3f",
            "0x000000000000000000000000cb10d879e85d8848dbbf815fcbc54adcb83ac944"
          ],
          "data": "0x00000000000000000000000000000000000000000000000029a2241af62c0000",
          "blockHash": "0x5fd4cc843e22aa02a4f3f6e0f208fb6c9349b0bf6368b448dab2327b2539ce75",
          "blockNumber": "0x11d38f8",
          "transactionHash": "0x8f3a92b9e63e38806bbabdb4574b2874fc5c6c70876b1355efa52972f6f193c3",
          "transactionIndex": "0x0",
          "logIndex": "0x9",
          "removed": false
        },
        {
          "address": "0x7f39C581F595B53c5cb19bD0b3f8dA6c935E2Ca0",
          "topics": [
            "0x8c5be1e5ebec7d5bd14f71427d1e84f3dd0314c0f7b2291e5b200ac8c7c3b925",
            "0x0000000000000000000000007ab10847e0f2225cdfd1334450be33b4f5f08c3f",
            "0x000000000000000000000000cb10d879e85d8848dbbf815fcbc54adcb83ac944"
          ],
          "data": "0xffffffffffffffffffffffffffffffffffffffffffffffff831993af1d7bffff",
          "blockHash": "0x5fd4cc843e22aa02a4f3f6e0f208fb6c9349b0bf6368b448dab2327b2539ce75",
          "blockNumber": "0x11d38f8",
          "transactionHash": "0x8f3a92b9e63e38806bbabdb4574b2874fc5c6c70876b1355efa52972f6f193c3",
          "transactionIndex": "0x0",
          "logIndex": "0xa",
          "removed": false
        },
        {
          "address": "0xE8C1A6F98aD9a8b356283f1D9740e25D812CE566",
          "topics": [
            "0xc125b447f095d22865ad610ebdc8ae9eff252e7d7011ca37e783c98a53970bc4",
            "0x0000000000000000000000000000000000000000000000000000000000000000",
            "0x0000000000000000000000001351257000a92de941aeaebb758e44dd7c8b809f",
            "0x0000000000000000000000007ab10847e0f2225cdfd1334450be33b4f5f08c3f"
          ],
          "data": "0x00000000000000000000000000000000000000000000000029a2241af62c0000",
          "blockHash": "0x5fd4cc843e22aa02a4f3f6e0f208fb6c9349b0bf6368b448dab2327b2539ce75",
          "blockNumber": "0x11d38f8",
          "transactionHash": "0x8f3a92b9e63e38806bbabdb4574b2874fc5c6c70876b1355efa52972f6f193c3",
          "transactionIndex": "0x0",
          "logIndex": "0xb",
          "removed": false
        },
        {
          "address": "0xC02aaA39b223FE8D0A0e5C4F27eAD9083C756Cc2",
          "topics": [
            "0xddf252ad1be2c89b69c2b068fc378daa952ba7f163c4a11628f55a4df523b3ef",
            "0x000000000000000000000000e8c1a6f98ad9a8b356283f1d9740e25d812ce566",
            "0x0000000000000000000000007ab10847e0f2225cdfd1334450be33b4f5f08c3f"
          ],
          "data": "0x0000000000000000000000000000000000000000000000001fe36ec8bd166e94",
          "blockHash": "0x5fd4cc843e22aa02a4f3f6e0f208fb6c9349b0bf6368b448dab2327b2539ce75",
          "blockNumber": "0x11d38f8",
          "transactionHash": "0x8f3a92b9e63e38806bbabdb4574b2874fc5c6c70876b1355efa52972f6f193c3",
          "transactionIndex": "0x0",
          "logIndex": "0xc",
          "removed": false
        },
        {
          "address": "0xE8C1A6F98aD9a8b356283f1D9740e25D812CE566",
          "topics": [
            "0xe3e92e977f830d2a0b92c58e8866694b5dc929a35e2b95846f427de0f0bb412f",
            "0x0000000000000000000000000000000000000000000000000000000000000000",
            "0x0000000000000000000000001351257000a92de941aeaebb758e44dd7c8b809f",
            "0x0000000000000000000000007ab10847e0f2225cdfd1334450be33b4f5f08c3f"
          ],
          "data": "0x0000000000000000000000000000000000000000000000001fe36eb1037c98160000000000000000000000000000000000000000033b2e3f073cd11485517b8a0000000000000000000000000301916ffc0d738d90debaa3006396f5b3253078",
          "blockHash": "0x5fd4cc843e22aa02a4f3f6e0f208fb6c9349b0bf6368b448dab2327b2539ce75",
          "blockNumber": "0x11d38f8",
          "transactionHash": "0x8f3a92b9e63e38806bbabdb4574b2874fc5c6c70876b1355efa52972f6f193c3",
          "transactionIndex": "0x0",
          "logIndex": "0xd",
          "removed": false
        },
        {
          "address": "0xC02aaA39b223FE8D0A0e5C4F27eAD9083C756Cc2",
          "topics": [
            "0xddf252ad1be2c89b69c2b068fc378daa952ba7f163c4a11628f55a4df523b3ef",
            "0x0000000000000000000000007ab10847e0f2225cdfd1334450be33b4f5f08c3f",
            "0x000000000000000000000000ba12222222228d8ba445958a75a0704d566bf2c8"
          ],
          "data": "0x0000000000000000000000000000000000000000000000001fe36ec8bd166e94",
          "blockHash": "0x5fd4cc843e22aa02a4f3f6e0f208fb6c9349b0bf6368b448dab2327b2539ce75",
          "blockNumber": "0x11d38f8",
          "transactionHash": "0x8f3a92b9e63e38806bbabdb4574b2874fc5c6c70876b1355efa52972f6f193c3",
          "transactionIndex": "0x0",
          "logIndex": "0xe",
          "removed": false
        },
        {
          "address": "0xBA12222222228d8Ba445958a75a0704d566BF2C8",
          "topics": [
            "0x0d7d75e01ab95780d3cd1c8ec0dd6c2ce19e3a20427eec8bf53283b6fb8e95f0",
            "0x0000000000000000000000007ab10847e0f2225cdfd1334450be33b4f5f08c3f",
            "0x000000000000000000000000c02aaa39b223fe8d0a0e5c4f27ead9083c756cc2"
          ],
          "data": "0x0000000000000000000000000000000000000000000000001fe36ec8bd166e940000000000000000000000000000000000000000000000000000000000000000",
          "blockHash": "0x5fd4cc843e22aa02a4f3f6e0f208fb6c9349b0bf6368b448dab2327b2539ce75",
          "blockNumber": "0x11d38f8",
          "transactionHash": "0x8f3a92b9e63e38806bbabdb4574b2874fc5c6c70876b1355efa52972f6f193c3",
          "transactionIndex": "0x0",
          "logIndex": "0xf",
          "removed": false
        }
      ],
      "status": "0x1",
      "logsBloom": "0x04000100000000880000030000000000000000000000400000200000000000200000004400000000000000000000000002000000080000000004000000200000000200800000000000001008000000800000008000400000000800000000002000000000120000004000108000200800100000000200040000001010000000000000008000000000000080400000000000000000000020802000000000002000020000000000000000200000000200000000004000000000000100000000000800000202000000100100000000080080002000000080000000800002001020000010200000000000000000008000000000000000024000000000000000000000",
      "type": "0x2",
      "effectiveGasPrice": "0xfd70dd559"
    },
    {
      "transactionHash": "0x290a65e4de6e32108f07cfe7e65f5298412e98d83fb687e60d39dc7f62380b8a",
      "transactionIndex": "0x0",
      "blockHash": "0x899f66051729115dbabef47811b5087b7013a5c9f0d55f4ce70c9c764452a039",
      "blockNumber": "0x11d38f9",
      "from": "0x1351257000A92De941aEAebB758e44DD7c8B809f",
      "to": "0xE95462273d31D457Bdb2C182869aCdE5c7aE49d2",
      "cumulativeGasUsed": "0x541b2",
      "gasUsed": "0x541b2",
      "contractAddress": null,
      "logs": [
        {
          "address": "0xf951E335afb289353dc249e82926178EaC7DEd78",
          "topics": [
            "0xddf252ad1be2c89b69c2b068fc378daa952ba7f163c4a11628f55a4df523b3ef",
            "0x0000000000000000000000001351257000a92de941aeaebb758e44dd7c8b809f",
            "0x000000000000000000000000e95462273d31d457bdb2c182869acde5c7ae49d2"
          ],
          "data": "0x0000000000000000000000000000000000000000000000000de0b6b3a7640000",
          "blockHash": "0x899f66051729115dbabef47811b5087b7013a5c9f0d55f4ce70c9c764452a039",
          "blockNumber": "0x11d38f9",
          "transactionHash": "0x290a65e4de6e32108f07cfe7e65f5298412e98d83fb687e60d39dc7f62380b8a",
          "transactionIndex": "0x0",
          "logIndex": "0x0",
          "removed": false
        },
        {
          "address": "0xf951E335afb289353dc249e82926178EaC7DEd78",
          "topics": [
            "0xddf252ad1be2c89b69c2b068fc378daa952ba7f163c4a11628f55a4df523b3ef",
            "0x00000000000000000000000030ea22c879628514f1494d4bbfef79d21a6b49a2",
            "0x000000000000000000000000e95462273d31d457bdb2c182869acde5c7ae49d2"
          ],
          "data": "0x0000000000000000000000000000000000000000000000001bc16d674ec80000",
          "blockHash": "0x899f66051729115dbabef47811b5087b7013a5c9f0d55f4ce70c9c764452a039",
          "blockNumber": "0x11d38f9",
          "transactionHash": "0x290a65e4de6e32108f07cfe7e65f5298412e98d83fb687e60d39dc7f62380b8a",
          "transactionIndex": "0x0",
          "logIndex": "0x1",
          "removed": false
        },
        {
          "address": "0xE8C1A6F98aD9a8b356283f1D9740e25D812CE566",
          "topics": [
            "0xe728fa61c700a3632cfd3973376b45b5f0bfdb3c2ea1946fd6d4fcda49e1d42f",
            "0x0000000000000000000000000000000000000000000000000000000000000002",
            "0x000000000000000000000000e95462273d31d457bdb2c182869acde5c7ae49d2"
          ],
          "data": "0x00000000000000000000000000000000000000000000000029a2241af62c0000",
          "blockHash": "0x899f66051729115dbabef47811b5087b7013a5c9f0d55f4ce70c9c764452a039",
          "blockNumber": "0x11d38f9",
          "transactionHash": "0x290a65e4de6e32108f07cfe7e65f5298412e98d83fb687e60d39dc7f62380b8a",
          "transactionIndex": "0x0",
          "logIndex": "0x2",
          "removed": false
        },
        {
          "address": "0xf951E335afb289353dc249e82926178EaC7DEd78",
          "topics": [
            "0xddf252ad1be2c89b69c2b068fc378daa952ba7f163c4a11628f55a4df523b3ef",
            "0x000000000000000000000000e95462273d31d457bdb2c182869acde5c7ae49d2",
            "0x0000000000000000000000006913437d7274e11eda6b41a693b55b6c63080478"
          ],
          "data": "0x00000000000000000000000000000000000000000000000029a2241af62c0000",
          "blockHash": "0x899f66051729115dbabef47811b5087b7013a5c9f0d55f4ce70c9c764452a039",
          "blockNumber": "0x11d38f9",
          "transactionHash": "0x290a65e4de6e32108f07cfe7e65f5298412e98d83fb687e60d39dc7f62380b8a",
          "transactionIndex": "0x0",
          "logIndex": "0x3",
          "removed": false
        },
        {
          "address": "0xE8C1A6F98aD9a8b356283f1D9740e25D812CE566",
          "topics": [
            "0xc125b447f095d22865ad610ebdc8ae9eff252e7d7011ca37e783c98a53970bc4",
            "0x0000000000000000000000000000000000000000000000000000000000000002",
            "0x0000000000000000000000001351257000a92de941aeaebb758e44dd7c8b809f",
            "0x000000000000000000000000e95462273d31d457bdb2c182869acde5c7ae49d2"
          ],
          "data": "0x00000000000000000000000000000000000000000000000029a2241af62c0000",
          "blockHash": "0x899f66051729115dbabef47811b5087b7013a5c9f0d55f4ce70c9c764452a039",
          "blockNumber": "0x11d38f9",
          "transactionHash": "0x290a65e4de6e32108f07cfe7e65f5298412e98d83fb687e60d39dc7f62380b8a",
          "transactionIndex": "0x0",
          "logIndex": "0x4",
          "removed": false
        },
        {
          "address": "0xC02aaA39b223FE8D0A0e5C4F27eAD9083C756Cc2",
          "topics": [
            "0xddf252ad1be2c89b69c2b068fc378daa952ba7f163c4a11628f55a4df523b3ef",
            "0x000000000000000000000000e8c1a6f98ad9a8b356283f1d9740e25d812ce566",
            "0x000000000000000000000000e95462273d31d457bdb2c182869acde5c7ae49d2"
          ],
          "data": "0x0000000000000000000000000000000000000000000000001c6eb147866981d7",
          "blockHash": "0x899f66051729115dbabef47811b5087b7013a5c9f0d55f4ce70c9c764452a039",
          "blockNumber": "0x11d38f9",
          "transactionHash": "0x290a65e4de6e32108f07cfe7e65f5298412e98d83fb687e60d39dc7f62380b8a",
          "transactionIndex": "0x0",
          "logIndex": "0x5",
          "removed": false
        },
        {
          "address": "0xE8C1A6F98aD9a8b356283f1D9740e25D812CE566",
          "topics": [
            "0xe3e92e977f830d2a0b92c58e8866694b5dc929a35e2b95846f427de0f0bb412f",
            "0x0000000000000000000000000000000000000000000000000000000000000002",
            "0x0000000000000000000000001351257000a92de941aeaebb758e44dd7c8b809f",
            "0x000000000000000000000000e95462273d31d457bdb2c182869acde5c7ae49d2"
          ],
          "data": "0x0000000000000000000000000000000000000000000000001c6eb1280ec21a630000000000000000000000000000000000000000033b2e40334acf74ead5a0cb000000000000000000000000035d70294f00068769763e0f78f2f213a61dab33",
          "blockHash": "0x899f66051729115dbabef47811b5087b7013a5c9f0d55f4ce70c9c764452a039",
          "blockNumber": "0x11d38f9",
          "transactionHash": "0x290a65e4de6e32108f07cfe7e65f5298412e98d83fb687e60d39dc7f62380b8a",
          "transactionIndex": "0x0",
          "logIndex": "0x6",
          "removed": false
        },
        {
          "address": "0xC02aaA39b223FE8D0A0e5C4F27eAD9083C756Cc2",
          "topics": [
            "0xddf252ad1be2c89b69c2b068fc378daa952ba7f163c4a11628f55a4df523b3ef",
            "0x000000000000000000000000e95462273d31d457bdb2c182869acde5c7ae49d2",
            "0x00000000000000000000000030ea22c879628514f1494d4bbfef79d21a6b49a2"
          ],
          "data": "0x0000000000000000000000000000000000000000000000001c6eb147866981d7",
          "blockHash": "0x899f66051729115dbabef47811b5087b7013a5c9f0d55f4ce70c9c764452a039",
          "blockNumber": "0x11d38f9",
          "transactionHash": "0x290a65e4de6e32108f07cfe7e65f5298412e98d83fb687e60d39dc7f62380b8a",
          "transactionIndex": "0x0",
          "logIndex": "0x7",
          "removed": false
        },
        {
          "address": "0x30eA22C879628514f1494d4BBFEF79D21A6B49A2",
          "topics": [
            "0xc42079f94a6350d7e6235f29174924f928cc2ac818eb64fed8004e115fbcca67",
            "0x000000000000000000000000e95462273d31d457bdb2c182869acde5c7ae49d2",
            "0x000000000000000000000000e95462273d31d457bdb2c182869acde5c7ae49d2"
          ],
          "data": "0x0000000000000000000000000000000000000000000000001c6eb147866981d7ffffffffffffffffffffffffffffffffffffffffffffffffe43e9298b13800000000000000000000000000000000000000000000fcff0ba2d2308a3e66b9be960000000000000000000000000000000000000000000020858aa06e97e0a8240cffffffffffffffffffffffffffffffffffffffffffffffffffffffffffffff13",
          "blockHash": "0x899f66051729115dbabef47811b5087b7013a5c9f0d55f4ce70c9c764452a039",
          "blockNumber": "0x11d38f9",
          "transactionHash": "0x290a65e4de6e32108f07cfe7e65f5298412e98d83fb687e60d39dc7f62380b8a",
          "transactionIndex": "0x0",
          "logIndex": "0x8",
          "removed": false
        }
      ],
      "status": "0x1",
      "logsBloom": "0x040000000000008800000100000000002000000000c0400000200000000000000000004400000004000000000000000202000000080020000004040000000000000000800000000800101008000000000000008000000000000800000000000000004000100000000000000000000020100000000000000000000010000800000000000000000000000000000000000000000000000000000000000000000000001000000000000000000100000000000000004000000000000000000000000000800202000000000000000000000000000000000000000000800000000000000000200000004000000400000000000000000000008000000000000040000000",
      "type": "0x2",
      "effectiveGasPrice": "0xfd70dd559"
    },
    {
      "transactionHash": "0x97620cb61f7ae95a5d20b16f20963b7224c0a7b535b5132ea714754fcc49f95e",
      "transactionIndex": "0x0",
      "blockHash": "0xf29a1f8a0e91d3bc2ce20b960fa2ca2c97e4ee3d94b0524037ecc805588f4e76",
      "blockNumber": "0x11d38fa",
      "from": "0x1351257000A92De941aEAebB758e44DD7c8B809f",
      "to": "0xE95462273d31D457Bdb2C182869aCdE5c7aE49d2",
      "cumulativeGasUsed": "0x472ac",
      "gasUsed": "0x472ac",
      "contractAddress": null,
      "logs": [
        {
          "address": "0xC02aaA39b223FE8D0A0e5C4F27eAD9083C756Cc2",
          "topics": [
            "0xddf252ad1be2c89b69c2b068fc378daa952ba7f163c4a11628f55a4df523b3ef",
            "0x00000000000000000000000030ea22c879628514f1494d4bbfef79d21a6b49a2",
            "0x000000000000000000000000e95462273d31d457bdb2c182869acde5c7ae49d2"
          ],
          "data": "0x00000000000000000000000000000000000000000000000006f05b59d3b20000",
          "blockHash": "0xf29a1f8a0e91d3bc2ce20b960fa2ca2c97e4ee3d94b0524037ecc805588f4e76",
          "blockNumber": "0x11d38fa",
          "transactionHash": "0x97620cb61f7ae95a5d20b16f20963b7224c0a7b535b5132ea714754fcc49f95e",
          "transactionIndex": "0x0",
          "logIndex": "0x0",
          "removed": false
        },
        {
          "address": "0xC02aaA39b223FE8D0A0e5C4F27eAD9083C756Cc2",
          "topics": [
            "0xddf252ad1be2c89b69c2b068fc378daa952ba7f163c4a11628f55a4df523b3ef",
            "0x000000000000000000000000e95462273d31d457bdb2c182869acde5c7ae49d2",
            "0x000000000000000000000000e8c1a6f98ad9a8b356283f1d9740e25d812ce566"
          ],
          "data": "0x00000000000000000000000000000000000000000000000006f05b59d3b20000",
          "blockHash": "0xf29a1f8a0e91d3bc2ce20b960fa2ca2c97e4ee3d94b0524037ecc805588f4e76",
          "blockNumber": "0x11d38fa",
          "transactionHash": "0x97620cb61f7ae95a5d20b16f20963b7224c0a7b535b5132ea714754fcc49f95e",
          "transactionIndex": "0x0",
          "logIndex": "0x1",
          "removed": false
        },
        {
          "address": "0xE8C1A6F98aD9a8b356283f1D9740e25D812CE566",
          "topics": [
            "0x406d000a5cb1dc8c35a7c089a430fac3d79fdbb8b3e37ee6a8707ce9d4ff46e6",
            "0x0000000000000000000000000000000000000000000000000000000000000002",
            "0x0000000000000000000000001351257000a92de941aeaebb758e44dd7c8b809f",
            "0x000000000000000000000000e95462273d31d457bdb2c182869acde5c7ae49d2"
          ],
          "data": "0x00000000000000000000000000000000000000000000000006f05b522101f1fc0000000000000000000000000000000000000000033b2e40357ccc7b3fef9157000000000000000000000000034704715f7a552ec74d2073b6689f0fc874f55b",
          "blockHash": "0xf29a1f8a0e91d3bc2ce20b960fa2ca2c97e4ee3d94b0524037ecc805588f4e76",
          "blockNumber": "0x11d38fa",
          "transactionHash": "0x97620cb61f7ae95a5d20b16f20963b7224c0a7b535b5132ea714754fcc49f95e",
          "transactionIndex": "0x0",
          "logIndex": "0x2",
          "removed": false
        },
        {
          "address": "0xE8C1A6F98aD9a8b356283f1D9740e25D812CE566",
          "topics": [
            "0x4363355d2aba118cce1b43c1cae9804f170e1cb6ede1116d421898bffef033a9",
            "0x0000000000000000000000000000000000000000000000000000000000000002",
            "0x0000000000000000000000001351257000a92de941aeaebb758e44dd7c8b809f",
            "0x000000000000000000000000e95462273d31d457bdb2c182869acde5c7ae49d2"
          ],
          "data": "0x00000000000000000000000000000000000000000000000006c7ca2da65ef1af",
          "blockHash": "0xf29a1f8a0e91d3bc2ce20b960fa2ca2c97e4ee3d94b0524037ecc805588f4e76",
          "blockNumber": "0x11d38fa",
          "transactionHash": "0x97620cb61f7ae95a5d20b16f20963b7224c0a7b535b5132ea714754fcc49f95e",
          "transactionIndex": "0x0",
          "logIndex": "0x3",
          "removed": false
        },
        {
          "address": "0xE8C1A6F98aD9a8b356283f1D9740e25D812CE566",
          "topics": [
            "0xe728fa61c700a3632cfd3973376b45b5f0bfdb3c2ea1946fd6d4fcda49e1d42f",
            "0x0000000000000000000000000000000000000000000000000000000000000002",
            "0x000000000000000000000000e95462273d31d457bdb2c182869acde5c7ae49d2"
          ],
          "data": "0xfffffffffffffffffffffffffffffffffffffffffffffffff93835d259a10e51",
          "blockHash": "0xf29a1f8a0e91d3bc2ce20b960fa2ca2c97e4ee3d94b0524037ecc805588f4e76",
          "blockNumber": "0x11d38fa",
          "transactionHash": "0x97620cb61f7ae95a5d20b16f20963b7224c0a7b535b5132ea714754fcc49f95e",
          "transactionIndex": "0x0",
          "logIndex": "0x4",
          "removed": false
        },
        {
          "address": "0xf951E335afb289353dc249e82926178EaC7DEd78",
          "topics": [
            "0xddf252ad1be2c89b69c2b068fc378daa952ba7f163c4a11628f55a4df523b3ef",
            "0x0000000000000000000000006913437d7274e11eda6b41a693b55b6c63080478",
            "0x000000000000000000000000e95462273d31d457bdb2c182869acde5c7ae49d2"
          ],
          "data": "0x00000000000000000000000000000000000000000000000006c7ca2da65ef1af",
          "blockHash": "0xf29a1f8a0e91d3bc2ce20b960fa2ca2c97e4ee3d94b0524037ecc805588f4e76",
          "blockNumber": "0x11d38fa",
          "transactionHash": "0x97620cb61f7ae95a5d20b16f20963b7224c0a7b535b5132ea714754fcc49f95e",
          "transactionIndex": "0x0",
          "logIndex": "0x5",
          "removed": false
        },
        {
          "address": "0xf951E335afb289353dc249e82926178EaC7DEd78",
          "topics": [
            "0xddf252ad1be2c89b69c2b068fc378daa952ba7f163c4a11628f55a4df523b3ef",
            "0x000000000000000000000000e95462273d31d457bdb2c182869acde5c7ae49d2",
            "0x00000000000000000000000030ea22c879628514f1494d4bbfef79d21a6b49a2"
          ],
          "data": "0x00000000000000000000000000000000000000000000000006c7ca2da65ef1af",
          "blockHash": "0xf29a1f8a0e91d3bc2ce20b960fa2ca2c97e4ee3d94b0524037ecc805588f4e76",
          "blockNumber": "0x11d38fa",
          "transactionHash": "0x97620cb61f7ae95a5d20b16f20963b7224c0a7b535b5132ea714754fcc49f95e",
          "transactionIndex": "0x0",
          "logIndex": "0x6",
          "removed": false
        },
        {
          "address": "0x30eA22C879628514f1494d4BBFEF79D21A6B49A2",
          "topics": [
            "0xc42079f94a6350d7e6235f29174924f928cc2ac818eb64fed8004e115fbcca67",
            "0x000000000000000000000000e95462273d31d457bdb2c182869acde5c7ae49d2",
            "0x000000000000000000000000e95462273d31d457bdb2c182869acde5c7ae49d2"
          ],
          "data": "0xfffffffffffffffffffffffffffffffffffffffffffffffff90fa4a62c4e000000000000000000000000000000000000000000000000000006c7ca2da65ef1af0000000000000000000000000000000000000000fcff40fb9232a56df4ce47490000000000000000000000000000000000000000000020858aa06e97e0a8240cffffffffffffffffffffffffffffffffffffffffffffffffffffffffffffff13",
          "blockHash": "0xf29a1f8a0e91d3bc2ce20b960fa2ca2c97e4ee3d94b0524037ecc805588f4e76",
          "blockNumber": "0x11d38fa",
          "transactionHash": "0x97620cb61f7ae95a5d20b16f20963b7224c0a7b535b5132ea714754fcc49f95e",
          "transactionIndex": "0x0",
          "logIndex": "0x7",
          "removed": false
        }
      ],
      "status": "0x1",
      "logsBloom": "0x040000000000000000000100000000002000000000c04000006000000000000000000004000000040000000000000002020000000a0420000004040000000000000000800000000800101008000000000000008000000000000000000000000000004000100000000000000000000020100000000000000000000010000800000000000000000000000000000000000000000000000080000000000000000000001000000000000000000100000800000000000000000000000000000000000000800002000000000000000000000000000000000000000000800000000000040000200000004000000400000000000000000000008000000000000040000000",
      "type": "0x2",
      "effectiveGasPrice": "0xfd70dd559"
    },
    {
      "transactionHash": "0x76004854438ec0e7d5fc178ec162b548486aa612b944a49e0fc42f4c4ce8902a",
      "transactionIndex": "0x0",
      "blockHash": "0xe4be155582de77fbeb8e7e56a8fe1616e707ec16a2327c1130785f3f7f339dda",
      "blockNumber": "0x11d38fb",
      "from": "0x1351257000A92De941aEAebB758e44DD7c8B809f",
      "to": "0x7188A614a2d1AC434c5E1E6288cB65C554FA4600",
      "cumulativeGasUsed": "0x775df",
      "gasUsed": "0x775df",
      "contractAddress": null,
      "logs": [
        {
          "address": "0xC02aaA39b223FE8D0A0e5C4F27eAD9083C756Cc2",
          "topics": [
            "0xddf252ad1be2c89b69c2b068fc378daa952ba7f163c4a11628f55a4df523b3ef",
            "0x000000000000000000000000109830a1aaad605bbf02a9dfa7b0b92ec2fb7daa",
            "0x0000000000000000000000007188a614a2d1ac434c5e1e6288cb65c554fa4600"
          ],
          "data": "0x00000000000000000000000000000000000000000000000006f05b59d3b20000",
          "blockHash": "0xe4be155582de77fbeb8e7e56a8fe1616e707ec16a2327c1130785f3f7f339dda",
          "blockNumber": "0x11d38fb",
          "transactionHash": "0x76004854438ec0e7d5fc178ec162b548486aa612b944a49e0fc42f4c4ce8902a",
          "transactionIndex": "0x0",
          "logIndex": "0x0",
          "removed": false
        },
        {
          "address": "0xC02aaA39b223FE8D0A0e5C4F27eAD9083C756Cc2",
          "topics": [
            "0xddf252ad1be2c89b69c2b068fc378daa952ba7f163c4a11628f55a4df523b3ef",
            "0x0000000000000000000000007188a614a2d1ac434c5e1e6288cb65c554fa4600",
            "0x000000000000000000000000e8c1a6f98ad9a8b356283f1d9740e25d812ce566"
          ],
          "data": "0x00000000000000000000000000000000000000000000000006f05b59d3b20000",
          "blockHash": "0xe4be155582de77fbeb8e7e56a8fe1616e707ec16a2327c1130785f3f7f339dda",
          "blockNumber": "0x11d38fb",
          "transactionHash": "0x76004854438ec0e7d5fc178ec162b548486aa612b944a49e0fc42f4c4ce8902a",
          "transactionIndex": "0x0",
          "logIndex": "0x1",
          "removed": false
        },
        {
          "address": "0xE8C1A6F98aD9a8b356283f1D9740e25D812CE566",
          "topics": [
            "0x406d000a5cb1dc8c35a7c089a430fac3d79fdbb8b3e37ee6a8707ce9d4ff46e6",
            "0x0000000000000000000000000000000000000000000000000000000000000001",
            "0x0000000000000000000000001351257000a92de941aeaebb758e44dd7c8b809f",
            "0x0000000000000000000000007188a614a2d1ac434c5e1e6288cb65c554fa4600"
          ],
          "data": "0x00000000000000000000000000000000000000000000000006f05b432f9920500000000000000000000000000000000000000000033b2e472ad542a3082a2558000000000000000000000000033098b97d6f80d54df686ee050ded322b91ad85",
          "blockHash": "0xe4be155582de77fbeb8e7e56a8fe1616e707ec16a2327c1130785f3f7f339dda",
          "blockNumber": "0x11d38fb",
          "transactionHash": "0x76004854438ec0e7d5fc178ec162b548486aa612b944a49e0fc42f4c4ce8902a",
          "transactionIndex": "0x0",
          "logIndex": "0x2",
          "removed": false
        },
        {
          "address": "0xE8C1A6F98aD9a8b356283f1D9740e25D812CE566",
          "topics": [
            "0x4363355d2aba118cce1b43c1cae9804f170e1cb6ede1116d421898bffef033a9",
            "0x0000000000000000000000000000000000000000000000000000000000000001",
            "0x0000000000000000000000001351257000a92de941aeaebb758e44dd7c8b809f",
            "0x0000000000000000000000007188a614a2d1ac434c5e1e6288cb65c554fa4600"
          ],
          "data": "0x00000000000000000000000000000000000000000000000006d5a180fba6676e",
          "blockHash": "0xe4be155582de77fbeb8e7e56a8fe1616e707ec16a2327c1130785f3f7f339dda",
          "blockNumber": "0x11d38fb",
          "transactionHash": "0x76004854438ec0e7d5fc178ec162b548486aa612b944a49e0fc42f4c4ce8902a",
          "transactionIndex": "0x0",
          "logIndex": "0x3",
          "removed": false
        },
        {
          "address": "0xE8C1A6F98aD9a8b356283f1D9740e25D812CE566",
          "topics": [
            "0xe728fa61c700a3632cfd3973376b45b5f0bfdb3c2ea1946fd6d4fcda49e1d42f",
            "0x0000000000000000000000000000000000000000000000000000000000000001",
            "0x0000000000000000000000007188a614a2d1ac434c5e1e6288cb65c554fa4600"
          ],
          "data": "0xfffffffffffffffffffffffffffffffffffffffffffffffff92a5e7f04599892",
          "blockHash": "0xe4be155582de77fbeb8e7e56a8fe1616e707ec16a2327c1130785f3f7f339dda",
          "blockNumber": "0x11d38fb",
          "transactionHash": "0x76004854438ec0e7d5fc178ec162b548486aa612b944a49e0fc42f4c4ce8902a",
          "transactionIndex": "0x0",
          "logIndex": "0x4",
          "removed": false
        },
        {
          "address": "0xA35b1B31Ce002FBF2058D22F30f95D405200A15b",
          "topics": [
            "0xddf252ad1be2c89b69c2b068fc378daa952ba7f163c4a11628f55a4df523b3ef",
            "0x000000000000000000000000703ab4d4a369fa6909cf236a61f63c432bf2e68e",
            "0x0000000000000000000000007188a614a2d1ac434c5e1e6288cb65c554fa4600"
          ],
          "data": "0x00000000000000000000000000000000000000000000000006d5a180fba6676e",
          "blockHash": "0xe4be155582de77fbeb8e7e56a8fe1616e707ec16a2327c1130785f3f7f339dda",
          "blockNumber": "0x11d38fb",
          "transactionHash": "0x76004854438ec0e7d5fc178ec162b548486aa612b944a49e0fc42f4c4ce8902a",
          "transactionIndex": "0x0",
          "logIndex": "0x5",
          "removed": false
        },
        {
          "address": "0xBA12222222228d8Ba445958a75a0704d566BF2C8",
          "topics": [
            "0x2170c741c41531aec20e7c107c24eecfdd15e69c9bb0a8dd37b1840b9e0b207b",
            "0x37b18b10ce5635a84834b26095a0ae5639dcb7520000000000000000000005cb",
            "0x000000000000000000000000a35b1b31ce002fbf2058d22f30f95d405200a15b",
            "0x000000000000000000000000c02aaa39b223fe8d0a0e5c4f27ead9083c756cc2"
          ],
          "data": "0x00000000000000000000000000000000000000000000000006d5a180fba6676e00000000000000000000000000000000000000000000000006f088d35bef2000",
          "blockHash": "0xe4be155582de77fbeb8e7e56a8fe1616e707ec16a2327c1130785f3f7f339dda",
          "blockNumber": "0x11d38fb",
          "transactionHash": "0x76004854438ec0e7d5fc178ec162b548486aa612b944a49e0fc42f4c4ce8902a",
          "transactionIndex": "0x0",
          "logIndex": "0x6",
          "removed": false
        },
        {
          "address": "0xA35b1B31Ce002FBF2058D22F30f95D405200A15b",
          "topics": [
            "0xddf252ad1be2c89b69c2b068fc378daa952ba7f163c4a11628f55a4df523b3ef",
            "0x0000000000000000000000007188a614a2d1ac434c5e1e6288cb65c554fa4600",
            "0x000000000000000000000000ba12222222228d8ba445958a75a0704d566bf2c8"
          ],
          "data": "0x00000000000000000000000000000000000000000000000006d5a180fba6676e",
          "blockHash": "0xe4be155582de77fbeb8e7e56a8fe1616e707ec16a2327c1130785f3f7f339dda",
          "blockNumber": "0x11d38fb",
          "transactionHash": "0x76004854438ec0e7d5fc178ec162b548486aa612b944a49e0fc42f4c4ce8902a",
          "transactionIndex": "0x0",
          "logIndex": "0x7",
          "removed": false
        },
        {
          "address": "0xC02aaA39b223FE8D0A0e5C4F27eAD9083C756Cc2",
          "topics": [
            "0xddf252ad1be2c89b69c2b068fc378daa952ba7f163c4a11628f55a4df523b3ef",
            "0x000000000000000000000000ba12222222228d8ba445958a75a0704d566bf2c8",
            "0x0000000000000000000000007188a614a2d1ac434c5e1e6288cb65c554fa4600"
          ],
          "data": "0x00000000000000000000000000000000000000000000000006f088d35bef2000",
          "blockHash": "0xe4be155582de77fbeb8e7e56a8fe1616e707ec16a2327c1130785f3f7f339dda",
          "blockNumber": "0x11d38fb",
          "transactionHash": "0x76004854438ec0e7d5fc178ec162b548486aa612b944a49e0fc42f4c4ce8902a",
          "transactionIndex": "0x0",
          "logIndex": "0x8",
          "removed": false
        },
        {
          "address": "0xC02aaA39b223FE8D0A0e5C4F27eAD9083C756Cc2",
          "topics": [
            "0xddf252ad1be2c89b69c2b068fc378daa952ba7f163c4a11628f55a4df523b3ef",
            "0x0000000000000000000000007188a614a2d1ac434c5e1e6288cb65c554fa4600",
            "0x000000000000000000000000109830a1aaad605bbf02a9dfa7b0b92ec2fb7daa"
          ],
          "data": "0x00000000000000000000000000000000000000000000000006f088d35bef2000",
          "blockHash": "0xe4be155582de77fbeb8e7e56a8fe1616e707ec16a2327c1130785f3f7f339dda",
          "blockNumber": "0x11d38fb",
          "transactionHash": "0x76004854438ec0e7d5fc178ec162b548486aa612b944a49e0fc42f4c4ce8902a",
          "transactionIndex": "0x0",
          "logIndex": "0x9",
          "removed": false
        },
        {
          "address": "0x109830a1AAaD605BbF02a9dFA7B0B92EC2FB7dAa",
          "topics": [
            "0xbdbdb71d7860376ba52b25a5028beea23581364a40522f6bcfb86bb1f2dca633",
            "0x0000000000000000000000007188a614a2d1ac434c5e1e6288cb65c554fa4600",
            "0x0000000000000000000000007188a614a2d1ac434c5e1e6288cb65c554fa4600"
          ],
          "data": "0x000000000000000000000000000000000000000000000000000000000000000000000000000000000000000000000000000000000000000006f05b59d3b20000000000000000000000000000000000000000000000000000000000000000000000000000000000000000000000000000000000000000000000002d79883d2000",
          "blockHash": "0xe4be155582de77fbeb8e7e56a8fe1616e707ec16a2327c1130785f3f7f339dda",
          "blockNumber": "0x11d38fb",
          "transactionHash": "0x76004854438ec0e7d5fc178ec162b548486aa612b944a49e0fc42f4c4ce8902a",
          "transactionIndex": "0x0",
          "logIndex": "0xa",
          "removed": false
        }
      ],
      "status": "0x1",
      "logsBloom": "0x040000000000000000000100000040000000000000004000006200000000000000080004000000000000000400000000020000000a0400000004000000040000000000800000000000003008000020800000008000040000000080000000000000000000100000000000100000002080100000400000000000000010000000000000048000000200000000480000000000004000000080002000000000000000000000000000020000000000000800000000000000010000000100000000020000002002000000002100000000090000002040000000000000800000001040040000200001000000000000000040000000000000000001000000000000000000",
      "type": "0x2",
      "effectiveGasPrice": "0xfd70dd559"
    },
    {
      "transactionHash": "0xd0539710c2780bc0a494ba2b3f3ab2e6664c15f3c9e116f8b77d605899d9e8b9",
      "transactionIndex": "0x0",
      "blockHash": "0x0397a9291ab634a8de4b890c7b47f638e3839935d64ca49cde986808a6ae5c2f",
      "blockNumber": "0x11d38fc",
      "from": "0x1351257000A92De941aEAebB758e44DD7c8B809f",
      "to": "0x7aB10847e0F2225cDfD1334450bE33B4f5F08c3F",
      "cumulativeGasUsed": "0x4fb22",
      "gasUsed": "0x4fb22",
      "contractAddress": null,
      "logs": [
        {
          "address": "0xC02aaA39b223FE8D0A0e5C4F27eAD9083C756Cc2",
          "topics": [
            "0xddf252ad1be2c89b69c2b068fc378daa952ba7f163c4a11628f55a4df523b3ef",
            "0x000000000000000000000000109830a1aaad605bbf02a9dfa7b0b92ec2fb7daa",
            "0x0000000000000000000000007ab10847e0f2225cdfd1334450be33b4f5f08c3f"
          ],
          "data": "0x00000000000000000000000000000000000000000000000006f05b59d3b20000",
          "blockHash": "0x0397a9291ab634a8de4b890c7b47f638e3839935d64ca49cde986808a6ae5c2f",
          "blockNumber": "0x11d38fc",
          "transactionHash": "0xd0539710c2780bc0a494ba2b3f3ab2e6664c15f3c9e116f8b77d605899d9e8b9",
          "transactionIndex": "0x0",
          "logIndex": "0x0",
          "removed": false
        },
        {
          "address": "0xC02aaA39b223FE8D0A0e5C4F27eAD9083C756Cc2",
          "topics": [
            "0xddf252ad1be2c89b69c2b068fc378daa952ba7f163c4a11628f55a4df523b3ef",
            "0x0000000000000000000000007ab10847e0f2225cdfd1334450be33b4f5f08c3f",
            "0x000000000000000000000000e8c1a6f98ad9a8b356283f1d9740e25d812ce566"
          ],
          "data": "0x00000000000000000000000000000000000000000000000006f05b59d3b20000",
          "blockHash": "0x0397a9291ab634a8de4b890c7b47f638e3839935d64ca49cde986808a6ae5c2f",
          "blockNumber": "0x11d38fc",
          "transactionHash": "0xd0539710c2780bc0a494ba2b3f3ab2e6664c15f3c9e116f8b77d605899d9e8b9",
          "transactionIndex": "0x0",
          "logIndex": "0x1",
          "removed": false
        },
        {
          "address": "0xE8C1A6F98aD9a8b356283f1D9740e25D812CE566",
          "topics": [
            "0x406d000a5cb1dc8c35a7c089a430fac3d79fdbb8b3e37ee6a8707ce9d4ff46e6",
            "0x0000000000000000000000000000000000000000000000000000000000000000",
            "0x0000000000000000000000001351257000a92de941aeaebb758e44dd7c8b809f",
            "0x0000000000000000000000007ab10847e0f2225cdfd1334450be33b4f5f08c3f"
          ],
          "data": "0x00000000000000000000000000000000000000000000000006f05b54955e714d0000000000000000000000000000000000000000033b2e3f10e248bf3351ea3f000000000000000000000000031a2d0190c6e72849441bb8e60c35fff23ed56b",
          "blockHash": "0x0397a9291ab634a8de4b890c7b47f638e3839935d64ca49cde986808a6ae5c2f",
          "blockNumber": "0x11d38fc",
          "transactionHash": "0xd0539710c2780bc0a494ba2b3f3ab2e6664c15f3c9e116f8b77d605899d9e8b9",
          "transactionIndex": "0x0",
          "logIndex": "0x2",
          "removed": false
        },
        {
          "address": "0xE8C1A6F98aD9a8b356283f1D9740e25D812CE566",
          "topics": [
            "0x4363355d2aba118cce1b43c1cae9804f170e1cb6ede1116d421898bffef033a9",
            "0x0000000000000000000000000000000000000000000000000000000000000000",
            "0x0000000000000000000000001351257000a92de941aeaebb758e44dd7c8b809f",
            "0x0000000000000000000000007ab10847e0f2225cdfd1334450be33b4f5f08c3f"
          ],
          "data": "0x000000000000000000000000000000000000000000000000060abe669744de13",
          "blockHash": "0x0397a9291ab634a8de4b890c7b47f638e3839935d64ca49cde986808a6ae5c2f",
          "blockNumber": "0x11d38fc",
          "transactionHash": "0xd0539710c2780bc0a494ba2b3f3ab2e6664c15f3c9e116f8b77d605899d9e8b9",
          "transactionIndex": "0x0",
          "logIndex": "0x3",
          "removed": false
        },
        {
          "address": "0xE8C1A6F98aD9a8b356283f1D9740e25D812CE566",
          "topics": [
            "0xe728fa61c700a3632cfd3973376b45b5f0bfdb3c2ea1946fd6d4fcda49e1d42f",
            "0x0000000000000000000000000000000000000000000000000000000000000000",
            "0x0000000000000000000000007ab10847e0f2225cdfd1334450be33b4f5f08c3f"
          ],
          "data": "0xfffffffffffffffffffffffffffffffffffffffffffffffff9f5419968bb21ed",
          "blockHash": "0x0397a9291ab634a8de4b890c7b47f638e3839935d64ca49cde986808a6ae5c2f",
          "blockNumber": "0x11d38fc",
          "transactionHash": "0xd0539710c2780bc0a494ba2b3f3ab2e6664c15f3c9e116f8b77d605899d9e8b9",
          "transactionIndex": "0x0",
          "logIndex": "0x4",
          "removed": false
        },
        {
          "address": "0x7f39C581F595B53c5cb19bD0b3f8dA6c935E2Ca0",
          "topics": [
            "0xddf252ad1be2c89b69c2b068fc378daa952ba7f163c4a11628f55a4df523b3ef",
            "0x000000000000000000000000cb10d879e85d8848dbbf815fcbc54adcb83ac944",
            "0x0000000000000000000000007ab10847e0f2225cdfd1334450be33b4f5f08c3f"
          ],
          "data": "0x000000000000000000000000000000000000000000000000060abe669744de13",
          "blockHash": "0x0397a9291ab634a8de4b890c7b47f638e3839935d64ca49cde986808a6ae5c2f",
          "blockNumber": "0x11d38fc",
          "transactionHash": "0xd0539710c2780bc0a494ba2b3f3ab2e6664c15f3c9e116f8b77d605899d9e8b9",
          "transactionIndex": "0x0",
          "logIndex": "0x5",
          "removed": false
        },
        {
          "address": "0x7f39C581F595B53c5cb19bD0b3f8dA6c935E2Ca0",
          "topics": [
            "0xddf252ad1be2c89b69c2b068fc378daa952ba7f163c4a11628f55a4df523b3ef",
            "0x0000000000000000000000007ab10847e0f2225cdfd1334450be33b4f5f08c3f",
            "0x000000000000000000000000109830a1aaad605bbf02a9dfa7b0b92ec2fb7daa"
          ],
          "data": "0x000000000000000000000000000000000000000000000000060abe669744de13",
          "blockHash": "0x0397a9291ab634a8de4b890c7b47f638e3839935d64ca49cde986808a6ae5c2f",
          "blockNumber": "0x11d38fc",
          "transactionHash": "0xd0539710c2780bc0a494ba2b3f3ab2e6664c15f3c9e116f8b77d605899d9e8b9",
          "transactionIndex": "0x0",
          "logIndex": "0x6",
          "removed": false
        },
        {
          "address": "0x109830a1AAaD605BbF02a9dFA7B0B92EC2FB7dAa",
          "topics": [
            "0xc42079f94a6350d7e6235f29174924f928cc2ac818eb64fed8004e115fbcca67",
            "0x0000000000000000000000007ab10847e0f2225cdfd1334450be33b4f5f08c3f",
            "0x0000000000000000000000007ab10847e0f2225cdfd1334450be33b4f5f08c3f"
          ],
          "data": "0x000000000000000000000000000000000000000000000000060abe669744de13fffffffffffffffffffffffffffffffffffffffffffffffff90fa4a62c4e00000000000000000000000000000000000000000001125ba4bcfa239316772f946e00000000000000000000000000000000000000000037ad60420e021ff7d1a3240000000000000000000000000000000000000000000000000000000000000569",
          "blockHash": "0x0397a9291ab634a8de4b890c7b47f638e3839935d64ca49cde986808a6ae5c2f",
          "blockNumber": "0x11d38fc",
          "transactionHash": "0xd0539710c2780bc0a494ba2b3f3ab2e6664c15f3c9e116f8b77d605899d9e8b9",
          "transactionIndex": "0x0",
          "logIndex": "0x7",
          "removed": false
        }
      ],
      "status": "0x1",
      "logsBloom": "0x040000000000000000000100000000000000000000004000006000000000000000000004000000000000000000000000020000000a04200000040000000000000000008000000008000010080000000000000080000000000000000000000000000000001200000040000000000008001000000002000000000000100008000000000480000002000000800000000000000000000000a0000000000000000000000000000000000000200000000800000000000000010000000000000000020800000002000000100000000000010000000000000000000000800000000020040000200000000000000000008040000000000000000000000000000000000000",
      "type": "0x2",
      "effectiveGasPrice": "0xfd70dd559"
    }
  ],
  "libraries": [],
  "pending": [],
  "returns": {},
  "timestamp": 1701709104,
  "chain": 1,
  "multi": false,
  "commit": "75a316c"
}