{
  "transactions": [
    {
      "hash": null,
      "transactionType": "CALL",
      "contractName": "UniswapV3Pool",
      "contractAddress": "0x30eA22C879628514f1494d4BBFEF79D21A6B49A2",
      "function": "increaseObservationCardinalityNext(uint16)",
      "arguments": [
        "100"
      ],
      "transaction": {
        "type": "0x02",
        "from": "0x1351257000a92de941aeaebb758e44dd7c8b809f",
        "to": "0x30ea22c879628514f1494d4bbfef79d21a6b49a2",
        "gas": "0x31c668",
        "value": "0x0",
        "data": "0x32148f670000000000000000000000000000000000000000000000000000000000000064",
        "nonce": "0x46",
        "accessList": []
      },
      "additionalContracts": [],
      "isFixedGasLimit": false
    },
    {
      "hash": null,
      "transactionType": "CALL",
      "contractName": null,
      "contractAddress": "0xE8C1A6F98aD9a8b356283f1D9740e25D812CE566",
      "function": null,
      "arguments": null,
      "transaction": {
        "type": "0x02",
        "from": "0x1351257000a92de941aeaebb758e44dd7c8b809f",
        "to": "0xe8c1a6f98ad9a8b356283f1d9740e25d812ce566",
        "gas": "0x12a44",
        "value": "0x0",
        "data": "0xe5a97f0700000000000000000000000000000000000000000000003635c9adc5dea00000",
        "nonce": "0x47",
        "accessList": []
      },
      "additionalContracts": [],
      "isFixedGasLimit": false
    },
    {
      "hash": null,
      "transactionType": "CALL",
      "contractName": "WETH9",
      "contractAddress": "0xC02aaA39b223FE8D0A0e5C4F27eAD9083C756Cc2",
      "function": "deposit()",
      "arguments": [],
      "transaction": {
        "type": "0x02",
        "from": "0x1351257000a92de941aeaebb758e44dd7c8b809f",
        "to": "0xc02aaa39b223fe8d0a0e5c4f27ead9083c756cc2",
        "gas": "0xf2ff",
        "value": "0x1b1ae4d6e2ef500000",
        "data": "0xd0e30db0",
        "nonce": "0x48",
        "accessList": []
      },
      "additionalContracts": [],
      "isFixedGasLimit": false
    },
    {
      "hash": null,
      "transactionType": "CALL",
      "contractName": "WETH9",
      "contractAddress": "0xC02aaA39b223FE8D0A0e5C4F27eAD9083C756Cc2",
      "function": "approve(address,uint256):(bool)",
      "arguments": [
        "0xE8C1A6F98aD9a8b356283f1D9740e25D812CE566",
        "115792089237316195423570985008687907853269984665640564039457584007913129639935"
      ],
      "transaction": {
        "type": "0x02",
        "from": "0x1351257000a92de941aeaebb758e44dd7c8b809f",
        "to": "0xc02aaa39b223fe8d0a0e5c4f27ead9083c756cc2",
        "gas": "0xfa27",
        "value": "0x0",
        "data": "0x095ea7b3000000000000000000000000e8c1a6f98ad9a8b356283f1d9740e25d812ce566ffffffffffffffffffffffffffffffffffffffffffffffffffffffffffffffff",
        "nonce": "0x49",
        "accessList": []
      },
      "additionalContracts": [],
      "isFixedGasLimit": false
    },
    {
      "hash": null,
      "transactionType": "CALL",
      "contractName": null,
      "contractAddress": "0xE8C1A6F98aD9a8b356283f1D9740e25D812CE566",
      "function": null,
      "arguments": null,
      "transaction": {
        "type": "0x02",
        "from": "0x1351257000a92de941aeaebb758e44dd7c8b809f",
        "to": "0xe8c1a6f98ad9a8b356283f1d9740e25d812ce566",
        "gas": "0x37376",
        "value": "0x0",
        "data": "0x7ca5643d0000000000000000000000005b73c5498c1e3b4dba84de0f1833c4a029d9051900000000000000000000000000000000000000000000001b1ae4d6e2ef50000000000000000000000000000000000000000000000000000000000000000000600000000000000000000000000000000000000000000000000000000000000000",
        "nonce": "0x4a",
        "accessList": []
      },
      "additionalContracts": [],
      "isFixedGasLimit": false
    },
    {
      "hash": null,
      "transactionType": "CALL",
      "contractName": null,
      "contractAddress": null,
      "function": null,
      "arguments": null,
      "transaction": {
        "type": "0x02",
        "from": "0x1351257000a92de941aeaebb758e44dd7c8b809f",
        "to": "0x7f39c581f595b53c5cb19bd0b3f8da6c935e2ca0",
        "gas": "0x28e86",
        "value": "0x56bc75e2d63100000",
        "data": "0x",
        "nonce": "0x4b",
        "accessList": []
      },
      "additionalContracts": [],
      "isFixedGasLimit": false
    },
    {
      "hash": null,
      "transactionType": "CALL",
      "contractName": "TransparentUpgradeableProxy",
      "contractAddress": "0xcf5EA1b38380f6aF39068375516Daf40Ed70D299",
      "function": "deposit(address):(uint256)",
      "arguments": [
        "0x1351257000A92De941aEAebB758e44DD7c8B809f"
      ],
      "transaction": {
        "type": "0x02",
        "from": "0x1351257000a92de941aeaebb758e44dd7c8b809f",
        "to": "0xcf5ea1b38380f6af39068375516daf40ed70d299",
        "gas": "0x2cb90",
        "value": "0x56bc75e2d63100000",
        "data": "0xf340fa010000000000000000000000001351257000a92de941aeaebb758e44dd7c8b809f",
        "nonce": "0x4c",
        "accessList": []
      },
      "additionalContracts": [],
      "isFixedGasLimit": false
    },
    {
      "hash": null,
      "transactionType": "CALL",
      "contractName": "TransparentUpgradeableProxy",
      "contractAddress": "0xf951E335afb289353dc249e82926178EaC7DEd78",
      "function": "deposit()",
      "arguments": [],
      "transaction": {
        "type": "0x02",
        "from": "0x1351257000a92de941aeaebb758e44dd7c8b809f",
        "to": "0xf951e335afb289353dc249e82926178eac7ded78",
        "gas": "0x264cd",
        "value": "0x56bc75e2d63100000",
        "data": "0xd0e30db0",
        "nonce": "0x4d",
        "accessList": []
      },
      "additionalContracts": [],
      "isFixedGasLimit": false
    },
    {
      "hash": null,
      "transactionType": "CALL",
      "contractName": "WstETH",
      "contractAddress": "0x7f39C581F595B53c5cb19bD0b3f8dA6c935E2Ca0",
      "function": "approve(address,uint256):(bool)",
      "arguments": [
        "0x7aB10847e0F2225cDfD1334450bE33B4f5F08c3F",
        "115792089237316195423570985008687907853269984665640564039457584007913129639935"
      ],
      "transaction": {
        "type": "0x02",
        "from": "0x1351257000a92de941aeaebb758e44dd7c8b809f",
        "to": "0x7f39c581f595b53c5cb19bd0b3f8da6c935e2ca0",
        "gas": "0xfb0a",
        "value": "0x0",
        "data": "0x095ea7b30000000000000000000000007ab10847e0f2225cdfd1334450be33b4f5f08c3fffffffffffffffffffffffffffffffffffffffffffffffffffffffffffffffff",
        "nonce": "0x4e",
        "accessList": []
      },
      "additionalContracts": [],
      "isFixedGasLimit": false
    },
    {
      "hash": null,
      "transactionType": "CALL",
      "contractName": "TransparentUpgradeableProxy",
      "contractAddress": "0xA35b1B31Ce002FBF2058D22F30f95D405200A15b",
      "function": "approve(address,uint256):(bool)",
      "arguments": [
        "0x7188A614a2d1AC434c5E1E6288cB65C554FA4600",
        "115792089237316195423570985008687907853269984665640564039457584007913129639935"
      ],
      "transaction": {
        "type": "0x02",
        "from": "0x1351257000a92de941aeaebb758e44dd7c8b809f",
        "to": "0xa35b1b31ce002fbf2058d22f30f95d405200a15b",
        "gas": "0x12226",
        "value": "0x0",
        "data": "0x095ea7b30000000000000000000000007188a614a2d1ac434c5e1e6288cb65c554fa4600ffffffffffffffffffffffffffffffffffffffffffffffffffffffffffffffff",
        "nonce": "0x4f",
        "accessList": []
      },
      "additionalContracts": [],
      "isFixedGasLimit": false
    },
    {
      "hash": null,
      "transactionType": "CALL",
      "contractName": "TransparentUpgradeableProxy",
      "contractAddress": "0xf951E335afb289353dc249e82926178EaC7DEd78",
      "function": "approve(address,uint256):(bool)",
      "arguments": [
        "0xE95462273d31D457Bdb2C182869aCdE5c7aE49d2",
        "115792089237316195423570985008687907853269984665640564039457584007913129639935"
      ],
      "transaction": {
        "type": "0x02",
        "from": "0x1351257000a92de941aeaebb758e44dd7c8b809f",
        "to": "0xf951e335afb289353dc249e82926178eac7ded78",
        "gas": "0x1232c",
        "value": "0x0",
        "data": "0x095ea7b3000000000000000000000000e95462273d31d457bdb2c182869acde5c7ae49d2ffffffffffffffffffffffffffffffffffffffffffffffffffffffffffffffff",
        "nonce": "0x50",
        "accessList": []
      },
      "additionalContracts": [],
      "isFixedGasLimit": false
    },
    {
      "hash": null,
      "transactionType": "CALL",
      "contractName": null,
      "contractAddress": "0xE8C1A6F98aD9a8b356283f1D9740e25D812CE566",
      "function": null,
      "arguments": null,
      "transaction": {
        "type": "0x02",
        "from": "0x1351257000a92de941aeaebb758e44dd7c8b809f",
        "to": "0xe8c1a6f98ad9a8b356283f1d9740e25d812ce566",
        "gas": "0x11101",
        "value": "0x0",
        "data": "0x9870d7fe0000000000000000000000007ab10847e0f2225cdfd1334450be33b4f5f08c3f",
        "nonce": "0x51",
        "accessList": []
      },
      "additionalContracts": [],
      "isFixedGasLimit": false
    },
    {
      "hash": null,
      "transactionType": "CALL",
      "contractName": null,
      "contractAddress": "0xE8C1A6F98aD9a8b356283f1D9740e25D812CE566",
      "function": null,
      "arguments": null,
      "transaction": {
        "type": "0x02",
        "from": "0x1351257000a92de941aeaebb758e44dd7c8b809f",
        "to": "0xe8c1a6f98ad9a8b356283f1d9740e25d812ce566",
        "gas": "0x120ff",
        "value": "0x0",
        "data": "0x9870d7fe0000000000000000000000007188a614a2d1ac434c5e1e6288cb65c554fa4600",
        "nonce": "0x52",
        "accessList": []
      },
      "additionalContracts": [],
      "isFixedGasLimit": false
    },
    {
      "hash": null,
      "transactionType": "CALL",
      "contractName": null,
      "contractAddress": "0xE8C1A6F98aD9a8b356283f1D9740e25D812CE566",
      "function": null,
      "arguments": null,
      "transaction": {
        "type": "0x02",
        "from": "0x1351257000a92de941aeaebb758e44dd7c8b809f",
        "to": "0xe8c1a6f98ad9a8b356283f1d9740e25d812ce566",
        "gas": "0x11101",
        "value": "0x0",
        "data": "0x9870d7fe000000000000000000000000e95462273d31d457bdb2c182869acde5c7ae49d2",
        "nonce": "0x53",
        "accessList": []
      },
      "additionalContracts": [],
      "isFixedGasLimit": false
    },
    {
      "hash": null,
      "transactionType": "CALL",
      "contractName": null,
      "contractAddress": "0x7aB10847e0F2225cDfD1334450bE33B4f5F08c3F",
      "function": null,
      "arguments": null,
      "transaction": {
        "type": "0x02",
        "from": "0x1351257000a92de941aeaebb758e44dd7c8b809f",
        "to": "0x7ab10847e0f2225cdfd1334450be33b4f5f08c3f",
        "gas": "0xafd97",
        "value": "0x0",
        "data": "0xf978b2a50000000000000000000000000000000000000000000000000de0b6b3a764000000000000000000000000000000000000000000000000000029a2241af62c00000000000000000000000000000000000000000000000000001fe36ec8bd166e94",
        "nonce": "0x54",
        "accessList": []
      },
      "additionalContracts": [],
      "isFixedGasLimit": false
    },
    {
      "hash": null,
      "transactionType": "CALL",
      "contractName": null,
      "contractAddress": "0x7aB10847e0F2225cDfD1334450bE33B4f5F08c3F",
      "function": null,
      "arguments": null,
      "transaction": {
        "type": "0x02",
        "from": "0x1351257000a92de941aeaebb758e44dd7c8b809f",
        "to": "0x7ab10847e0f2225cdfd1334450be33b4f5f08c3f",
        "gas": "0x91570",
        "value": "0x0",
        "data": "0x1c8f66230000000000000000000000000000000000000000000000000de0b6b3a764000000000000000000000000000000000000000000000000000029a2241af62c00000000000000000000000000000000000000000000000000001fe36ec8bd166e94",
        "nonce": "0x55",
        "accessList": []
      },
      "additionalContracts": [],
      "isFixedGasLimit": false
    },
    {
      "hash": null,
      "transactionType": "CALL",
      "contractName": null,
      "contractAddress": "0x7aB10847e0F2225cDfD1334450bE33B4f5F08c3F",
      "function": null,
      "arguments": null,
      "transaction": {
        "type": "0x02",
        "from": "0x1351257000a92de941aeaebb758e44dd7c8b809f",
        "to": "0x7ab10847e0f2225cdfd1334450be33b4f5f08c3f",
        "gas": "0x6ed90",
        "value": "0x0",
        "data": "0xd151581f0000000000000000000000000000000000000000000000000de0b6b3a764000000000000000000000000000000000000000000000000000029a2241af62c0000ffffffffffffffffffffffffffffffffffffffffffffffffffffffffffffffff0000000000000000000000000000000000000000000000000000000000000000",
        "nonce": "0x56",
        "accessList": []
      },
      "additionalContracts": [],
      "isFixedGasLimit": false
    },
    {
      "hash": null,
      "transactionType": "CALL",
      "contractName": null,
      "contractAddress": "0x7188A614a2d1AC434c5E1E6288cB65C554FA4600",
      "function": null,
      "arguments": null,
      "transaction": {
        "type": "0x02",
        "from": "0x1351257000a92de941aeaebb758e44dd7c8b809f",
        "to": "0x7188a614a2d1ac434c5e1e6288cb65c554fa4600",
        "gas": "0xad9fd",
        "value": "0x0",
        "data": "0xf978b2a50000000000000000000000000000000000000000000000000de0b6b3a764000000000000000000000000000000000000000000000000000029a2241af62c00000000000000000000000000000000000000000000000000001c2d15c49b62459e",
        "nonce": "0x57",
        "accessList": []
      },
      "additionalContracts": [],
      "isFixedGasLimit": false
    },
    {
      "hash": null,
      "transactionType": "CALL",
      "contractName": null,
      "contractAddress": "0x7188A614a2d1AC434c5E1E6288cB65C554FA4600",
      "function": null,
      "arguments": null,
      "transaction": {
        "type": "0x02",
        "from": "0x1351257000a92de941aeaebb758e44dd7c8b809f",
        "to": "0x7188a614a2d1ac434c5e1e6288cb65c554fa4600",
        "gas": "0x94d04",
        "value": "0x0",
        "data": "0x1c8f66230000000000000000000000000000000000000000000000000de0b6b3a764000000000000000000000000000000000000000000000000000029a2241af62c00000000000000000000000000000000000000000000000000001c2d15c49b62459e",
        "nonce": "0x58",
        "accessList": []
      },
      "additionalContracts": [],
      "isFixedGasLimit": false
    },
    {
      "hash": null,
      "transactionType": "CALL",
      "contractName": null,
      "contractAddress": "0x7188A614a2d1AC434c5E1E6288cB65C554FA4600",
      "function": null,
      "arguments": null,
      "transaction": {
        "type": "0x02",
        "from": "0x1351257000a92de941aeaebb758e44dd7c8b809f",
        "to": "0x7188a614a2d1ac434c5e1e6288cb65c554fa4600",
        "gas": "0xd4cce",
        "value": "0x0",
        "data": "0x3d2a4f560000000000000000000000000000000000000000000000000de0b6b3a764000000000000000000000000000000000000000000000000000029a2241af62c0000ffffffffffffffffffffffffffffffffffffffffffffffffffffffffffffffff",
        "nonce": "0x59",
        "accessList": []
      },
      "additionalContracts": [],
      "isFixedGasLimit": false
    },
    {
      "hash": null,
      "transactionType": "CALL",
      "contractName": null,
      "contractAddress": "0xE95462273d31D457Bdb2C182869aCdE5c7aE49d2",
      "function": null,
      "arguments": null,
      "transaction": {
        "type": "0x02",
        "from": "0x1351257000a92de941aeaebb758e44dd7c8b809f",
        "to": "0xe95462273d31d457bdb2c182869acde5c7ae49d2",
        "gas": "0x8f0c1",
        "value": "0x0",
        "data": "0xf978b2a50000000000000000000000000000000000000000000000000de0b6b3a764000000000000000000000000000000000000000000000000000029a2241af62c00000000000000000000000000000000000000000000000000001cfbbc2dc0ad11ff",
        "nonce": "0x5a",
        "accessList": []
      },
      "additionalContracts": [],
      "isFixedGasLimit": false
    },
    {
      "hash": null,
      "transactionType": "CALL",
      "contractName": null,
      "contractAddress": "0xE95462273d31D457Bdb2C182869aCdE5c7aE49d2",
      "function": null,
      "arguments": null,
      "transaction": {
        "type": "0x02",
        "from": "0x1351257000a92de941aeaebb758e44dd7c8b809f",
        "to": "0xe95462273d31d457bdb2c182869acde5c7ae49d2",
        "gas": "0x8a213",
        "value": "0x0",
        "data": "0x1c8f66230000000000000000000000000000000000000000000000000de0b6b3a764000000000000000000000000000000000000000000000000000029a2241af62c00000000000000000000000000000000000000000000000000001cfbbc2dc0ad11ff",
        "nonce": "0x5b",
        "accessList": []
      },
      "additionalContracts": [],
      "isFixedGasLimit": false
    },
    {
      "hash": null,
      "transactionType": "CALL",
      "contractName": null,
      "contractAddress": "0xE95462273d31D457Bdb2C182869aCdE5c7aE49d2",
      "function": null,
      "arguments": null,
      "transaction": {
        "type": "0x02",
        "from": "0x1351257000a92de941aeaebb758e44dd7c8b809f",
        "to": "0xe95462273d31d457bdb2c182869acde5c7ae49d2",
        "gas": "0x6e46c",
        "value": "0x0",
        "data": "0xd151581f0000000000000000000000000000000000000000000000000de0b6b3a764000000000000000000000000000000000000000000000000000029a2241af62c0000ffffffffffffffffffffffffffffffffffffffffffffffffffffffffffffffff0000000000000000000000000000000000000000000000000000000000000000",
        "nonce": "0x5c",
        "accessList": []
      },
      "additionalContracts": [],
      "isFixedGasLimit": false
    },
    {
      "hash": null,
      "transactionType": "CALL",
      "contractName": null,
      "contractAddress": "0x7aB10847e0F2225cDfD1334450bE33B4f5F08c3F",
      "function": null,
      "arguments": null,
      "transaction": {
        "type": "0x02",
        "from": "0x1351257000a92de941aeaebb758e44dd7c8b809f",
        "to": "0x7ab10847e0f2225cdfd1334450be33b4f5f08c3f",
        "gas": "0x61f0c",
        "value": "0x0",
        "data": "0x89ee90f50000000000000000000000000000000000000000000000000de0b6b3a764000000000000000000000000000000000000000000000000000006f05b59d3b200000000000000000000000000000000000000000000000000000000000000000000",
        "nonce": "0x5d",
        "accessList": []
      },
      "additionalContracts": [],
      "isFixedGasLimit": false
    },
    {
      "hash": null,
      "transactionType": "CALL",
      "contractName": null,
      "contractAddress": "0x7188A614a2d1AC434c5E1E6288cB65C554FA4600",
      "function": null,
      "arguments": null,
      "transaction": {
        "type": "0x02",
        "from": "0x1351257000a92de941aeaebb758e44dd7c8b809f",
        "to": "0x7188a614a2d1ac434c5e1e6288cb65c554fa4600",
        "gas": "0xa1a12",
        "value": "0x0",
        "data": "0x934f73a40000000000000000000000000000000000000000000000000de0b6b3a764000000000000000000000000000000000000000000000000000006f05b59d3b20000",
        "nonce": "0x5e",
        "accessList": []
      },
      "additionalContracts": [],
      "isFixedGasLimit": false
    },
    {
      "hash": null,
      "transactionType": "CALL",
      "contractName": null,
      "contractAddress": "0xE95462273d31D457Bdb2C182869aCdE5c7aE49d2",
      "function": null,
      "arguments": null,
      "transaction": {
        "type": "0x02",
        "from": "0x1351257000a92de941aeaebb758e44dd7c8b809f",
        "to": "0xe95462273d31d457bdb2c182869acde5c7ae49d2",
        "gas": "0x5e469",
        "value": "0x0",
        "data": "0x89ee90f50000000000000000000000000000000000000000000000000de0b6b3a764000000000000000000000000000000000000000000000000000006f05b59d3b200000000000000000000000000000000000000000000000000000000000000000000",
        "nonce": "0x5f",
        "accessList": []
      },
      "additionalContracts": [],
      "isFixedGasLimit": false
    }
  ],
  "receipts": [],
  "libraries": [],
  "pending": [],
  "returns": {},
  "timestamp": 1701708838,
  "chain": 1,
  "multi": false,
  "commit": "75a316c"
}