{
  "transactions": [
    {
      "hash": "0xdd0bc68c61a95d3a94eb33d91906d5b595aa5204f597233b4f228c5acd0afaa8",
      "transactionType": "CALL",
      "contractName": null,
      "contractAddress": "0x00000000008a3a77bd91bc738ed2efaa262c3763",
      "function": "initializeIlk(address)",
      "arguments": [
        "0xbf5495Efe5DB9ce00f80364C8B423567e58d2110"
      ],
      "transaction": {
        "from": "0x94544835cf97c631f101c5f538787fe14e2e04f6",
        "to": "0x00000000008a3a77bd91bc738ed2efaa262c3763",
        "gas": "0x32766",
        "value": "0x0",
        "input": "0x8fb5400e000000000000000000000000bf5495efe5db9ce00f80364c8b423567e58d2110",
        "nonce": "0x8",
        "chainId": "0x1"
      },
      "additionalContracts": [],
      "isFixedGasLimit": false
    },
    {
      "hash": "0xfe53b1b6469c5f2f3b6da87e00af59f61a9431da75dfb58cf2251523141470bd",
      "transactionType": "CALL",
      "contractName": null,
      "contractAddress": "0x00000000008a3a77bd91bc738ed2efaa262c3763",
      "function": "updateIlkSpot(uint8,address)",
      "arguments": [
        "0",
        "0x08fEDD981732c2a0EceCd4c70a41eA3AC454A6FD"
      ],
      "transaction": {
        "from": "0x94544835cf97c631f101c5f538787fe14e2e04f6",
        "to": "0x00000000008a3a77bd91bc738ed2efaa262c3763",
        "gas": "0x12a40",
        "value": "0x0",
        "input": "0x7638eb42000000000000000000000000000000000000000000000000000000000000000000000000000000000000000008fedd981732c2a0ececd4c70a41ea3ac454a6fd",
        "nonce": "0x9",
        "chainId": "0x1"
      },
      "additionalContracts": [],
      "isFixedGasLimit": false
    },
    {
      "hash": "0xb8f17f5e7b2061ef4e0baf8b6960d655823f5c749f82e9e6b1eaac8763bb055c",
      "transactionType": "CALL",
      "contractName": null,
      "contractAddress": "0x00000000008a3a77bd91bc738ed2efaa262c3763",
      "function": "updateIlkDebtCeiling(uint8,uint256)",
      "arguments": [
        "0",
        "0"
      ],
      "transaction": {
        "from": "0x94544835cf97c631f101c5f538787fe14e2e04f6",
        "to": "0x00000000008a3a77bd91bc738ed2efaa262c3763",
        "gas": "0xc81a",
        "value": "0x0",
        "input": "0xa36f653d00000000000000000000000000000000000000000000000000000000000000000000000000000000000000000000000000000000000000000000000000000000",
        "nonce": "0xa",
        "chainId": "0x1"
      },
      "additionalContracts": [],
      "isFixedGasLimit": false
    },
    {
      "hash": "0x967217ea4ed76f2b5db0156b1b54ab125b0ed4a6b2137ba8fb5f8b287e7bb5a4",
      "transactionType": "CALL",
      "contractName": null,
      "contractAddress": "0x00000000008a3a77bd91bc738ed2efaa262c3763",
      "function": "updateIlkDust(uint8,uint256)",
      "arguments": [
        "0",
        "4000000000000000000000000000000000000000000000"
      ],
      "transaction": {
        "from": "0x94544835cf97c631f101c5f538787fe14e2e04f6",
        "to": "0x00000000008a3a77bd91bc738ed2efaa262c3763",
        "gas": "0x12942",
        "value": "0x0",
        "input": "0xe862114a000000000000000000000000000000000000000000000000000000000000000000000000000000000000000000b35dbf821ae4f38bdda2802c8a800000000000",
        "nonce": "0xb",
        "chainId": "0x1"
      },
      "additionalContracts": [],
      "isFixedGasLimit": false
    }
  ],
  "receipts": [
    {
      "status": "0x1",
      "cumulativeGasUsed": "0xd5fdb9",
      "logs": [
        {
          "address": "0x00000000008a3a77bd91bc738ed2efaa262c3763",
          "topics": [
            "0x15a7f70e00454c5cbf91f222531e25be8763187b123c94b14c64fe949726dc45",
            "0x0000000000000000000000000000000000000000000000000000000000000000",
            "0x000000000000000000000000bf5495efe5db9ce00f80364c8b423567e58d2110"
          ],
          "data": "0x",
          "blockHash": "0x6e0c00fc872e7590f6e32f5a32858ac54f413fc15bc7e7053d6132dc2822ff25",
          "blockNumber": "0x1317bfb",
          "transactionHash": "0xdd0bc68c61a95d3a94eb33d91906d5b595aa5204f597233b4f228c5acd0afaa8",
          "transactionIndex": "0xb8",
          "logIndex": "0x15c",
          "removed": false
        }
      ],
      "logsBloom": "0x00000000000000000000000000000200000000000000000000000000000080000000000000000000000000000000000020000000000000000000000000000000000000000000000000000000000040000000000000000000000000000000000000000000030000000400000000000800000000000000000000000000000000000000000000000000000000000000000000000000000000000000000000002000000000000000000200000000000000000000000000000000000000000000000000000000000000000000000000000004000000000000000000000000000020000000000000000000000000000000000000000000000000000000000000000000",
      "type": "0x2",
      "transactionHash": "0xdd0bc68c61a95d3a94eb33d91906d5b595aa5204f597233b4f228c5acd0afaa8",
      "transactionIndex": "0xb8",
      "blockHash": "0x6e0c00fc872e7590f6e32f5a32858ac54f413fc15bc7e7053d6132dc2822ff25",
      "blockNumber": "0x1317bfb",
      "gasUsed": "0x2488c",
      "effectiveGasPrice": "0x326e99702",
      "from": "0x94544835cf97c631f101c5f538787fe14e2e04f6",
      "to": "0x00000000008a3a77bd91bc738ed2efaa262c3763",
      "contractAddress": null
    },
    {
      "status": "0x1",
      "cumulativeGasUsed": "0xa0b87f",
      "logs": [
        {
          "address": "0x00000000008a3a77bd91bc738ed2efaa262c3763",
          "topics": [
            "0x19df743a62793f3366940d678082fc6bc7926c06b86cd00dced146172870cbd6",
            "0x0000000000000000000000000000000000000000000000000000000000000000"
          ],
          "data": "0x00000000000000000000000008fedd981732c2a0ececd4c70a41ea3ac454a6fd",
          "blockHash": "0x3f254d157766d99a9afbb920b9eb93a80385004ae2bd97b70f3863f74f56cba5",
          "blockNumber": "0x1317bfc",
          "transactionHash": "0xfe53b1b6469c5f2f3b6da87e00af59f61a9431da75dfb58cf2251523141470bd",
          "transactionIndex": "0x5f",
          "logIndex": "0x15e",
          "removed": false
        }
      ],
      "logsBloom": "0x00000000000000000000020000000200000000000000000000000000000000000000000000000000000000000000000000000000000000000000000000000000000000000000000000000000000000000000000000000000000000000008000000000000030000000000000000000800000000000000000000000000000000000000000000000000000000000000000000000000000000000000000000000000000000040000000000000000000000000000000000000000000000000000000000000000000000000000000000000004000000000000000000000000000020000000000000000000000000000000000000000000000000000000000000000000",
      "type": "0x2",
      "transactionHash": "0xfe53b1b6469c5f2f3b6da87e00af59f61a9431da75dfb58cf2251523141470bd",
      "transactionIndex": "0x5f",
      "blockHash": "0x3f254d157766d99a9afbb920b9eb93a80385004ae2bd97b70f3863f74f56cba5",
      "blockNumber": "0x1317bfc",
      "gasUsed": "0xd7ef",
      "effectiveGasPrice": "0x32a00e1f2",
      "from": "0x94544835cf97c631f101c5f538787fe14e2e04f6",
      "to": "0x00000000008a3a77bd91bc738ed2efaa262c3763",
      "contractAddress": null
    },
    {
      "status": "0x1",
      "cumulativeGasUsed": "0xd012e6",
      "logs": [
        {
          "address": "0x00000000008a3a77bd91bc738ed2efaa262c3763",
          "topics": [
            "0x8867ae66007046a7ea4546c9cbb61f764adf577521a9831db2d82ec3d60bafbc",
            "0x0000000000000000000000000000000000000000000000000000000000000000"
          ],
          "data": "0x0000000000000000000000000000000000000000000000000000000000000000",
          "blockHash": "0xf378e8e4137f22dd3f5017c47a28f021955a1e4f8959023b943cdb6e68035291",
          "blockNumber": "0x1317bfd",
          "transactionHash": "0xb8f17f5e7b2061ef4e0baf8b6960d655823f5c749f82e9e6b1eaac8763bb055c",
          "transactionIndex": "0xd6",
          "logIndex": "0x172",
          "removed": false
        }
      ],
      "logsBloom": "0x00000000000000000000000000000200000000000000000000000000000000000000000000000000000000000000000000000000000000000000000800000000000000000000000000000000000000000000000000000000000000000000000000000000030000000008000000000800000000000000000000000000000000000000000000000000000000000000000000000000000000000000000000000000000000000000000000000000000000000000000000000000000000000000000000000000000000000000000000000004000000000000000000000000000020000000000000000000000000000000000000000000000040000000000000000000",
      "type": "0x2",
      "transactionHash": "0xb8f17f5e7b2061ef4e0baf8b6960d655823f5c749f82e9e6b1eaac8763bb055c",
      "transactionIndex": "0xd6",
      "blockHash": "0xf378e8e4137f22dd3f5017c47a28f021955a1e4f8959023b943cdb6e68035291",
      "blockNumber": "0x1317bfd",
      "gasUsed": "0x88d3",
      "effectiveGasPrice": "0x32f492906",
      "from": "0x94544835cf97c631f101c5f538787fe14e2e04f6",
      "to": "0x00000000008a3a77bd91bc738ed2efaa262c3763",
      "contractAddress": null
    },
    {
      "status": "0x1",
      "cumulativeGasUsed": "0xa34740",
      "logs": [
        {
          "address": "0x00000000008a3a77bd91bc738ed2efaa262c3763",
          "topics": [
            "0xf91e5e89199cb20fefcea995829cab2d6a5afb4a343b4438335f4e5f69173f09",
            "0x0000000000000000000000000000000000000000000000000000000000000000"
          ],
          "data": "0x00000000000000000000000000b35dbf821ae4f38bdda2802c8a800000000000",
          "blockHash": "0xa9b400ac6a49948d664b28c5eccfee07f8d2908bc475c8762b698a18a8d13c7c",
          "blockNumber": "0x1317bfe",
          "transactionHash": "0x967217ea4ed76f2b5db0156b1b54ab125b0ed4a6b2137ba8fb5f8b287e7bb5a4",
          "transactionIndex": "0x7a",
          "logIndex": "0x128",
          "removed": false
        }
      ],
      "logsBloom": "0x00000000000000000000000000000200000000000000000000000000000000000000000000000000000000000000000000000000000000000000000000000000000000000000000000000000000000000000000000000000000001000000000000000040030000000000000000000800000000000000000000000000000000000000000000000000000000000000000000000000000000000000000000000000000000000000000000000000000000000000000000000000000000000000000000000000000000000000000000000004000000000000000000000000000020000000000000000000000000000002000000000000000000000000000000000000",
      "type": "0x2",
      "transactionHash": "0x967217ea4ed76f2b5db0156b1b54ab125b0ed4a6b2137ba8fb5f8b287e7bb5a4",
      "transactionIndex": "0x7a",
      "blockHash": "0xa9b400ac6a49948d664b28c5eccfee07f8d2908bc475c8762b698a18a8d13c7c",
      "blockNumber": "0x1317bfe",
      "gasUsed": "0xd736",
      "effectiveGasPrice": "0x333732712",
      "from": "0x94544835cf97c631f101c5f538787fe14e2e04f6",
      "to": "0x00000000008a3a77bd91bc738ed2efaa262c3763",
      "contractAddress": null
    }
  ],
  "libraries": [],
  "pending": [],
  "returns": {},
  "timestamp": 1717525371,
  "chain": 1,
  "commit": "932bc9a"
}