{
  "transactions": [
    {
      "hash": "0x92be51eacd421700a410d237d308a02172982d18eb9acb232878b51873decd76",
      "transactionType": "CALL",
      "contractName": "CreateX",
      "contractAddress": "0xba5Ed099633D3B313e4D5F7bdc1305d3c28ba5Ed",
      "function": "deployCreate3AndInit(bytes32,bytes,bytes,(uint256,uint256))",
      "arguments": [
        "0x0000000000000000000000000000000000000000010aab6e0df381e700b7d793",
        "0x608060405234801561001057600080fd5b506040516101e63803806101e68339818101604052602081101561003357600080fd5b8101908080519060200190929190505050600073ffffffffffffffffffffffffffffffffffffffff168173ffffffffffffffffffffffffffffffffffffffff1614156100ca576040517f08c379a00000000000000000000000000000000000000000000000000000000081526004018080602001828103825260228152602001806101c46022913960400191505060405180910390fd5b806000806101000a81548173ffffffffffffffffffffffffffffffffffffffff021916908373ffffffffffffffffffffffffffffffffffffffff1602179055505060ab806101196000396000f3fe608060405273ffffffffffffffffffffffffffffffffffffffff600054167fa619486e0000000000000000000000000000000000000000000000000000000060003514156050578060005260206000f35b3660008037600080366000845af43d6000803e60008114156070573d6000fd5b3d6000f3fea2646970667358221220d1429297349653a4918076d650332de1a1068c5f3e07c5c82360c277770b955264736f6c63430007060033496e76616c69642073696e676c65746f6e20616464726573732070726f7669646564000000000000000000000000d9db270c1b5e3bd161e8c8503c55ceabee709552000000000000000000000000d9db270c1b5e3bd161e8c8503c55ceabee709552",
        "0xb63e800d0000000000000000000000000000000000000000000000000000000000000100000000000000000000000000000000000000000000000000000000000000000100000000000000000000000000000000000000000000000000000000000000000000000000000000000000000000000000000000000000000000000000000140000000000000000000000000f48f2b2d2a534e402487b3ee7c18c33aec0fe5e400000000000000000000000000000000000000000000000000000000000000000000000000000000000000000000000000000000000000000000000000000000000000000000000000000000000000000000000000000000000000000000000000000000000000000000000000000000000000000000000000000000000000010000000000000000000000001d607e4eb747f1294ae632d3490f121b00db93120000000000000000000000000000000000000000000000000000000000000000",
        "(0, 0)"
      ],
      "transaction": {
        "type": "0x02",
        "from": "0x01bd9abd70d74d8ec70d338bd6099ca29da3f9b4",
        "to": "0xba5ed099633d3b313e4d5f7bdc1305d3c28ba5ed",
        "gas": "0x668ba",
        "value": "0x0",
        "data": "0x00d84acb0000000000000000000000000000000000000000010aab6e0df381e700b7d79300000000000000000000000000000000000000000000000000000000000000a00000000000000000000000000000000000000000000000000000000000000300000000000000000000000000000000000000000000000000000000000000000000000000000000000000000000000000000000000000000000000000000000000000000000000000000000000000000000000000000000000000000000000226608060405234801561001057600080fd5b506040516101e63803806101e68339818101604052602081101561003357600080fd5b8101908080519060200190929190505050600073ffffffffffffffffffffffffffffffffffffffff168173ffffffffffffffffffffffffffffffffffffffff1614156100ca576040517f08c379a00000000000000000000000000000000000000000000000000000000081526004018080602001828103825260228152602001806101c46022913960400191505060405180910390fd5b806000806101000a81548173ffffffffffffffffffffffffffffffffffffffff021916908373ffffffffffffffffffffffffffffffffffffffff1602179055505060ab806101196000396000f3fe608060405273ffffffffffffffffffffffffffffffffffffffff600054167fa619486e0000000000000000000000000000000000000000000000000000000060003514156050578060005260206000f35b3660008037600080366000845af43d6000803e60008114156070573d6000fd5b3d6000f3fea2646970667358221220d1429297349653a4918076d650332de1a1068c5f3e07c5c82360c277770b955264736f6c63430007060033496e76616c69642073696e676c65746f6e20616464726573732070726f7669646564000000000000000000000000d9db270c1b5e3bd161e8c8503c55ceabee709552000000000000000000000000d9db270c1b5e3bd161e8c8503c55ceabee70955200000000000000000000000000000000000000000000000000000000000000000000000000000000000000000000000000000000000000000164b63e800d0000000000000000000000000000000000000000000000000000000000000100000000000000000000000000000000000000000000000000000000000000000100000000000000000000000000000000000000000000000000000000000000000000000000000000000000000000000000000000000000000000000000000140000000000000000000000000f48f2b2d2a534e402487b3ee7c18c33aec0fe5e400000000000000000000000000000000000000000000000000000000000000000000000000000000000000000000000000000000000000000000000000000000000000000000000000000000000000000000000000000000000000000000000000000000000000000000000000000000000000000000000000000000000000010000000000000000000000001d607e4eb747f1294ae632d3490f121b00db9312000000000000000000000000000000000000000000000000000000000000000000000000000000000000000000000000000000000000000000000000",
        "nonce": "0x1",
        "accessList": []
      },
      "additionalContracts": [
        {
          "transactionType": "CREATE2",
          "address": "0x9BD8c762e0CD23b337593999acF954aa398223Bf",
          "initCode": "0x67363d3d37363d34f03d5260086018f3"
        },
        {
          "transactionType": "CREATE",
          "address": "0x0000000000417626Ef34D62C4DC189b021603f2F",
          "initCode": "0x608060405234801561001057600080fd5b506040516101e63803806101e68339818101604052602081101561003357600080fd5b8101908080519060200190929190505050600073ffffffffffffffffffffffffffffffffffffffff168173ffffffffffffffffffffffffffffffffffffffff1614156100ca576040517f08c379a00000000000000000000000000000000000000000000000000000000081526004018080602001828103825260228152602001806101c46022913960400191505060405180910390fd5b806000806101000a81548173ffffffffffffffffffffffffffffffffffffffff021916908373ffffffffffffffffffffffffffffffffffffffff1602179055505060ab806101196000396000f3fe608060405273ffffffffffffffffffffffffffffffffffffffff600054167fa619486e0000000000000000000000000000000000000000000000000000000060003514156050578060005260206000f35b3660008037600080366000845af43d6000803e60008114156070573d6000fd5b3d6000f3fea2646970667358221220d1429297349653a4918076d650332de1a1068c5f3e07c5c82360c277770b955264736f6c63430007060033496e76616c69642073696e676c65746f6e20616464726573732070726f7669646564000000000000000000000000d9db270c1b5e3bd161e8c8503c55ceabee709552000000000000000000000000d9db270c1b5e3bd161e8c8503c55ceabee709552"
        }
      ],
      "isFixedGasLimit": false
    }
  ],
  "receipts": [
    {
      "transactionHash": "0x92be51eacd421700a410d237d308a02172982d18eb9acb232878b51873decd76",
      "transactionIndex": "0x0",
      "blockHash": "0xfdf776933abd9006f44f22552d48d7fa7faf9ae084e9a5f4023536d6b2e590a4",
      "blockNumber": "0xc29797",
      "from": "0x8e4d33110d60174B8e5Ad174623A0DF156aEFD9f",
      "to": "0x7a250d5630B4cF539739dF2C5dAcb4c659F2488D",
      "cumulativeGasUsed": "0x19e27",
      "gasUsed": "0x19e27",
      "contractAddress": null,
      "logs": [
        {
          "address": "0x27C70Cd1946795B66be9d954418546998b546634",
          "topics": [
            "0xddf252ad1be2c89b69c2b068fc378daa952ba7f163c4a11628f55a4df523b3ef",
            "0x0000000000000000000000008e4d33110d60174b8e5ad174623a0df156aefd9f",
            "0x000000000000000000000000874376be8231dad99aabf9ef0767b3cc054c60ee"
          ],
          "data": "0x00000000000000000000000000000000000000000000000084edc3a63f499d8e",
          "blockHash": "0xfdf776933abd9006f44f22552d48d7fa7faf9ae084e9a5f4023536d6b2e590a4",
          "blockNumber": "0xc29797",
          "transactionHash": "0x455d54ed6911c92ee20edc457358d5122ecdc1cfe5c02a70b88bdd8d3db384ad",
          "transactionIndex": "0x0",
          "logIndex": "0x0",
          "removed": false
        },
        {
          "address": "0xC02aaA39b223FE8D0A0e5C4F27eAD9083C756Cc2",
          "topics": [
            "0xddf252ad1be2c89b69c2b068fc378daa952ba7f163c4a11628f55a4df523b3ef",
            "0x000000000000000000000000874376be8231dad99aabf9ef0767b3cc054c60ee",
            "0x0000000000000000000000007a250d5630b4cf539739df2c5dacb4c659f2488d"
          ],
          "data": "0x000000000000000000000000000000000000000000000000cb58db25d243a19a",
          "blockHash": "0xfdf776933abd9006f44f22552d48d7fa7faf9ae084e9a5f4023536d6b2e590a4",
          "blockNumber": "0xc29797",
          "transactionHash": "0x455d54ed6911c92ee20edc457358d5122ecdc1cfe5c02a70b88bdd8d3db384ad",
          "transactionIndex": "0x0",
          "logIndex": "0x1",
          "removed": false
        },
        {
          "address": "0x874376Be8231DAd99AABF9EF0767b3cc054c60eE",
          "topics": [
            "0x1c411e9a96e071241c2f21f7726b17ae89e3cab4c78be50e062b03a9fffbbad1"
          ],
          "data": "0x00000000000000000000000000000000000000000000003fe0eb7f8eadc4e772000000000000000000000000000000000000000000000061371be634671df7e5",
          "blockHash": "0xfdf776933abd9006f44f22552d48d7fa7faf9ae084e9a5f4023536d6b2e590a4",
          "blockNumber": "0xc29797",
          "transactionHash": "0x455d54ed6911c92ee20edc457358d5122ecdc1cfe5c02a70b88bdd8d3db384ad",
          "transactionIndex": "0x0",
          "logIndex": "0x2",
          "removed": false
        },
        {
          "address": "0x874376Be8231DAd99AABF9EF0767b3cc054c60eE",
          "topics": [
            "0xd78ad95fa46c994b6551d0da85fc275fe613ce37657fb8d5e3d130840159d822",
            "0x0000000000000000000000007a250d5630b4cf539739df2c5dacb4c659f2488d",
            "0x0000000000000000000000007a250d5630b4cf539739df2c5dacb4c659f2488d"
          ],
          "data": "0x00000000000000000000000000000000000000000000000084edc3a63f499d8e00000000000000000000000000000000000000000000000000000000000000000000000000000000000000000000000000000000000000000000000000000000000000000000000000000000000000000000000000000000cb58db25d243a19a",
          "blockHash": "0xfdf776933abd9006f44f22552d48d7fa7faf9ae084e9a5f4023536d6b2e590a4",
          "blockNumber": "0xc29797",
          "transactionHash": "0x455d54ed6911c92ee20edc457358d5122ecdc1cfe5c02a70b88bdd8d3db384ad",
          "transactionIndex": "0x0",
          "logIndex": "0x3",
          "removed": false
        },
        {
          "address": "0xC02aaA39b223FE8D0A0e5C4F27eAD9083C756Cc2",
          "topics": [
            "0x7fcf532c15f0a6db0bd6d0e038bea71d30d808c7d98cb3bf7268a95bf5081b65",
            "0x0000000000000000000000007a250d5630b4cf539739df2c5dacb4c659f2488d"
          ],
          "data": "0x000000000000000000000000000000000000000000000000cb58db25d243a19a",
          "blockHash": "0xfdf776933abd9006f44f22552d48d7fa7faf9ae084e9a5f4023536d6b2e590a4",
          "blockNumber": "0xc29797",
          "transactionHash": "0x455d54ed6911c92ee20edc457358d5122ecdc1cfe5c02a70b88bdd8d3db384ad",
          "transactionIndex": "0x0",
          "logIndex": "0x4",
          "removed": false
        }
      ],
      "status": "0x1",
      "logsBloom": "0x00200000000000000000000080000000000000000000000000010000000000040000000000000040000000000000000002000000080000000000001000000000000008200000000000000008000000200000000000400000000000000000000040000000000000000004000000004000000000100010040000000010000000000000000000000000004000000000000000000000000000080000004000000000000000000000000000000000000000000000000000000000000000000000000000000002000000000000000000000000000000000000001000000002000020000000200000000000000000002000000000000000000000000000000000000000",
      "type": "0x0",
      "effectiveGasPrice": "0x10c388d00"
    }
  ],
  "libraries": [],
  "pending": [],
  "returns": {
    "deployed": {
      "internal_type": "address",
      "value": "0x0000000000417626Ef34D62C4DC189b021603f2F"
    }
  },
  "timestamp": 1708204106,
  "chain": 1,
  "multi": false,
  "commit": "0a55342"
}